:020000021000EC
:10000000F0EC012009290200F92602000D47010049
:10001000E5280200E5280200E5280200E5280200A4
:100020000000000000000000000000007DF301005F
:10003000E52802000000000095F30100FDF3010037
:1000400085040200950302004905020089050200AB
:10005000850402009503020049050200890502009B
:10006000711E0200491F02006D200200491F02009C
:100070006D2002008504020095030200490502007C
:100080008905020039080200650902006D170200A7
:10009000FD16020009FC010091FC0100A5FD010014
:1000A00015FE010025250200E90D020000000000F8
:1000B0000000000000000000000000000000000040
:1000C0000000000000000000000000000000000030
:1000D0000000000000000000000000000000000020
:1000E0000000000000000000000000000000000010
:1000F0000000000000000000000000000000000000
:1001000000000000000000000000000000000000EF
:1001100000000000000000000000000000000000DF
:1001200000000000000000000000000000000000CF
:1001300000000000000000000000000000000000BF
:1001400000000000000000000000000000000000AF
:10015000000000000000000000000000000000009F
:10016000000000000000000000000000000000008F
:10017000000000000000000000000000000000007F
:10018000000000000000000000000000000000006F
:10019000000000000000000000000000000000005F
:1001A000000000000000000000000000000000004F
:1001B000000000000000000000000000000000003F
:1001C00010B5054C237833B9044B13B1044800E053
:1001D00000BF0123237010BD38390020000000004B
:1001E000D8BC020008B5034B1BB10349034800E02B
:1001F00000BF08BD000000003C390020D8BC020050
:1002000072B110B410444B1E541E51FA84F110F90F
:10021000012D03F8012F8B42F9D15DF8044B704793
:100220007047FFFFF0B585B00D46002300930193A2
:1002300002930393092826D91C46144F144E04AB8D
:100240001919A6FB0023DB0803EB8302A0EB420293
:10025000BA5C01F8102C0134E4B202461846632A55
:10026000EDD804AB2344094A125C03F8102C661C39
:10027000F2B229466846FFF7C3FF2C44002363709F
:10028000304605B0F0BD0024EBE700BFD89802006F
:10029000CDCCCCCC91F900305BB1013810F9012FF5
:1002A0009A4208D14AB111F9013F002BF6D1012041
:1002B0007047012070470020704700207047FFFF03
:1002C000F8B50F4616460C4915F010FA851C0B4977
:1002D000284615F00BFA0446094915F007FA0023E1
:1002E000037004F8033B2946384615F0ACF9214663
:1002F000304615F0A8F9F8BDD0980200D498020055
:10030000C8A6020010B4441E002108460AE0A3F16A
:100310004102D2B2052A0FD8373B1844022913D81C
:100320000001013114F8013FA3F13002D2B2092AD1
:10033000EDD8303B1844F1E7A3F16102D2B2052AAF
:1003400008D8573B1844E9E74B1C032BE9D95DF863
:10035000044B70470020FAE72DE9F84F0F46096873
:10036000BB685A1C8D1801EB030CCB5C222B40F0B0
:10037000D28080467868824280F0CD802C4600266C
:1003800004E00134621A824280F0C5802378222B77
:1003900000F0CE805C2BF4D10134631A834280F0EC
:1003A000BA800136EDE7013506F8013BA54280F041
:1003B000A5802B785C2BF6D1611B002940F3998036
:1003C0006A78752A00F295805B2A13D9A2F15C0342
:1003D000192B00F28E80DFE803F0118C8C8C8C8C52
:1003E000158C8C8C1B8C8C8C8C8C8C8C208C8C8CA1
:1003F000258C2A2F222A01D02F2A7AD106F8012B08
:10040000534603E0082306F8013B53461D44CDE75D
:100410000C2306F8013B5346F8E70A2306F8013B94
:100420005346F3E70D2306F8013B5346EEE7092355
:1004300006F8013B5346E9E705295ADDA81CFFF7FA
:1004400061FF8146A0F55C43B3F5806F51D3A0F501
:100450005843B3F5806F1FD2AB1DE31A052B48DD5F
:10046000AB795C2B45D1EB79752B42D105F10800B6
:10047000FFF748FFA0F55C42B2F5806F39D2354AEC
:1004800002EA8929C0F3090349EA030303F5803925
:100490000C23F02004210CE07F2804D85FFA80F9B7
:1004A0000623012117E0B0F5006F18D20623C02003
:1004B00051464A1ED2B209F03F0C6CF07F0C06F890
:1004C00002C04FEA9919013A12F0FF02F3D140EA53
:1004D00009095FFA89F986F800900E4496E7B0F5AD
:1004E000803F03D20623E0200321E2E7B0F5881F16
:1004F0001AD37B69584698470EE0064600233370AE
:100500001023C8F80C30C8F810B03B68E31A013368
:10051000BB60012004E02DB13B68ED1ABD600020F6
:10052000BDE8F88F0020FBE70623F0200421C0E798
:100530008242F0D2A4EB0C00C6F101063B693044C4
:10054000984783460028E6D0AC42D6D906464FF0FD
:10055000020A2EE700FC0F00E0B10268C2B110B43D
:1005600083684468A3420ED2591E0A4412F8011F40
:10057000202906D8013383609C42F7D1013C846076
:1005800001E09C4202D05DF8044B70471C46F5E741
:1005900010467047704740B1806830B129B10139C9
:1005A000006810B10029FAD1704770470B4689B135
:1005B00090B1814212D082683AB1526882B1116022
:1005C0004A608268516001207047816059600A600A
:1005D00001207047002070470020704700207047BE
:1005E0000120704750B138B50546006828B1AC68A5
:1005F000204415F04EF80444AC6038BD704770B527
:10060000064670B10D4615F044F8441C2B68204690
:100610009847054618B12246314614F095FE284603
:1006200070BD0546FBE748B32DE9F0410E46144680
:100630001D46074621B32AB3904225D0069B9BB1A5
:10064000D36843F40078E36813F4007F03D1206A91
:1006500008B16B6898472662C4F80C80214638467A
:10066000FFF7A4FFBDE8F08129463046FFF7C7FF3A
:10067000064658B1E36823F40078E4E700207047A9
:100680000020EFE70020EDE70020EBE70698E9E720
:1006900070B50546002846D0066836B3436813B1E6
:1006A0008268934241D9002941DBAA680131114493
:1006B0008B420AD22B69002B3BD1B1F1804F08D37A
:1006C000002904DB6FF0004404E016440DE000262E
:1006D0000BE04C002B6A8BB121463046984706460A
:1006E00028B16C602E60AB681E44304670BDEB696B
:1006F0002868984700236B602B60F6E7AB692046BB
:100700009847064640B1AA680132296814F01CFED9
:10071000EB6928689847E4E7EB6928689847002365
:100720006B602B60E1E70646DFE70026DDE7002689
:10073000DBE70026D9E710B5036828209847044670
:1007400018B12822002114F00CFE204610BDFFFF36
:10075000002900F094802DE9F0470546084645B190
:100760002A78002A00F093802C460026012752495F
:1007700011E00321FFF78CFF002800F082804F4A30
:100780001188927801808270012076E05C2A0DD079
:1007900014F8012F82B1222AF8D8072A08D9A2F129
:1007A0000803DBB207FA03F30B4201D00136EFE78F
:1007B0001F2A98BF0536EBE7641B3444E11CFFF7A2
:1007C00067FF804600285ED0002E67D006462223B1
:1007D00006F8013B2B78002B49D05C27DFF8E0A01E
:1007E0004FF0740906E033703046461C15F8013F9F
:1007F000002B3CD01F2B03D9222B01D05C2BF2D134
:10080000304600F8017B2A78222A15D8072A29D9F0
:10081000A2F108031A2B25D8DFE803F015211B24C9
:10082000181E24242424242424242424242424249A
:1008300024242424242412005C2A13D17770D4E7C2
:1008400022237370D1E762237370CEE7662373703F
:10085000CBE76E237370C8E772237370C5E786F821
:100860000190C2E7514614F089FE701DBDE7444473
:10087000222363700023A3700120BDE8F0870020CD
:1008800070470020F9E70020F7E70020F5E7032193
:10089000FFF7FEFE80460028F7D0002422264046BF
:1008A00000F8016B2246294614F04EFD4444667060
:1008B0000023A3700120E0E737000004E498020061
:1008C000E8980200F8B50446002834D00E46002906
:1008D00033D084681AB974B3DFF868C00CE054B33D
:1008E000216A61B3304614F0A4FE20B32468002CC2
:1008F000F6D120E02468F4B1226A002AFAD0B2428C
:1009000019D0771E013A17F8010F10F80C3003F0D8
:100910000303012B0CBF00F12001014612F8013F37
:1009200013F80C5005F00305012D08BF2033994240
:10093000E0D10028E7D12046F8BD0C46FBE70C4685
:10094000F9E700BF8DB902002DE9F04F8DB0002806
:1009500000F054828A468046002900F05182047BD0
:10096000202C28DC002C00F04D82631E1F2B00F28F
:100970004E82DFE813F04C005A004C023D004C025E
:100980004C024C0269004C024C024C024C024C02DC
:100990004C024C0215014C024C024C024C024C021F
:1009A0004C024C024C024C024C024C024C024C02D7
:1009B0004C024C021A01402C00F04F81802C18BFD1
:1009C000002440F020820069002800F0288214F002
:1009D00060FE441C21465046FFF75AFE002800F0F6
:1009E00020822246D8F8101014F0AEFC01240AE24E
:1009F00005215046FFF74CFE0346002800F009820F
:100A0000B64A1068186012791A710124FBE10621B8
:100A10005046FFF73DFE0346002800F0FC81B04A37
:100A20001068186092889A80EDE105215046FFF722
:100A30002FFE0346002800F0F081AA4A10681860D3
:100A400012791A710124DEE1D0E9064500230593ED
:100A500006930793089309930A93ADF82C3000226C
:100A60000023CDE9022322462B462046294614F0D6
:100A700017FA90B9264625F000474FF0FF329A4BFF
:100A80002046394614F00CFA70BB4FF0FF32964BFB
:100A90002046394614F0E6F930BB904B93E803004A
:100AA00005908DF818100424611C5046FFF7F0FDE6
:100AB0000546002872D0002C6ED005A903462018E8
:100AC0002E2611F8012B2E2A0CBF1E701A7001332E
:100AD0009842F6D122460023AB54DAF808301C4481
:100AE000CAF8084001248EE1D8F81480404613F07B
:100AF000D3FE02460B462046294614F09FF930B13A
:100B000042467A4905A814F039FD0446CCE722464E
:100B10002B46774905A814F031FD834602AA754992
:100B200005A814F04BFD012827D19DED027B8DED2A
:100B3000007B53EC172B17EE108A23F000494B462D
:100B40003046394614F084F908B9B046B946224611
:100B50002B46DDE9000113F051FD064621F0004768
:100B60000022654B4046494613F000FF02460B4603
:100B70003046394614F076F930B922462B465F49A3
:100B800005A814F0FBFC83465C46BBF1190F88BF37
:100B9000002400F2388187E722469CE7002432E1F6
:100BA0000069FFF7D5FD04462DE185680121504617
:100BB000FFF76EFD002800F036815B220270DAF844
:100BC00008300133CAF80830DAF80C300133CAF8BB
:100BD0000C3085B32C274FF0200800260AE0821C39
:100BE00080F801801670DAF808302344CAF808301B
:100BF0002D6805B351462846FFF7A6FE0446002897
:100C000000F001815046FFF7EDFC2B689BB1DAF84C
:100C10001430002B14BF02240124611C5046FFF73E
:100C200037FD002800F001810770DAF81420002A4F
:100C3000D5D1421CD6E702215046FFF729FD0028F6
:100C400000F0F5805D22027000224270DAF80C306C
:100C5000013BCAF80C300124D5E04B69002B14BFCE
:100C6000022401248568611C5046FFF711FD00280D
:100C700000F0DF807B230370DAF80C300133CAF810
:100C80000C30DAF814300BB10A234370DAF808306C
:100C90002344CAF80830002D00F0868009263A2740
:100CA0004FF02C0836E0DAF80C105046FFF7F0FC55
:100CB0000146002800F0BF80DAF80C203AB100238A
:100CC00001F8016B0133DAF80C209342F8D3DAF81B
:100CD00008301A44CAF8082020E000BFF09802004B
:100CE000F898020000990200FFFFEF7F08990200C8
:100CF0000C990200149902000000B03C18990200FF
:100D000000221A70DAF808301C44CAF808402D682E
:100D1000002D49D0DAF81430002BC4D15146286A8E
:100D2000FFF716FD044600286DD05046FFF75AFC29
:100D3000DAF81430002B14BF022401242146504657
:100D4000FFF7A6FC002878D00770DAF8142002B16B
:100D50004670DAF808102144CAF8081051462846AF
:100D6000FFF7F2FD044600284DD05046FFF73AFC4D
:100D70002B68DAF81440003C18BF0124002B18BF80
:100D80000134611C5046FFF783FC0346002856D00F
:100D90002A680AB103F8018BDAF81420002AAFD0D0
:100DA0000A2203F8012BABE7DAF8143023B3DAF8A0
:100DB0000C1001315046FFF76BFC0146002840D073
:100DC000DAF814306BB1DAF80C30012B09D00022BC
:100DD000092001F8010B0132DAF80C30013B9A428C
:100DE000F7D37D230B7000234B70DAF80C30013BF6
:100DF000CAF80C30012406E00221DBE7002402E0FF
:100E0000002400E0002420460DB0BDE8F08F00244F
:100E1000F9E70024F7E70024F5E70024F3E70024CE
:100E2000F1E70024EFE70024EDE70024EBE70024DE
:100E3000E9E70024E7E70024E5E70024E3E70024EE
:100E4000E1E70024DFE700BF0346A0B1124A1349DF
:100E5000116002680AB110490A600F4A10495160D6
:100E60005B6803B153600C4B00229A601A680B4B0D
:100E70009A4208D07047084B084A1A60084A5A60DC
:100E8000084A9A607047044B5A68054B9A42F1D160
:100E9000014B044A9A60EDE7E00700200D53020081
:100EA0001D5302004D55020020B370B50546124E89
:100EB0000FE0206908B173689847E36813F4007F76
:100EC00003D1206A08B17368984773682046984731
:100ED0007DB12C462D68E36813F4807FEDD1A068C6
:100EE0000028E6D0FFF7E0FFE36813F4807FE0D04E
:100EF000E3E770BD704700BFE0070020FFFFFFFF82
:100F0000002900F0A0812DE9F04792B006460C467A
:100F10000F68002F00F099818D68D1F804802B1D97
:100F2000434525D804229A49781914F0BAFBC0B178
:100F30006B1D984507D305229649781914F0B1FB2B
:100F4000002800F0A68104229349781914F0A9FB27
:100F500090B90223F36001207061A3680433A36099
:100F600076E10423F360A3680433A36001206FE1FA
:100F70006B1D984580F08581454580F068817B5DDB
:100F8000222B1BD02D2B1ED0A3F13002D2B2092A66
:100F900019D95B2B00F081807B2B18BF002040F01B
:100FA0005781E368B3F57A7F80F059810133E360BC
:100FB0007B5D7B2B00F0CE80002049E1214630464E
:100FC000FFF7CAF944E1002101916B1E1F4402A8FA
:100FD000A8EB05054FF02E0C17F8012F452A15D860
:100FE0002A2A15D9A2F12B031A2B11D8DFE803F016
:100FF0003610363F103636363636363636363610FA
:10100000101010101010101010103600652A25D086
:1010100012AB1944002301F8403C02AF01A9384645
:1010200015F0A8F959EC108B019DBD4233D086ED27
:10103000060B55A3D3E9002310EE100A494613F01E
:101040001BFFB8B16FF0004373610823F3606B447A
:10105000ED1AA3681D44A5600120F9E0027001317A
:101060003F29D5D00130A942B6D12946D0E780F832
:1010700000C0F4E70022494B4046494613F0F2FE17
:1010800018B14FF000437361DFE74046494613F063
:101090001DFF7061D9E70020DAE0E368B3F57A7FDD
:1010A00080F0D9800133E3607B5D5B2B01D00020B1
:1010B000CEE00135A5602046FFF74EFAA3686268CE
:1010C000934280F0D5802268D25C5D2A00F0CB800C
:1010D000013BA36000252F4604F1100816E00746E7
:1010E000A3680133A3602046FFF736FA214628465D
:1010F000FFF706FF30B32046FFF72EFAA3686268B9
:1011000093421FD22268D35C2C2B0CD1A9464046B7
:10111000FFF711FB0546A8B1002FE0D0C9F8000089
:10112000C0F80490DCE75D2B0CD1E368013BE36081
:1011300007B17D602023F360B760A3680133A3602B
:10114000012085E0002F00F088803846FFF7ACFED4
:1011500000207DE00135A5602046FFF7FDF9A3687A
:10116000626893420CD22268D25C7D2A00F08480AF
:10117000013BA36000252F4604F11008A94640E07A
:10118000013BA360002063E00000C0FFFFFFDF41E0
:10119000F0980200F8980200009902000000E0C1F7
:1011A0000746A3680133A3602046FFF7D5F921461F
:1011B0002846FFF7D1F800283FD02046FFF7CCF9AA
:1011C0002B692B62C5F81090A3686268934234D2F1
:1011D0002268D25C3A2A30D10133A3602046FFF75F
:1011E000BBF921462846FFF78BFE30B32046FFF7B8
:1011F000B3F9A368626893421FD22268D35C2C2B98
:101200000CD1AA464046FFF796FA0546A8B1002F32
:10121000C6D0CAF80000C0F804A0C2E77D2B0CD1EC
:10122000E368013BE36007B17D604023F360B76092
:10123000A3680133A36001200AE097B13846FFF7A5
:1012400033FE002004E000207047002000E0002072
:1012500012B0BDE8F0870020FAE70020F8E7002090
:10126000F6E70020F4E7E368013BE360002761E76D
:10127000013BA3600020EBE7E368013BE36000274C
:10128000D3E705220649781914F00BFA00287FF4F9
:1012900073AE0120F060A3680533A360D8E700BFF8
:1012A000F8980200F0B589B01E4600240294039419
:1012B00004942E4B1C605C600446002854D01546F4
:1012C00039B9039B029A934244D3002A41D0531E5A
:1012D00040E001900291264B93E8070008AF07E930
:1012E00007001846FFF727FA07460028E9D00198BB
:1012F00080B1039B5BB9029B042B0AD903221D49D1
:1013000014F0CFF9A0B90323039301A802E0002051
:1013100000E001A8FFF720F901463846FFF7F0FD8D
:1013200098B13EB9EDB1019B039A13442B6018E0CC
:1013300001A8EFE701A8FFF70FF9039B029A934278
:1013400003D2019AD35C002BECD03846FFF7ACFDFA
:10135000B7E713460DB1E2182A60044A14605360DF
:101360000027384609B0F0BD0746FAE75439002097
:10137000E00700202099020070B5044648B10D46F0
:10138000164614F086F933462A46411C2046FFF7DC
:1013900089FF70BD08B500221146FFF7EDFF08BDBB
:1013A000F0B58BB007460D4614461E462422002198
:1013B00001A813F0D6FF002C13DBA5B10195029410
:1013C00000230393012305930696084B93E8070037
:1013D0000AAB03E9070001A93846FFF7B5FA0BB0DD
:1013E000F0BD0020FBE70020F9E700BFE007002088
:1013F00048B183682BB1002001301B68002BFBD162
:1014000070470020704700207047002903DB08B5B3
:10141000FFF7C1F808BD0020704708B50022FFF7AC
:1014200051FA08BD08B50122FFF74CFA08BD08B50E
:10143000FFF7BCF808BDFFFF00B583B000230093A1
:10144000024BFFF7F0F803B05DF804FBE007002063
:1014500000B583B001230093024BFFF7E4F803B01B
:101460005DF804FBE007002008B50348FFF763F9C7
:1014700008B10423C36008BDE007002070B582B046
:1014800005460E46FFF7F0FF044600230093074B86
:10149000024631462846FFF7C6F810B1204602B092
:1014A00070BD2046FFF700FD0024F7E7E0070020AD
:1014B00010B504460548FFF73EF928B10346002C55
:1014C00014BF02230123C36010BD00BFE00700204A
:1014D00070B582B005460E461046FFF7E9FF044698
:1014E00000230093074B024631462846FFF79BF83E
:1014F00010B1204602B070BD2046FFF7D5FC002495
:10150000F7E700BFE007002070B555EC104B164818
:10151000FFF711F9064670B10823C360C0E906451C
:101520000FA3D3E900232046294613F0A5FC20B1E0
:101530006FF000437361304670BD00220B4B2046B4
:10154000294613F08FFC18B14FF000437361F2E7A6
:101550002046294613F0BAFC7061ECE7AFF3008037
:101560000000C0FFFFFFDF41E00700200000E0C1F6
:1015700070B582B005460E46FFF7C6FF044600234D
:101580000093074B024631462846FFF74CF810B14E
:10159000204602B070BD2046FFF786FC0024F7E726
:1015A000E007002038B504460A48FFF7C4F80546AE
:1015B00040B11023C36007492046FFF720F80446D6
:1015C000286108B1284638BD2846FFF76DFC25463E
:1015D000F8E700BFE007002070B582B005460E4670
:1015E0001046FFF7DFFF044600230093074B024637
:1015F00031462846FFF717F810B1204602B070BDFB
:101600002046FFF751FC0024F7E700BFE007002069
:1016100008B50348FFF78FF808B12023C36008BD61
:10162000E007002008B50348FFF785F808B140231C
:10163000C36008BDE007002028B1007B082814BF64
:1016400000200120704700207047FFFFFFFFFFFFD1
:1016500010B50446FFF7F0FF10B194ED060B10BD76
:101660009FED010BFBE700BF000000000000F87FCA
:1016700028B1007B102814BF0020012070470020F3
:10168000704710B50446FFF7F3FF08B1206910BD9D
:101690000020FCE728B1007B202814BF0020012097
:1016A0007047002070477B2300F8013B70477D2383
:1016B0000370002300F8013F7047222300F8013B2C
:1016C00091F900302BB100F8013B11F9013F002BDB
:1016D000F9D1222303703A234370023070477D23EF
:1016E00000F8013B7047222300F8013B91F90030DC
:1016F0002BB100F8013B11F9013F002BF9D1222356
:1017000003703A214170C11C837092F900302BB1F3
:1017100001F8013B12F9013F002BF9D108462223C1
:1017200000F8013B7047FFFFF8B52DED028B154621
:10173000FCEEC07AB8EE678A30EE488A222300F8C1
:10174000013B91F900302BB100F8013B11F9013F49
:10175000002BF9D10646222306F8023B3A234370B8
:10176000314617EE900AFEF75DFD341801342E2342
:101770003354681C13F090F841EC110B9FED140BDF
:1017800016F0B2FE57EC106B18EE100A13F096F834
:1017900032463B4613F0EAF813F0C0FB06462146FA
:1017A000FEF740FD431EDBB29D4207D8214630467E
:1017B000FEF738FD2044BDEC028BF8BDED1A2A4639
:1017C0003021204613F0CDFD2C44EFE7AFF300802D
:1017D000000000000000244030B589B004460D46EA
:1017E000101E2ADB002300930193029303930493BA
:1017F0000593069307936946FEF714FD23462222BC
:1018000003F8012B95F900202AB103F8012B15F9F3
:10181000012F002AF9D11846222200F8022B3A2281
:101820005A709DF9003033B16A4600F8013B12F955
:10183000013F002BF9D109B030BD00230093019383
:1018400002930393049305930693079369464042DA
:10185000FEF7E8FC2346222203F8012B95F900202D
:101860002AB103F8012B15F9012F002AF9D1222200
:101870001A703A225A70D81C2D229A709DF90030A5
:10188000002BD8D06A4600F8013B12F9013F002B2B
:10189000F9D1D0E7F0B589B0002400940194029406
:1018A00003940494059406940794222400F8014BB1
:1018B00091F900402CB100F8014B11F9014F002CB7
:1018C000F9D1222101703A214170C41C5B21817041
:1018D000E3B1154602EB43062C2705E020460446FB
:1018E00004F8017BB54211D0694635F8020BFEF7CA
:1018F00099FC9DF90030002BF0D06A46204600F894
:10190000013B12F9013F002BF9D1E8E75D2304F810
:10191000013C204609B0F0BDF0B589B00024009428
:101920000194029403940494059406940794222449
:1019300000F8014B91F900402CB100F8014B11F96E
:10194000014F002CF9D1222101703A214170C41CB1
:101950005B218170DBB11546D6182C2705E02046A7
:10196000044604F8017BAE4211D0694615F8010B1C
:10197000FEF758FC9DF90030002BF0D06A46204657
:1019800000F8013B12F9013F002BF9D1E8E75D2394
:1019900004F8013C204609B0F0BD013901290EDDF3
:1019A00010B401230022C45C2244D2B201339BB2A2
:1019B0008B42F8DB5042C0B25DF8044B7047002206
:1019C0005042C0B27047FFFFF8B503783A2B01D000
:1019D0002448F8BD04460D46234E64273A460021AC
:1019E000304613F0BEFC204610F8013B324602F8A8
:1019F000013B691E89B200F069F81A4C33782370F4
:101A000075786570B278F37843EA0223638033799E
:101A10002371164E3A460021304613F0A2FCA66010
:101A2000EDB100230521104E22460846013189B24E
:101A3000355C98B2946825540133547898B2844246
:101A4000F3D80948445C074B1C73013189B2FFF796
:101A5000A4FF044B84420CBF18460020B9E70521BF
:101A6000EFE700BF605C0120EC5B0120885B012098
:101A7000F0B40446144F394601230020A4F1570561
:101A8000EDB2A4F1370C5FFA8CFCA4F13006F6B28B
:101A900005E0304601E0152B13D801339BB211F855
:101AA000012FA242F7D15A1E92B2092AF1D9A1F10F
:101AB0000B02D21B92B2052A98BF6046EDD9284688
:101AC000E9E7F0BC704700BFEB0700202DE9F843C1
:101AD00006460F46904611F0010517D1A1B16C00E2
:101AE000A4B2305DFFF7C4FF814633195878FFF781
:101AF000BFFF40EA091008F805000135ADB2023415
:101B0000A4B2A742EBD81DE00D461BE04D1E002DF0
:101B10001BDD02F1FF380446C0F102062078FFF712
:101B2000A7FF81466078FFF7A3FF40EA091008F895
:101B3000010F33199BB20234AB42EFDBBD1E6D08BF
:101B40000135ADB22846BDE8F8830025FAE7FFFF6E
:101B500049B1431E4A1E50FA82F003498A7A03F8BB
:101B6000012F8342FAD170470408002049B1431E77
:101B70004A1E50FA82F00349CA7A03F8012F8342C1
:101B8000FAD1704704080020014BDB7A03707047DC
:101B900004080020F0B51D468BB1C9B3632B35DDB9
:101BA000012764230137FFB2B94206D303EB830355
:101BB0005C002346A542F5DA03E0012701E039B3D2
:101BC00001270026DFF84CC0DFF84CE00BE01EF8E0
:101BD000033083558CFB0543ED17C5EBA305013698
:101BE000F3B28B4214D28CFB0543EC17C4EBA30376
:101BF00003EB8303B5EB4303E9D1F4B2A242E6D889
:101C0000A742E4D89EF80A308355E3E70127D8E7D6
:101C1000F0BD00BF676666660408002008B543692A
:101C2000984708BD0CB4F0B583B0124B1B689842BE
:101C300004DA03B0BDE8F04002B0704704460E4637
:101C400009AA01920C4F0899384614F08FFC0B4DED
:101C50002B680B4A52F8240098472B683046984767
:101C60002B68084898472B68384698472B680648E1
:101C70009847DEE75C390020705C01206039002065
:101C8000100800202499020050A80200024B18609E
:101C9000024B1960704700BF5C390020603900209A
:101CA00038B504460379052B04D8DFE803F0052492
:101CB0002854405429484FE0284D05F108004FF0C2
:101CC000FF33AB6043608360C36003616388244A71
:101CD0001360244A126843EA0243234A13602B60CC
:101CE000627813446B606278A16813F02DFB63780F
:101CF000EB66284630E019480023C3662CE0816873
:101D00000A784B7843EA0222184B1A60438843EA68
:101D10000213154A1360190C124A1160D9B2104A05
:101D200011600E48036043600023C36614E08168BD
:101D30000A784B7843EA02220A4B1A604388084922
:101D40000B6043EA0243084A13600448036043609F
:101D50000023C36600E0002038BD00BF70390020BA
:101D6000E03900206C3900206439002068390020F7
:101D700083680B70C3F307224A70C3F307428A706B
:101D8000C3F30763CB7043680B71C3F307224A7137
:101D9000C3F307428A71C3F30763CB71837B0B7272
:101DA00002888378A1F80920CB7283890B73C3F36F
:101DB00007234B737047FFFF10B4094B03F1320444
:101DC000FF2203F8012FA342FBD1064B1860064BFC
:101DD00000221A60054B19605DF8044B704700BF84
:101DE0006F640120E4390020E8390020A464012058
:101DF0002DE9F04182B0274F32252A46002138468E
:101E000013F0AFFA244B1E68C6F30B04C4F58054DC
:101E1000AC4228BF2C46DFF888800094C6F30B0341
:101E2000320B3946D8F800000CF0AEF8AC4209D0BD
:101E3000274426442D1B2C46B5F5805F28BF4FF460
:101E40008054EAE7134B002413F8012B0A2A03D02D
:101E50000134A4B2322CF7D1322210490D4813F0CC
:101E600065FAA8B10B4B00221A5519194A70621E67
:101E70009B5C0D2B08D0084A136801331C44146086
:101E8000044802B0BDE8F081024B00219954F2E70A
:101E90000020F6E7A8640120E439002070640120E6
:101EA000A4640120002070470120704701600123D5
:101EB0004371002303717047002303604371037172
:101EC000704738B504460D4690F8F43401F8013BEC
:101ED00000F28C40FFF74CFF05F10F0104F2BC400B
:101EE000FFF746FF38BDFFFFB0B10346B1B130B4D4
:101EF0000B4805685C1E013913FA81F1104614F88D
:101F0000013F83EA102335F8132082EA002080B2D3
:101F10008C42F4D130BC70470020704710467047A7
:101F2000240800209AB110B41346094A14680139F4
:101F3000CA1811F8013F83EA102334F8133083EAFA
:101F4000002080B29142F4D15DF8044B7047704795
:101F500024080020B8B1C1B110B40D4A1468421E63
:101F6000013910FA81F14FF6FF7012F8013F83EA50
:101F7000102334F8133083EA002080B28A42F4D16F
:101F80005DF8044B7047002070474FF6FF707047B4
:101F9000240800200378002B39D0F0B402461F4DEE
:101FA0001F4E3F271EE00023137001302BE0431C1F
:101FB000441D13F8011F895D11F0440F29D0A3427D
:101FC000F7D11770431D09E005EB430393F90110A6
:101FD00009B3431C117001E013700346581C013211
:101FE0005B7893B1222BDED05C2BF5D1417875293B
:101FF000DDD049B2002315F913408C42E4D00133FF
:10200000082BF8D10020F0BC70470020FBE700202F
:1020100070470020F7E70020F5E700BF889902002D
:102020008DB90200012340F8043C50F80C0C7047B5
:1020300050F8043C50F8082C934209D250F80C2C6C
:10204000591C40F8041C03EB830302EB8300704728
:1020500000207047013911F9013F1BB18342FAD1C9
:10206000012070470020704738B504460D4690F9AE
:10207000000040B12946FFF7EDFF30B114F9010F20
:102080000028F7D102E0002000E0204638BDFFFF25
:1020900090F9003053B1064A9B5C13F0040F06D050
:1020A00010F9013F002BF7D1002070470020704746
:1020B0008DB902002C2803D1012000F001007047E7
:1020C00010B504460649FFF7C5FF18B1012000F01E
:1020D000010010BD03492046FFF7BCFFF7E700BF32
:1020E0005099020058990200F8B504460F461E4662
:1020F000013A12F9010F28B114F9013B8342F8D0DB
:10210000002010E084B194F900502846FFF7D2FF78
:1021100060B107492846FFF79DFF10B9002304F876
:10212000013B3E742046F8BD2046FCE70020FAE75C
:102130005899020038B50D46846814B909E024683E
:102140003CB160680028FAD0294613F072FA0028E2
:10215000F5D1204638BDFFFF2DE9F04F83B0894609
:10216000C649FFF781FF0546002800F0858190F9F8
:10217000003023F020035B2B40F09081D9F8003031
:10218000484698478046002343600360836015F902
:10219000013B7B3B18BF012303740746DFF8DCA239
:1021A000DFF8F4B236E0451C34E0002303703B68EE
:1021B000002B00F0758100223A60451C1F4629E083
:1021C0000023436061E0BE60FE6066E0002333747C
:1021D000B3603760651C37461CE00123337400236D
:1021E000B3603760651C374614E0601CB060FFF7D1
:1021F000D1FE0546002800F0C8800223337409E0B0
:1022000003239F4A31462046FFF76EFF0546002D07
:1022100000F0BB8051462846FFF726FF0446002801
:1022200000F0B38090F900302C2BBCD03A7C002A0F
:102230000CBF7D225D229342B7D0D9F804304846C6
:1022400098470646002800F0A0803B7C012BB7D0C1
:1022500094F90030222B40F09880601C7060FFF7EA
:1022600099FE002800F091805146FFF7FDFE0028FE
:1022700000F08B8010F9013B3A2B40F086805146EC
:10228000FFF7F2FE044600287FD000233360BB68CE
:10229000002B98D0FB681E60FE60B46094F900309B
:1022A000222BA2D0A3F15B02D2B2202A58D8A3F1EC
:1022B0005B02202A54D801A151F822F0DB21010051
:1022C00061230100612301006123010061230100FA
:1022D00061230100612301006123010061230100EA
:1022E00061230100612301004123010061230100FA
:1022F00061230100612301006123010061230100CA
:1023000061230100612301005123010061230100C9
:1023100061230100612301006123010061230100A9
:1023200001220100612301006123010061230100FA
:10233000612301006123010061230100CD2101001F
:102340000323504A31462046FFF7CEFE05465EE79E
:1023500006234D4A31462046FFF7C6FE054656E79E
:102360002D2B0CBF601C204690F9003013F80B2079
:1023700012F0040F09D0302B0AD1451C90F901301E
:1023800013F80B3013F0040F07D04FF0000887E06C
:10239000FFF77EFE05460028F7D00423337495F935
:1023A00000302E2B29D095F9003023F02003452B47
:1023B00036D095F9003001931846FFF77BFE0028D0
:1023C000E3D0337C042B49D194F900602D2E0CBF4F
:1023D000142313232A1B9A42D7D83FD100232B70F2
:1023E00021462A482A4B2D2E18BF184613F021F9F2
:1023F0000028CADB019B2B7030E095F9013013F8FF
:102400000B3013F0040FC0D0A81CFFF741FE0028CA
:1024100038BF002005460028B7D005233374C2E733
:1024200095F901302D2B03D02B2B01D0013500E085
:10243000023595F9003013F80B3013F0040FA4D0D7
:10244000681CFFF725FE054600289ED0052333743F
:1024500090F90000FFF72EFE002896D00D4995F95F
:102460000000FFF7F7FD00287FF4D4AE28460023D4
:1024700000F8013B0546CDE6804611E05099020088
:1024800000990200F8980200F0980200709902008A
:102490005C990200589902008DB902004FF00008C3
:1024A000404603B0BDE8F08F00B587B001910292BD
:1024B000044B0493044B059304A9FFF74DFE07B0AA
:1024C0005DF804FB252001003120010008B5016002
:1024D000002141600261436100F53D7000F04FF85A
:1024E00008BDFFFF2DE9F04104460D460A460121D3
:1024F00000F5327000F0ACFF8046294604F51870F4
:1025000000F0A4FC04F5FC762946304600F0E8F91A
:102510000B4B1F7818343A462946204601F051F8F3
:102520007834B442F7D1B8F1000F04D1044B002243
:102530001A70BDE8F081024B01221A70F9E700BF62
:10254000EC39002038B504460D4600F5187000F04F
:1025500057FF294604F1180001F058F8294604F104
:10256000900001F053F8294604F5847001F04EF80C
:10257000294604F5C07001F049F838BD70470028BD
:10258000FDD00023037043708370C37003714371E7
:102590008371C3718360C3607047F0B407460588D8
:1025A000D5B14668002403E0431C9CB2AC420CD277
:1025B00063195A10C3F34F0036F832208A4209D00B
:1025C000F2D918B1431E9DB2F0E72846844204D0E8
:1025D0004FF6FF70F0BC704728467B6833F8302018
:1025E0004FF6FF738A4218BF1846F3E720B10B4637
:1025F00002460978072900D9FEE780F8341008461A
:1026000061B110B43432002153F8044F42F8044F42
:1026100001318142F8D15DF8044B70477047FFFFEC
:102620002DE9F84FC37843F08003C37090F834303D
:10263000002B4AD005460F4680464FF000094C4615
:102640004FF6FF7B98F83A6098F83BA0B8F838103E
:102650003846FFF7A2FF584516D03B88834224D95D
:102660007B6803EBC0008378B3421ED906EB4606B5
:10267000436813EB860618D05146BAF1000F4BD0D1
:102680002C4B186800232CE02B4B6B615A1CAA6161
:102690009A1CEA61DA1C2A621A1D6A625A1DAA6231
:1026A0009A1DEA6207332B630FE0234B6B615A1CC0
:1026B000AA619A1CEA61DA1C2A621A1D6A625A1D12
:1026C000AA629A1DEA6207332B63BDE8F88F05EB17
:1026D000840250610134E4B2082C0CD801338B42DF
:1026E0001AD0F2889A42F2DD05EB840C32681A4463
:1026F000CCF81420EEE7104B6B615A1CAA619A1CAF
:10270000EA61DA1C2A621A1D6A625A1DAA629A1DBF
:10271000EA6207332B63D8E7EB786FF3C713EB70EC
:1027200009F1010908F1040895F834304B4589DCBA
:10273000CBE700BF340A00202C0A002048B138B58E
:1027400014460546FFF752FF21462846FFF768FF6B
:1027500038BD704730B583B004460A460B46019138
:10276000802580F8205080F82410C1F3072180F8DC
:102770002510C2F3074280F826201B0E80F8273070
:10278000082380F82830094B1B6818309847019BB4
:10279000A3650023A4F84C30637584F8543084F8A2
:1027A0006030032384F8613003B030BD280A002074
:1027B00081650023A0F84C30437580F8543080F8D0
:1027C0006030032380F8613070474186704730B431
:1027D0000123037083694FF4C06464F31C038361B5
:1027E000082380F82830002380F8293044684FF40B
:1027F000B06565F31C04446043758385C38580F828
:102800003030B1F864404486896E4163A0F84030AE
:1028100080F8423043648364A0F84C30A0F84E3016
:10282000026580F854308365C36580F8603080F8B5
:10283000613030BC7047FFFF70B4039C012580F805
:10284000615001F07F01067E61F306060676067987
:1028500061F306060671A0F8402080F84230BDF80A
:102860001030A0F84E302279074B1A71E288DA80D6
:1028700022681A60A2689A60436480F8545010235A
:1028800080F8603070BC7047DC64012070B4039C39
:10289000012580F8615001F07F01067E61F3060694
:1028A0000676067961F306060671A0F8402080F8E6
:1028B0004230BDF81030A0F84E302279074B1A7123
:1028C000E288DA8022681A60A2689A60436480F81D
:1028D0005450132380F8603070BC7047DC640120D2
:1028E000F8B504460378002B00F0638290F860305E
:1028F000002B00F06182B0F84C203AB1114489B24B
:10290000A0F84C10B0F84E208A4206D3627D4AB936
:1029100094F854206AB901254CE2B249FFF748FF08
:10292000032547E20022A4F84C20227B5209042A06
:102930000BD0103B052B00F23A82DFE813F01A00AF
:102940006800CF0033015D01CE01227C002362F3D9
:102950000703627C62F30F23A27C62F31743E27CDD
:1029600062F31F63E3650023637584F86030032519
:1029700020E2002384F83030A385B4F8403084F896
:1029800021301B0A84F8223094F8423084F8233036
:10299000616CCB88E385042B17D8C3F10402920045
:1029A00002F00C0242F0230284F820200868EBB108
:1029B000421E04F12301013B10FA83F312F8010FC8
:1029C00001F8010F9342F9D110E0212284F8202070
:1029D00084F82430C3F3072284F82520C3F3074288
:1029E00084F82620C3F3076384F827307E4B1B68E6
:1029F00004F1180098470125A4F84C50002384F8EE
:102A00005430112384F8603000236375D2E1257BB4
:102A10006D09032D41D1627B002362F30703A27B82
:102A200062F30F239BB2B4F840209A423BD1E27B81
:102A300094F842309A4236D1E38D042B38D9626C37
:102A40001068A28D0732934237DCDDB213F0FF022B
:102A50000BD0431E04F12001013A10FA82F213F860
:102A6000010F01F8010F9342F9D1E38DA385C5F160
:102A7000070294F8303043EA420343F0010384F83C
:102A800020300125A4F84C50574B1B6804F1180066
:102A90009847122384F86030B6E754492046FFF780
:102AA00059FE0325B0E752492046FFF753FEABE736
:102AB000002384F860300225A6E7431E04F12002BB
:102AC000063013F8011F02F8011F8342F9D10723D2
:102AD000A38594F8303084F82030D2E7237B5D0959
:102AE000012D3CD194F8302003F0100393423CD1E7
:102AF00082F0100284F83020E28DA18D8A423AD90A
:102B0000636C18680844CB1D9A4239DC521AD7B25C
:102B100012F0FF020BD0411E04F12006013A10FA18
:102B200082F311F8012F06F8012F9942F9D1E38DB4
:102B3000A385C7F1070294F8303043EA420343F01B
:102B4000010384F820300123A4F84C30264B1B6885
:102B500004F118009847122384F8603054E72349A1
:102B60002046FFF7F7FD03254EE722492046FFF7F1
:102B7000F1FD032548E7002384F86030022543E790
:102B8000431E04F12001821D13F8010F01F8010F0B
:102B90009342F9D1A38D0733A38594F8303084F89C
:102BA0002030D0E7002684F83060A685B4F84030A5
:102BB00084F821301B0A84F8223094F8423084F8DB
:102BC0002330402384F82030074B1B6804F11800A1
:102BD00098470125A4F84C5084F85460142384F8D5
:102BE000603011E700000405280A002023000A06CF
:102BF0004300040600000305227B5109022934D159
:102C0000607B002360F30703A07B60F30F239BB27C
:102C1000B4F8400098422ED1E07B94F842309842BC
:102C200029D102F00305032D2BD0012D4FD1227C99
:102C3000002362F30703627C62F30F239BB2E385F8
:102C4000626CD2889A423CD30023A385602384F827
:102C500020300123A4F84C30584B1B6804F11800B5
:102C60009847152384F86030CEE655492046FFF793
:102C700071FD0325C8E653492046FFF76BFD032588
:102C8000C2E6C2F38103C3F104039BB2E385626C25
:102C9000D088984210D304F10F001268134410F842
:102CA000015F02F8015B9A42F9D1E38DA38500230D
:102CB00084F860300D46A7E643492046FFF778FDCB
:102CC000A2E641492046FFF745FD03259CE63F4922
:102CD0002046FFF73FFD032596E6217B4B092CD1CB
:102CE00094F8303001F010029A422CD183F0100396
:102CF00084F83030A08D636C1B680344E28DC51DE1
:102D0000AA422DDC11F0010F23D0121A90B268B143
:102D100004F10C02013B04F10D01013811FA80F1BC
:102D200012F8010F03F8010F8A42F9D1E38DA38550
:102D3000002384F86030022566E621492046FFF72B
:102D400009FD032560E622492046FFF703FD032520
:102D50005AE64FF000612046FFF7FCFC032553E6DE
:102D600011F0010F1CD104F10C02013B04F113001E
:102D700012F8011F03F8011F8242F9D1A38D073316
:102D8000A38594F8303043F0600384F820300B4B77
:102D90001B6804F1180098470125A4F84C5033E64D
:102DA0004FF000612046FFF7D5FC03252CE60125F6
:102DB0002AE6012584F86150F8BD00BF280A0020EA
:102DC00023000A0643000406050004051000070658
:102DD0000000030570B40124047091F85C4004F510
:102DE000B064856964F31C058561082480F8284077
:102DF000002480F8294091F85C5005F5C0654668CC
:102E000065F31C064660047544758485C48580F8A6
:102E10003040B1F85E5045860487C363A0F8404057
:102E200080F8424044648464A0F84C40B1F86030BB
:102E3000A0F84E30026580F854408465C46580F87F
:102E4000604080F8614070BC7047FFFF38B50446B1
:102E50000378002B00F0B082B0F84C303BB119443D
:102E600089B2A0F84C10B0F84E308B4208D3637D85
:102E70005BB994F85430002B40F0A78201259AE00A
:102E8000B749FFF795FC03259AE00023A4F84C30DE
:102E9000257B6D09042D0FD094F86030FBB194F8B8
:102EA0006030113B042B00F28382DFE813F09E00B8
:102EB0003F01810253001702227C62F30703627C08
:102EC00062F30F23A27C62F31743E27C62F31F6379
:102ED000E3650023637584F86030032570E06B1EA2
:102EE000DBB2012B6FD8637B002163F30701A37B67
:102EF00063F30F2189B2A4F84010E37B84F84230D9
:102F0000E06BFFF74AFB20874FF6FF73984200F013
:102F10005582E26B94F842301188814240F24E8231
:102F2000526802EBC00082789A4240F2478203EB7B
:102F300043039900426812EB830300F03F8263640D
:102F4000012D46D01B7913F0010F00F08A80142365
:102F500084F86030002384F83030A385637B84F8E4
:102F60002130A37B84F82230E37B84F82330616C2A
:102F7000CB88E385042B40F28E81412284F8202007
:102F800084F82430C3F3072284F82520C3F30742D2
:102F900084F82620C3F3076384F82730714B1B683D
:102FA00004F1180098470125A4F84C50152384F823
:102FB00060300023637594F86030002B08BF1D4615
:102FC00084F8615038BD68492046FFF7C3FB0325EC
:102FD000F6E7187910F0020F3CD09B68002B3ED02A
:102FE0001B68A364112384F8603094F85430002BDC
:102FF0003CD1002384F83030A385637B84F82130F2
:10300000A37B84F82230E37B84F82330237B03F016
:103010000305032D4DD0012D40F08280227C00233A
:1030200062F30703627C62F30F239BB2E385626C59
:10303000D2889A426ED3602384F820300123A4F80A
:103040004C30484B1B6804F118009847122384F851
:103050006030AEE745492046FFF77CFBB7E75358A1
:10306000BFE742492046FFF775FBB0E7636C9B68FA
:103070005B68984703280ED0022818BF012598D115
:10308000002384F85430A4F84C3039492046FFF727
:1030900061FB03258DE7002584F85450A4F84C50BB
:1030A000304B1B6804F11800984784F860500225E3
:1030B0007FE7C3F38102C2F1040292B2E285636C3E
:1030C000DB88934217D304F10F01A36C1A4411F863
:1030D000010F03F8010B9A42F9D1E38DA385602318
:1030E00084F82030636C9B6853B10125A4F84C50E0
:1030F00084F854505DE71F492046FFF72BFB58E743
:10310000184B1B6804F118009847002384F86030BE
:1031100002254EE717492046FFF71CFB032548E729
:1031200015492046FFF716FB032542E794F8543073
:1031300093B3636C9B685B68984703281ED0022892
:1031400018BF01257FF435AF002384F85430A4F86C
:103150004C3007492046FFF7FDFA032529E700BF59
:1031600000000405280A00200100040500000106F3
:10317000210000080500040510000706002584F85A
:103180005450A4F84C509A4B1B6804F1180098470F
:1031900084F8605002250CE7257B6B0931D194F847
:1031A000302005F010039A4231D1A08DA36C034466
:1031B000E28DC11D8A4241DC15F001052DD0121AA5
:1031C00090B268B104F10C02013B04F10D01013829
:1031D00011FA80F112F8010F03F8010F8A42F9D1B8
:1031E000E38DA38594F8303043F0200384F8203039
:1031F000636C9B68C3B10123A4F84C3084F854304D
:10320000D7E67C492046FFF7A5FA0325D1E67A499F
:103210002046FFF79FFA0325CBE64FF000612046DA
:10322000FFF798FA0325C4E6714B1B6804F11800F8
:103230009847002384F860300225BAE615F0010FA4
:1032400022D104F10C02013B04F1130012F8011F1A
:1032500003F8011F8242F9D1A38D0733A38594F8A7
:10326000303043F0200384F820300125A4F84C507E
:103270005F4B1B6804F11800984794F8303083F0D6
:10328000100384F8303094E64FF000612046FFF7D9
:1032900061FA03258DE6C3F10402920002F00C02EC
:1032A00042F0430284F8202008685BB1421E04F11A
:1032B0002301013B10FA83F312F8010F01F8010F0B
:1032C0009A42F9D14A4B1B6804F118009847E38DE4
:1032D000A385002384F8603002256AE6237B5D091C
:1032E000032D2DD194F8302003F010039A422DD1F4
:1032F000A28D636C19681144E38DD01D83422ADDD1
:103300004B1E04F12002063113F8010F02F8010FE1
:103310008B42F9D1A38D0733A38594F8303084F81C
:103320002030334B1B6804F1180098470125A4F89E
:103330004C5094F8303083F0100384F8303038E685
:103340002C492046FFF706FA032532E62A49204693
:10335000FFF700FA2DE69B1ADDB213F0FF020BD047
:103360004B1E04F12000013A11FA82F113F8012FEB
:1033700000F8012F8B42F9D1E38DA385C5F1070237
:1033800094F8303043EA420343F0010384F82030DC
:10339000174B1B6804F11800984794F8303083F0FD
:1033A000100384F83030002384F86030022500E6F2
:1033B0000125FEE50125FCE5012501E60023636406
:1033C0000E492046FFF7C6F901E694F86030113B3C
:1033D000042BEFD801A252F823F000BF6D3001009A
:1033E0002D310100B5330100552F0100DD32010000
:1033F000280A002023000A06000003051100090620
:1034000001F07F01037E61F306030376037961F324
:1034100006030371704703460A460321017491684D
:10342000506883E803000021597490899882D089FC
:10343000D882B2F85800188392F85A209A76998365
:10344000D98383F82010596283F828107047FFFF52
:10345000C17890F90330002B57DB10B50446838BFD
:103460001A4492B2934238BF828311F0400F35D094
:10347000828B838A9A4246D3C38B01339BB2C38328
:10348000028B9A4212D20123C38390F82030013379
:10349000DBB280F82030827E9A423CBF002380F865
:1034A000203090F82020012393404362E38B237265
:1034B000C3F30723637294F82030A372144B1B6884
:1034C000204698470023A3830120A38BE28A9342DE
:1034D0008CBF0023012384F8283010BD407C0028D5
:1034E000F3D0227A002362F30703627A62F30F2398
:1034F000E383A27A84F820200123934063620023AF
:10350000A3836374E1E70020DFE70020704700BF7A
:10351000280A002010B5044690F87330022B12D010
:1035200000F11003C21D303053F8041F097802F86F
:10353000011F8342F8D1084B1B682046984700239F
:1035400084F8723010BD436F08309847024B1B68F7
:1035500020469847F3E700BF280A00202DE9F041F4
:1035600004460E461146069D9DF81C80089F1A468B
:10357000FFF7E4F82B68E3652A89A4F864206A89D8
:10358000A4F86620A989A4F868102869E066A87BD9
:1035900084F86A0023600823237400236374A665FB
:1035A00084F8701084F8712084F8723084F8738085
:1035B0006767B8F1020F01D0BDE8F081002FFBD1A1
:1035C000FEE708B590F90330002B14DBB0F8643047
:1035D0004FF6FF718B420BD06AB1826DD18B99424D
:1035E0000DD043B990F872302BB1FFF793FF02E092
:1035F00090F8723003B908BDFFF78CFFFBE7C16E8E
:10360000526A1142EDD0FFF785FFF4E7037861F3CA
:10361000060303707047FFFF10B50446094B00F125
:103620002E011868C4F82E001B790B71636C0522FB
:1036300020469847044B1868C4F801001B79637151
:1036400010BD00BF98990200A099020008B501467C
:10365000436C2D220131984708BD01234367704711
:1036600008B54FF0FF31024B18680FF0C1FE08BDDE
:10367000F039002008B500231A46194602480068B0
:103680000FF0A4FC08BD00BFF039002008B50349C5
:1036900001200FF07AFD024B186008BDE86401209C
:1036A000F03900202DE9F04104460E46412380F810
:1036B0002830542380F8293000F12B032B2280F886
:1036C0002A20284A4E2503F8015B12F9015F002DDC
:1036D000F9D196F9002032B1314603F8012B11F9E6
:1036E000012F002AF9D10D221A700A225A700027E0
:1036F0009F70FFF7B5FF04F104084FF4FA714046DC
:10370000FEF7D4FBE28A3946206911F02AFEA7822F
:10371000D4F8B03004F1280098473146204600F034
:1037200099FC002805DA237A002BF6D04FF0FF35FC
:1037300006E0237A9BB9D4F8BC30FA21204698479A
:103740004046FEF7B9FBE28A0021206911F009FE2C
:103750000023A382FFF78EFF2846BDE8F0814FF0DB
:10376000FF35EDE7A8990200F8B50446412380F83B
:103770002830542380F8293000F12B032B2280F8C5
:103780002A20234A522503F8015B12F9015F002D1C
:10379000F9D10D221A700A225A7000269E70FFF786
:1037A0005FFF271D4FF4FA713846FEF77FFBE28A70
:1037B0003146206911F0D5FDA682D4F8B03004F16D
:1037C00028009847134E3146204600F043FC00285D
:1037D00005DA237A002BF6D04FF0FF3506E0237A86
:1037E00093B9D4F8BC30FA21204698473846FEF702
:1037F00063FBE28A0021206911F0B3FD0023A3825C
:10380000FFF738FF2846F8BD4FF0FF35EEE700BF61
:10381000B0990200B8990200002380F8543080F873
:10382000133180F81531A0F89C3080F8123180F8FF
:103830001131C0F88830036480F81031836503606B
:1038400080F8143180F89E30704730B583B004465C
:103850001546019101AA2946019812F0E9FD44F8A4
:10386000040B0028F6D103B030BDFFFF03780BB97D
:103870000020704710B50C4611F03AFD51EC100BCA
:1038800011F06CFB07EE900A9FED0F7AF4EEC77A09
:10389000F1EE10FA15D4F0EE476A87EEA67ABDEE87
:1038A000C77AB8EEC77A67EE266A77EEE67A9FEDBA
:1038B000076AC7EE866A36EE877A84ED007A0120C1
:1038C00010BD0020FCE700BF0000C84200007042AD
:1038D00038B5B0F82C3743B940F2EE23A0F82C37B6
:1038E000224B1B78062200210FE05B1AA0F82C3730
:1038F000B0F82E37A3B3591AA0F82E1730E00133D1
:10390000DBB2013A12F0FF0210D0062B28BF0023D1
:1039100000EB8304D4F8FC462488002CEFD0214629
:10392000D0F81857A542EAD0104A13700F4B1B78F5
:10393000052B16D0B0F82E376BB94FF4FA63A0F808
:103940002E3700F2FC6300F21475002453F8042BA8
:103950001480AB42FAD1D0F8243700F214709847A3
:1039600038BD024B00221A70E4E700BFF439002092
:1039700070B504462026324600210C3011F0F1FCCF
:103980000025A565E56584F8385084F8395025642C
:1039900084F8545084F83A50A4F86250C4F8905017
:1039A00084F8165184F817513246294604F1640010
:1039B00011F0D7FCC4F88450A4F8885084F82C5037
:1039C00070BD70B5054611F064FE0146202828BF81
:1039D000202101280DD94E086A1E2944134612F9E8
:1039E000014F11F9010D10700C7002335B1B9E42E8
:1039F000F4D870BDF0B587B004460D4600F10C0652
:103A0000304611F046FE0246324F3146384611F03C
:103A10009BFC3846FFF7D5FF2846FDF744FE3A46A3
:103A20002D49FDF760FE2C2500F8015BA26D2B49A6
:103A3000FDF7D2FE00F8015BE26D2949FDF7CCFEEF
:103A400000F8015B102304F164022649FDF722FF10
:103A500000F8015B062304F184022349FDF75CFFB3
:103A600000F8015B226C2149FDF7B6FE00F8015B0E
:103A700094F854201E49FDF7AFFE00F8015BB4F83E
:103A800062201C49FDF7A8FE00F8015B94F838207D
:103A90001949FDF7A1FE00F8015B94F83920174998
:103AA000FDF79AFE064606F8015B01A904F1F6004F
:103AB00009F06CFA024612493046FDF714FEFDF794
:103AC000F6FD044620220021384611F04AFC20462B
:103AD00007B0F0BDF8390020C8990200609C0200D0
:103AE000D8990200DC990200E8990200F0990200DE
:103AF000F4990200F8990200009A0200089A020064
:103B0000109A020090F8392052B190F83A300133FF
:103B100003EB830303EB830302EB8303A0F8A430DE
:103B2000704708B50C3011F0B4FD092894BF00208F
:103B3000012008BD70B4B0F88420531C9CB21BB2A5
:103B400020461E1B8D198E572A2E10D0002B2BDBE2
:103B500012B2121B0A44013B1BB21546013A95F9F9
:103B600000602A2E03D0002BF5DA00201AE0002B8B
:103B70001CDB00222A701A1B8D188C562B2C0DD0A2
:103B8000013B1BB21A1A8D188C562B2C04D0B3F1A2
:103B9000FF3FF5D1002005E0002B09DB00232B704F
:103BA0000132881870BC70470020FBE70020F9E75D
:103BB0000020F7E710B50446D0F888325B699847D3
:103BC00001232370D4F888325B6A2046984710BDE1
:103BD0002DE9F041B2B00446084694F884620A2206
:103BE0006946FEF761FC38B105464049FEF7A2FA86
:103BF00010B1027C022A02D032B0BDE8F081C6EBDF
:103C0000C60204EB021283681B7882F8343138490B
:103C10002846FEF78FFA0028EED0027C022AEBD16C
:103C2000D0F80880C6EBC6073F01404611F031FDD1
:103C3000024607F235104146204411F085FB2D491C
:103C40002846FEF777FA0028D6D0027C002AD3D186
:103C50008568002DD0D02B7C022BCDD1D5F80880E3
:103C6000404611F016FD024607F237134146E018B0
:103C700011F06AFB2D6835B32B7C022B17D0C6EBF5
:103C8000C60604EB0613012283F89D2194F88432C2
:103C90001344DBB284F8843294F83021013284F882
:103CA0003021022B84BF002384F88432A4E7D5F8A6
:103CB0000880404611F0EDFC024607F247134146EA
:103CC000E01811F041FB2B68002BD8D02A7C022A87
:103CD000D5D19D68284611F0DCFC024607F2871713
:103CE0002946E01911F030FBC9E700BF189A02001D
:103CF000209A0200289A020008B5817051B9037811
:103D0000012B00D008BD02230370D0F888325B6A13
:103D10009847F7E70378023BDBB2022BF2D8012386
:103D20000370D0F888325B6A9847EBE72DE9F041E1
:103D30000546044600F5A8764FF00008062702E085
:103D40007034B4420CD094F89E31002BF8D084F833
:103D50009E812F70D5F888325B6A28469847EFE736
:103D6000BDE8F0812DE9F04F85B000AF064600F2C6
:103D7000371400F2872BDFF804A128E0FDF793FC4D
:103D800022463949FDF7AFFC00F8019BD4F86920C1
:103D90003649FDF721FDFDF7A2FCFDF788FC3868E8
:103DA00000F03CFCD7F804D0002185F8651085F8B8
:103DB0006610C5F8691029606960A960E960402251
:103DC00004F1100011F0CDFA70345C4547D025465F
:103DD00094F86630002BF7D0A4F10308D6F88832A7
:103DE000DB68414630469847C7F804D0ADF5007D02
:103DF000C7F800D0BAF80030BB810021B9734FF486
:103E00000072684611F0ADFA6846FDF74CFC14F8F4
:103E1000033C3B7307F10C021549FDF764FC4FF0BE
:103E20002C0900F8019B34F8023CBB8107F10C021D
:103E30001049FDF758FC00F8019B0F49FDF73DFCC8
:103E400014F8033C572B99D0522BA6D1D6F88832C0
:103E50009B6A002BA1D00146304698479DE7143756
:103E6000BD46BDE8F08F00BF309A0200009A020004
:103E7000189A0200209A0200289A0200589A02001A
:103E800010B50446D0F8D4320133C0F8D432B3F5BB
:103E90007A7F0ED0D4F8D422164BA3FB02139B09D1
:103EA0004FF47A7101FB132373B194F878307BB926
:103EB00010BDB0F886200021D0F8800011F051FA32
:103EC0000023A4F88430E5E72046FFF72FFFECE756
:103ED00004F17400FDF7F0FFD4F888325B692046E6
:103EE000984701232370D4F888325B6A20469847AC
:103EF000DEE700BFD34D62102DE9F8430C460A8877
:103F000044F257539A4237D105461F49E01C11F03D
:103F100090FB88BB05F1420104F1130011F089FB0D
:103F200050BB04F15308404611F0B3FB0746EE1CAA
:103F300005F142093A463146404611F0B2FB88B1DC
:103F400015364E45F6D10023E366414605F1520091
:103F500011F079FB03232B70D5F888325B6A284671
:103F600098470EE00123E36604232B70D5F88832CE
:103F70005B6A2846984704E00223E366012384F83D
:103F80006A30BDE8F88300BF389A020091F9013029
:103F9000452B00D0704770B505460C460B78572B63
:103FA00000D070BDCE1C2849304611F042FB28B32A
:103FB0002649304611F03DFB0028F2D105F167019A
:103FC00004F1130011F035FB002837D10123E3661B
:103FD000D5F888321B6A28469847D5F88832DB6ABC
:103FE0002846984705F17400FDF766FF04232B70FF
:103FF000D5F888325B6A28469847D2E7144904F11D
:10400000130011F016FB0028CBD12B78042B0BD01A
:10401000D5F88832DE691B6928469847014628464C
:10402000B0470123E366BCE70023E36606232B7059
:10403000D5F888325B6A28469847B2E70023E366E2
:10404000012384F86A30ACE7409A0200509A0200DB
:104050004C9A020070B582B005460E46848AADF8CF
:104060000640084611F015FBBDF806309BB2B3B10F
:1040700080B2BDF806309BB2834213D3ACB10024AA
:10408000286931462044FCF705F928B90134AB8A88
:10409000A342F5DC4FF0FF34204602B070BD4FF074
:1040A000FF34F9E74FF0FF34F6E74FF0FF34F3E762
:1040B00010B50446C3689847A36803FB00F303EBFD
:1040C0004313044A82FB03121A44DB17C3EBE223B7
:1040D000636010BD8100088008B5024902480CF0F9
:1040E0008DFA08BD30AA020070990120014B002210
:1040F0001A707047183A00202DE9F84380460F46A1
:10410000134E0125A94686F800902B463A464146B3
:1041100010480CF06DFB3378BBB1632428460FF0D8
:10412000E1FD33788BB1013CF8D10B4B1C680022C8
:10413000294620460CF0ECFE64200FF0D3FD00224F
:10414000294620460CF0E4FEDDE7BDE8F88300BF19
:10415000183A002070990120A0A9020008B50FF0BC
:10416000C1FD08BD8172002070470020704700B576
:1041700083B000238DF807300DF107020189006834
:104180000CF0A0FE9DF8070003B05DF804FB08B535
:104190000A46018900680CF0BBFE08BD08B54368FB
:1041A00018680BF047FA08BD08B5436859681868E5
:1041B0000BF09CFA08BDFFFF30B583B04068006883
:1041C000064C00252570072400940BF0F4FC034BEB
:1041D0001A78002AFCD0002003B030BD193A002024
:1041E00010B543681868064B00241C7007230BF0B9
:1041F000CDFC034B1A78002AFCD0002010BD00BF74
:10420000193A002010B543681868064B00241C704A
:1042100007230BF0C6FC034B1A78002AFCD00020C1
:1042200010BD00BF193A00200379012B00D0704760
:10423000014B01221A70FAE7193A0020002070475A
:10424000002070470020704708B5436801211868B6
:104250000BF0ACFE08BD08B54368022118680BF0EE
:10426000A5FE08BD08B5436818680BF00BFE08BD35
:1042700008B54368596818680BF0F4FE08BD08B526
:10428000436818680BF05CFE08BDFFFF08B50249E3
:1042900002480BF0E7FE08BD34AB02004099012054
:1042A00008B50279042A02D0022A07D008BD0346C5
:1042B00004489B68037183689847F7E7024B012223
:1042C0001A70F3E7306501201A3A002010B50B4C44
:1042D0000B4920460DF01CF80122022120460DF06A
:1042E00009FA01200EF046FF064B186000B110BD20
:1042F000054B064A1B2106480EF0B5F9F899012036
:104300001CAA02003C6501205C9A0200989A0200F7
:104310006C9A02000368002063F30700C3F30722CE
:1043200062F30F20C3F3074262F317401B0E63F3DF
:104330001F6070470378032B12D8DFE803F00A0EE2
:104340000602084B01221A707047074B01221A70AF
:104350007047064B01221A707047054B01221A70F4
:10436000704700BF1D3A00201B3A00201C3A002075
:104370001E3A002072B110B4431E01391044441E8D
:1043800013F9010F11F9012F904205D1A342F7D182
:10439000012002E00120704700205DF8044B7047C7
:1043A0002DE9F04F87B000AF0546F9601446BA60BA
:1043B0004FF0FF31624B18680FF01AF8012840F0F7
:1043C000A1800023FB754FEA941814F03F0F18BF2B
:1043D00008F10108424629465A480DF035F90446CD
:1043E000C8B9594B1B787B6073B1584B1B7843B9E4
:1043F0004FF00109554E4846FFF7B0FE3378002BC9
:10440000F9D0524B00221A70B8F1000F50D0DFF8EB
:1044100034B14F4E20E000231A4619464848006840
:104420000EF0D4FD41E000231A46194644480068C6
:104430000EF0CCFD39E000231A46194640480068CA
:104440000EF0C4FD31E0337833BB424B00221A70CA
:104450000134E3B298452BD907F1170340222946CE
:1044600058460DF03DF80028DDD1FB7D012BE2D050
:10447000022BEDD13378002BE5D1DFF8D8A04FF037
:1044800001099AF80030002BDDD14846FFF766FE9F
:104490003378002BF5D0D6E700212D4B19700B4651
:1044A0000A46274800680EF091FD4FF0FF3031E0DA
:1044B000BB682A46F96823480DF082F870BB7B6818
:1044C0006BB1254B1B783BB90126234C3046FFF7D7
:1044D00045FE2378002BF9D01F4B00221A706C4642
:1044E000BE683246F31D03F4FC73ADEB030D2946A1
:1044F000684610F029FF3246F9686846FFF73AFF30
:10450000A0B1A54600231A4619460D4800680EF0D2
:104510005DFD00201C37BD46BDE8F08F00231A4624
:104520001946074800680EF051FDBEE700231A4601
:104530001946034800680EF049FDA546B5E700BFDF
:104540003C650120F89901201CAA02001C3A0020B9
:104550001D3A00201B3A00201E3A002008B5084BE7
:104560000821997300221A735A7383F8221083F872
:10457000202083F82120034903480DF049FB08BDA2
:1045800040650120E4A90200D898012008B5054B38
:1045900000221A7000F10802416803480DF094FAF5
:1045A00008BD00BF1F3A0020D89801208288B2F5CC
:1045B000006F07D00346B2F5005F03D0B2F5806FFD
:1045C00004D070470A4B01221A70704710B5094A8F
:1045D00002F12804014651F8240F496803C4997F69
:1045E00082F822109B69D361136B1046984710BD67
:1045F0001F3A00204065012008B5054905480BF029
:1046000031FD01200EF0B6FD034B186008BD00BF60
:1046100068AB0200A89801208065012070B50446AF
:10462000124D00232B704FF0FF31114B18680EF024
:10463000DFFE204611F02DF8024621460D480BF012
:104640007FFC2B784BB941F28734012630460FF0BE
:1046500049FB2B780BB9013CF8D100231A461946C7
:10466000034800680EF0B2FC70BD00BF7C0A002059
:1046700080650120A898012008B50A490A6801321E
:104680000A600279042A02D0022A07D008BD034634
:1046900005489B68037183689847F7E7034B01223D
:1046A0001A70F3E7203A0020746501207C0A00208C
:1046B00008B502480DF030FD08BD00BF8498012008
:1046C00010B5064C064920460DF05AFD0549204616
:1046D0000DF038FEFFF7ECFF10BD00BF84980120FD
:1046E000ACA90200D0A90200837803B1704710B5CD
:1046F000044C22460C2104480DF013FD636820464B
:10470000984710BD243A002084980120BFF34F8FB2
:104710000549CA6802F4E062044B1343CB60BFF35F
:104720004F8F00BFFDE700BF00ED00E00400FA0579
:1047300008B5034B596818680CF06CFB08BD00BF46
:104740009CAB020038B5154D154C4FF486722946C6
:1047500020460AF0B9FB134B1860134913480AF0BE
:10476000C8FB134B18600222294620460AF0ACFB16
:10477000104B186001210AF0B7FB0F490F480AF0EF
:10478000D9FB0F4A106003681B699847FFF7D0FFF9
:104790000C490D480CF002FA38BD00BFA0A9020078
:1047A000380A0020303A002088AA0200480A002077
:1047B0002C3A0020343A0020F4AA02005C0A0020BF
:1047C000383A002060AA0200E099012008B5024BA7
:1047D00018680CF025FB08BD9CAB020008B501462B
:1047E00001480CF099F908BDE099012010B5034C7F
:1047F000214603480CF06CFA204610BD8465012068
:10480000E099012000B583B00379042B04D0022B7A
:104810000DD003B05DF804FB83688DF807300122EA
:104820000DF10701044B18680AF0A0FBF1E7024BF9
:1048300018680AF09FFBECE7383A002003681888F4
:104840007047FFFF10B5054C2046FFF731FC4FF4D1
:104850007A7104F11000FDF729FB10BD6C2D0020CA
:1048600008B5094B094A41F62C015A5008495160D4
:1048700041F638020749995041F6340240F23A2194
:104880009950FFF71DFF08BD40150020243A002075
:10489000454801003D4801002DE9F843044615460E
:1048A0000160026300F13409642632460021484663
:1048B00010F057FD04F1980832460021404610F0F0
:1048C00050FD04F1FC0732460021384610F049FD46
:1048D0002A460849484610F051FE226B06494046D8
:1048E00010F04CFE226B0549384610F047FEBDE83B
:1048F000F88300BFAC9A0200D09A0200FC9A020032
:1049000008B500680AF030FA08BD10B50446014643
:1049100051F8980B83685B6901229847214651F84A
:10492000FC0B83685B690122984710BD014B002294
:104930001A7070477D0A00207047704770477047B3
:1049400070477047F0B585B0584BD3F8CC3AD86A69
:10495000FCF720FD00286BD006465549FCF75DFDAD
:104960000446002864D05349FCF757FD20B1436941
:10497000012B5FD0002B6CD04F492046FCF74DFD3A
:1049800007464E492046FCF748FD0546FFB13F7DEE
:10499000002342F230120221384605F0E9FFB0B997
:1049A000424B83F8F07693F8892483F88A24022F07
:1049B0005DD803F2BC40A0F2BC47036900219847D0
:1049C0001E2387F81536394B012283F80427FDB1E1
:1049D0006B69DDB2FF2D67D007EE905AF8EEE77AEB
:1049E000374B93ED007A67EE877AFCEEE77ACDEDF0
:1049F000017A9DF8040000234FF40552022105F0CE
:104A0000B7FF28B9294B83F81556012283F80527EB
:104A10002C492046FCF701FD38B100238DF80F30FA
:104A20000DF10F01284809F00DF83046FCF73CFA6B
:104A300005B0F0BD002342F202020121084605F054
:104A400097FF022342F202020121084605F090FF7F
:104A500092E742F202020121184605F089FF022383
:104A600042F202020121002005F082FF84E717488C
:104A7000036901219847164B1A881968002362F3CD
:104A80000703120A62F30F239BB245F2AA52934224
:104A900004D0064B462283F8152694E7C1F307415C
:104AA000024B83F815168EE72846A4E74015002030
:104AB000009A0200289B0200309B02003C9B0200EF
:104AC0005CA30200489B020058970120FC190020BB
:104AD00040010008F8B5254BD3F8CC3AD86AFCF76A
:104AE00059FC07462249FCF798FC05462149FCF78A
:104AF00094FC044620492846FCF78FFC0646C4B1C6
:104B00006369012B05D043B9184B022283F8702347
:104B100003E0164B012283F87023144C012502E0B8
:104B20002846FFF71BFB94F8700305F07FFE002872
:104B3000F6D0BEB17369012B05D043B90B4B0422EB
:104B400083F8702303E0094B032283F87023074C9A
:104B5000012594F8700305F069FE18B92846FFF79F
:104B6000FDFAF6E73846FCF79FF9F8BD401500203E
:104B7000009A0200549B0200589D0200F8B50129DA
:104B800002D0062904D0F8BD4D48FFF7BEFEFAE773
:104B90004C49D1F8D84AA56A01F53761284610F08A
:104BA000A5FD002839D0E06AFCF7F4FB0028EAD024
:104BB0004549FCF732FC0028E5D04449FCF72DFCC0
:104BC0000028E0D04249FCF728FC0028DBD041490E
:104BD000FCF723FC0028D6D0FCF753FD05463E4CDD
:104BE00004F55276002703E004F58C74B442CAD071
:104BF0002946204610F07AFD0028F5D084F80B7184
:104C0000636C616B04F130009847D4F89430D4F8A9
:104C1000841004F180009847E6E73049284610F0F8
:104C200065FD0028AFD0E06AFCF7B4FB0028AAD0ED
:104C30002549FCF7F2FB0028A5D02449FCF7EDFB41
:104C40000028A0D02249FCF7E8FB044600289AD0AF
:104C50001D49FCF7E2FB0546002894D01D4920467B
:104C6000FCF7DBFB00288ED0FCF70BFD0446284642
:104C7000FCF7EEFC51EC100B10F050F910F0FF0FA8
:104C800081D12146144810F031FD18B10D4B01229D
:104C900083F833282146124810F028FD18B1094B3B
:104CA000012283F84B2921460E4810F01FFD0028F1
:104CB0003FF469AF034B012283F8632A63E700BF27
:104CC0001820002040150020009A02005C9B020082
:104CD000689B0200709B0200681C002014210020C9
:104CE000801D0020981E00202DE9F04104460E464C
:104CF00015461F462822002110F033FB04F1280836
:104D00000023A362E3622386304610F0C2FC024611
:104D10003146204610F018FB284610F0BAFC024637
:104D20002946404610F010FB6763BDE8F081FFFFA5
:104D30002DE9F84F07460C4610F08EFC8146444999
:104D400011F024FB68B30546DFF804A14FF000081A
:104D500009E0FCF767FC8346024629462046FCF73B
:104D60006BFB5C4635465146404611F00FFB06464C
:104D700058B129462046FCF750FB0028E9D02946C7
:104D80002046FCF74AFB0446ECE707F128063149C8
:104D9000304610F0ABFC48B17A6B29462046FCF750
:104DA0001BFC484610F0BAFABDE8F88F2A49304695
:104DB00010F09CFC50B17B6B18680FF06DFD41EC5E
:104DC000100B29462046FCF7D3FBEAE7234930467F
:104DD00010F08CFC50B17B6B18680FF06FFD41EC4C
:104DE000100B29462046FCF7C3FBDAE71C49304686
:104DF00010F07CFC50B17B6B18780FF03DFD41EC5E
:104E0000100B29462046FCF7B3FBCAE7154930468C
:104E100010F06CFC50B17B6B18880FF02DFD41EC4D
:104E2000100B29462046FCF7A3FBBAE70E49304693
:104E300010F05CFC0028B4D07B6B18680FF01CFDF0
:104E400041EC100B29462046FCF792FBA9E700BF76
:104E5000749B0200789B0200809B0200849B0200EE
:104E60008C9B0200949B02009C9B02002DE9F04168
:104E700082B0174F174C04F5F466DFF86C80CDF85C
:104E800000803B462246D4F89C17304609F0F4F8DF
:104E90001149CDF80480009723460A46304609F0B0
:104EA00049F904F5F5662246D4F89C173046FFF719
:104EB000F3FC0A493046FFF723FD38221E2108483B
:104EC00008F09EFD0748FBF7BFFF02B0BDE8F08188
:104ED000A49B020070180020A89B02007D4B0100DB
:104EE000A8650120800A0020880A00202DE9F04FE3
:104EF00095B0B24C04F5F4652146284609F0EBF96B
:104F0000AF49284609F0E7F9D4F89C0709F00DFFEE
:104F1000032802D015B0BDE8F08FAA4B1B78062BF2
:104F200000F22581DFE813F01100070017012202CB
:104F30008907C5053A08A149A34A01F5F46009F0BB
:104F400087F9A04B00221A7011E1A04ED6F8CC3A96
:104F5000D3F82C804FF400620021404610F001FA93
:104F6000FCF760FB07460290FCF75CFB0446FCF78D
:104F700059FB0546224696493846FCF75DFA2A4613
:104F800094492046FCF758FA06F54C729249284697
:104F9000FCF722FBFCF746FB064602468F492846F3
:104FA000FCF74AFA0024A1468D4FADF8289022461E
:104FB00039460AA810F0E2FA0AA93046FCF75EFA70
:104FC0000134032CF1D1874A87492846FCF704FBBA
:104FD000864A87492846FCF7FFFAFCF723FB06467A
:104FE000024684492846FCF727FA834C0AA9204642
:104FF00007F0CCFF0246DFF828B259463046FCF7EE
:10500000EBFA0AA9201D07F0C1FF0246DFF814A23F
:1050100051463046FCF7E0FADFF80C9204F110023A
:1050200049463046FCF7D8FA04F11A027349304673
:10503000FCF7D2FA724FA4F1100239463046FCF761
:10504000CBFAFCF7EFFA039002466E493046FCF7C4
:10505000F3F904F64E026C490398FCF7BDFAFCF72D
:10506000E1FA0646024669492846FCF7E5F90AA92D
:1050700004F5BD7007F08AFF024659463046FCF73A
:10508000ABFA0AA904F5BF7007F080FF024651464B
:105090003046FCF7A1FA04F5C57249463046FCF7E4
:1050A0009BFA04F5CA7255493046FCF795FA04F5A7
:1050B000B57239463046FCF78FFAFCF7B3FA06466C
:1050C000024653492846FCF7B7F90AA904F2B22070
:1050D00007F05CFF024659463046FCF77DFA0AA904
:1050E00004F2B62007F052FF024651463046FCF764
:1050F00073FA04F2C22249463046FCF76DFA04F511
:1051000033723E493046FCF767FA04F2A222394670
:105110003046FCF761FA00234FF400624146029DDD
:105120002846FCF73DF92846FBF7BEFE4246A4F1AF
:10513000E60104F2BA6009F0A8F8364B18700EF0D8
:10514000A7FC354B18600EF0A3FC344B18601D4BC8
:1051500002221A700BE00EF09BFC2F4B1B68C01A4A
:1051600048F6B803984261D8164B03221A70294BAF
:1051700093F90030B3F1FF3F7FF4CCAE134C042120
:10518000D4F8CC0A09F0CEFD224B00221A700D4B48
:1051900001221A7004F54C7104F52D6009F040F8F5
:1051A00094F86033002B3FF4B5AE00254FF48C77B4
:1051B000264604F52D6800F003BF00BF70180020DC
:1051C000A89B02007D0A0020AC9B02004015002035
:1051D000009A02005C9B0200709B0200B09B0200E0
:1051E00008990200A49B0200B89B0200C49B020025
:1051F000C89B0200D09B020056190020F09B0200C1
:10520000F89B0200009C0200049C02000C9C02001F
:10521000109C0200483A0020443A00204C3A0020FA
:10522000D49B0200DC9B0200E49B0200804CD4F87B
:10523000CC3ADD6A4FF400620021284610F091F864
:105240002846FCF730FA7B49FCF737FA7B2500F853
:10525000015B7949FCF731FA00F8015B04F54C7207
:105260007649FCF740FA2C2600F8016B94F8782375
:105270007349FCF7B1FA00F8016B7249FCF71DFAAB
:1052800000F8015B41F63003E2586F49FCF7A4FADD
:1052900000F8016B6D49FCF710FA00F8015BD4F8D7
:1052A0004C2C6B49FCF798FAFCF719FA41F2796338
:1052B000E35C002B3DD1FCF712FA2C2600F8016BC1
:1052C0006449FCF7FAF97B2500F8015B584CD4F8E7
:1052D00064266149FCF780FA00F8016B94F8F12626
:1052E0005E49FCF779FAFCF7FAF900F8016B5C49C2
:1052F000FCF7E3F900F8015BB4F842255949FCF7E3
:105300006BFAFCF7ECF9FCF7EAF9FCF7E8F9FCF7C3
:10531000CEF9D4F8CC3ADA6A04F54C7104F52D6074
:1053200008F0B3FF504B18700EF0B2FB4F4B1860F3
:105330001AE700F8016B4E49FCF7BFF97B2300F830
:10534000013B04F5BB53082293ED070A4949FCF7DA
:10535000EBF900F8016B04F5BC54082294ED000A47
:105360004549FCF7E1F9FCF7BAF9A4E70EF090FB28
:10537000424B1B68C01A42F21073984203D8404B4C
:1053800005221A70F3E62A4CD4F8CC3AD3F82CB0A4
:105390004FF40062002158460FF0E3FFFCF742F99A
:1053A0000646384D04F54C73374A38492846FFF70E
:1053B0009BFC31462846FFF7BBFC94F8982A344BF7
:1053C0001B7893420BD1334DA5F5266705F11808DC
:1053D0000024DFF8BCA00AF11A0302930FE02C4B63
:1053E0001A702D4A2D492846FFF77EFC3146284683
:1053F000FFF79EFCE7E7062C09D0454554D055F849
:10540000043F1B88002BF6D10134E4B2F3E70024FB
:10541000AAF81A40DFF86C90029B214A21494846BD
:10542000FFF762FC31464846FFF782FCE5E700BF24
:1054300040150020009A02005C9B0200709B020055
:10544000149C0200D09B0200249C0200009C0200DD
:10545000309C0200109C0200449C0200509C020000
:105460000C9C02005C9C0200483A0020443A002058
:10547000389C02003C9C0200409C02004C3A0020F8
:105480007D0A0020FC650120789B0200649C0200DC
:10549000304B0020A01F0020809B0200789C02005F
:1054A000949B0200909C0200BF4B93F81426BF4BC4
:1054B00093F84430934240F0E880BD49BD4810F075
:1054C000B8F8002840F0EF80BB49BC4810F0B1F8B4
:1054D000002840F00381BA49BA4810F0AAF8002821
:1054E00040F01781B04BD3F82025B04B1B69934295
:1054F00040F02A81AC4BD3F81C26AC4B9B689342FE
:1055000040F03081A94DDFF8A08298F868232B463F
:1055100003F8142FDFF8C092AB4C4A46AB49204643
:10552000FFF7E2FB31462046FFF702FC98F86A23BA
:105530002B4603F8152F4A46A5492046FFF7D4FB12
:1055400031462046FFF7F4FB98F86923AB7D934280
:1055500040F01D81944B93F86B23944BDB7D934279
:1055600040F05281904BD3F84C26904B5B689342AD
:1055700040F058818C4B93F8F0268C4B1B7E934265
:1055800040F05E81884A41F6CC53D25C874B93F859
:105590003330934240F06281834A42F2A403D35CE9
:1055A000824A92F832209A4240F066817E4B93F80C
:1055B000EC267E4B93F83830934240F06E817A4B64
:1055C00093F8ED26794B93F83930934240F073818C
:1055D000754B93F8EE26754B93F83A30934240F0B2
:1055E0007881714B93F8EF26704B93F83B309342E0
:1055F00040F07D816C4BD3F8F4266C4BDB6B93420F
:1056000040F08381684B93F8F826684B93F840305C
:10561000934240F08881644B93F8F926634B93F8EA
:105620004130934240F08D815F4BB3F8FA265F4BD7
:10563000B3F84230934240F092815B4B93F81526C9
:105640005A4B5B7E934240F09881574BD3F83825F4
:10565000564BDB6C934240F09E81534BD3F83C2574
:10566000524B9B6C934240F0A4814F4B93F84025E2
:105670004E4B93F85030934240F0A981554D002491
:10568000DFF88091DFF84081CDE1484B03F8442FEB
:105690004D4C514A51492046FFF726FB31462046E2
:1056A000FFF746FB09E7404BD3F81A343F4840F870
:1056B000263F00230593069307930893099305A9B2
:1056C00007F064FC0346404C454A46492046FFF734
:1056D0000BFB31462046FFF72BFBF5E6324BD3F8A8
:1056E0009435324840F82E3F0023059306930793E4
:1056F0000893099305A907F049FC0346324C384A40
:1057000039492046FFF7F0FA31462046FFF710FBF3
:10571000E1E6254BD3F8CC36244840F82A3F002355
:105720000593069307930893099305A907F02EFCA8
:105730000346254C2A4A2D492046FFF7D5FA314623
:105740002046FFF7F5FACDE6184B43F8102F1E4C14
:10575000274A28492046FFF7C7FA31462046FFF777
:10576000E7FAC7E6114B9A60234981FB0201D21781
:10577000C2EBA10243F80C2F134C1D4A1F492046CF
:10578000FFF7B2FA31462046FFF7D2FABAE62B46C7
:1057900003F8162F4A461A492046FFF7A5FA314664
:1057A0002046FFF7C5FAD5E640150020304B002013
:1057B0005A190020564B0020D41A00205E4B0020BE
:1057C0000C1C00205A4B0020FC650120489D020063
:1057D000609D0200844B00208C9B0200A89C02006C
:1057E000789B0200C49C0200E09C0200FC9C02002A
:1057F000809B0200189D020067666666309D02006D
:105800007C9D0200889F0200BC4B03F8172FBC4C04
:10581000BC4ABD492046FFF767FA31462046FFF7EC
:1058200087FA9FE6B54B43F8042FB54CB74AB84901
:105830002046FFF759FA31462046FFF779FA99E6F4
:10584000AE4B03F8182FAE4CAE4AB2492046FFF7D4
:105850004BFA31462046FFF76BFA93E6A74B03F865
:10586000332FA74CA74AAC492046FFF73DFA3146F3
:105870002046FFF75DFA8FE61A1E18BF01229F4BE4
:1058800003F8322F9E4C9F4AA4492046FFF72CFA7A
:1058900031462046FFF74CFA88E6984B03F8382F3C
:1058A000974C984A9E492046FFF71EFA31462046FB
:1058B000FFF73EFA83E6914B03F8392F904C914A5B
:1058C00098492046FFF710FA31462046FFF730FA94
:1058D0007EE68A4B03F83A2F894C8A4A9249204641
:1058E000FFF702FA31462046FFF722FA79E6834BAA
:1058F00003F83B2F824C834A8C492046FFF7F4F98A
:1059000031462046FFF714FA74E67C4B43F83C2FEF
:105910007B4C874A87492046FFF7E6F93146204607
:10592000FFF706FA6EE6754B03F8402F744C754A84
:1059300081492046FFF7D8F931462046FFF7F8F9AC
:1059400069E66E4B03F8412F6D4C6E4A7B49204649
:10595000FFF7CAF931462046FFF7EAF964E6674BDC
:1059600023F8422F664C764A76492046FFF7BCF969
:1059700031462046FFF7DCF95FE6604B03F8192F4C
:105980005F4C604A70492046FFF7AEF93146204629
:10599000FFF7CEF959E6594B43F84C2F584C644A5F
:1059A0006A492046FFF7A0F931462046FFF7C0F9C3
:1059B00053E6524B43F8482F514C5D4A6449204608
:1059C000FFF792F931462046FFF7B2F94DE64B4B0F
:1059D00003F8502F4A4C4B4A5E492046FFF784F9A2
:1059E00031462046FFF7A4F948E607F5E56A504638
:1059F0000FF04FFE092811D9032305F8013C029A44
:105A000049460AA80FF0BAFD5346534A0AA9404630
:105A1000FFF76AF931464046FFF78AF9013407F586
:105A20008C77032C24D0029415F8012B97F8483773
:105A30009A42F3D0032BD8D0002BEFD107F5E56ABB
:105A400050460FF026FE0A28E8D8002305F8013C4E
:105A5000029A49460AA80FF091FD53463E4A0AA908
:105A60004046FFF741F931464046FFF761F9D5E777
:105A700000234FF4006259463046FBF791FC304654
:105A8000FBF712FA354BD3F8CC3ADC6A344920469E
:105A90000FF02CFE20B10DF0FBFF324B18606EE4CE
:105AA0003149224601F5F46008F0EFFB2F4B1870E6
:105AB000F1E70DF0EDFF2E4B1B68C01AB0F57A7FB1
:105AC0000ED80DF0E5FF2B4B1B68C01A42F2107385
:105AD000984200F2AF80284B04221A70FFF747BBB0
