:020000021000EC
:1000000068B80020CD34010021320100C93401005C
:10001000C9340100C9340100C9340100C9340100E8
:10002000000000000000000000000000C9340100D2
:10003000C934010000000000C9340100C9340100C6
:100040002918010049170100E51801001D190100D8
:100050002918010049170100E51801001D190100C8
:100060002918010049170100E51801001D190100B8
:10007000F92D0100C52E0100612F0100C52E0100E0
:10008000612F0100E51D0100151E01002529010059
:10009000BD2801008D110100C911010021120100CC
:1000A0008D1201000124010000000000000000008A
:1000B0000000000000000000000000000000000040
:1000C0000000000000000000000000000000000030
:1000D0000000000000000000000000000000000020
:1000E0000000000000000000000000000000000010
:1000F0000000000000000000000000000000000000
:1001000000000000000000000000000000000000EF
:1001100000000000000000000000000000000000DF
:1001200000000000000000000000000000000000CF
:1001300000000000000000000000000000000000BF
:1001400000000000000000000000000000000000AF
:10015000000000000000000000000000000000009F
:10016000000000000000000000000000000000008F
:10017000000000000000000000000000000000007F
:10018000000000000000000000000000000000006F
:10019000000000000000000000000000000000005F
:1001A000000000000000000000000000000000004F
:1001B000000000000000000000000000000000003F
:1001C0000348044B834202D0034B03B118477047E6
:1001D000A81E0020A81E002000000000064B0749B2
:1001E000C91A891048BF0131491003D0044B0BB123
:1001F00001481847704700BFA81E0020A81E002015
:100200000000000010B5064C237843B9FFF7D8FF73
:10021000044B13B10448AFF300800123237010BDD9
:10022000101F002000000000E0E0020008B5054BB0
:100230001BB105490548AFF30080BDE80840FFF752
:10024000CDBF00BF00000000141F0020E0E002004E
:1002500010B5022006F0EEF8134B1860012106F0ED
:10026000F1F84FF4867006F0E5F8104C206001219B
:1002700006F0E8F80121206806F004F94FF48270D6
:1002800006F0D8F80A4B1860012106F0DBF80120CF
:1002900006F0D0F8074C2060012106F0D3F80121C8
:1002A000206806F0EFF810BD681F0020641F0020D2
:1002B000601F00205C1F002008B5082301224FF4B6
:1002C000E131094806F05EF9084B186006F09DF927
:1002D000082301224FF4E131054806F053F9054B9C
:1002E000186006F092F908BD686D0200541F0020E6
:1002F000286D0200501F002008B50749074805F087
:10030000F5FF074B186006F03FF80021054B186811
:1003100006F0B8F808BD00BF20A10700A86D0200D4
:10032000581F0020601F002008B5044806F0BCF8E4
:10033000034B186006F0C0F808BD00BF486E02000D
:100340004C1F002008B50021024806F05FF8024B60
:10035000186008BDEC6D0200481F002008B50021A0
:10036000034806F0E5F8034B186006F0F9F808BDFD
:10037000846E0200441F002008B5FFF769FFFFF7F5
:100380009BFFFFF7B9FFFFF7CFFFFFF7DBFFFFF79B
:10039000E5FF08BD08B50379022B07D0042B0AD16D
:1003A000017A054B186806F041F904E0017A024B26
:1003B000186806F059F908BD541F002008B50379E4
:1003C000042B09D0802B0DD0022B04D1017A074BCE
:1003D000186806F049F908BD017A044B186806F060
:1003E00025F9F8E7024B01221A70F4E7501F0020AC
:1003F000401F00208288B2F5806F00D0704710B592
:1004000003464169074C224642F8041B006A596AB8
:1004100003C29B7EA3812146034B186805F0C4FFED
:1004200010BD00BF2C1F0020581F002008B5024B34
:10043000186806F09FF808BD441F00207047FFFFB2
:1004400008B50179024B186805F0E6FF08BD00BF4A
:10045000481F00200378032B12D8DFE803F00A0EB0
:100460000602084B01221A707047074B01221A70CE
:100470007047064B01221A707047054B01221A7013
:10048000704700BF3F1F00203E1F00203D1F00207F
:100490003C1F002070B50446104909F0B5FA00B1C0
:1004A00070BD20460EF02AFE05460D4B18600D4E1D
:1004B0000246214630460EF0ABFD0A2373550A4B27
:1004C00000221A706A1C3146084B186806F07AF848
:1004D000054B1B78002BFBD0E2E700BF4052020027
:1004E0006C1F0020701F0020401F0020501F0020A4
:1004F00008B5FFF741FF0321024803F04DFA00F071
:1005000053FAFEE795040100022800D0704708B5B1
:100510000249034801F0BCFD08BD00BFEC6E0200BB
:1005200038210020BFF34F8F0549CA6802F4E0620A
:10053000044B1343CB60BFF34F8F00BFFDE700BFF9
:1005400000ED00E00400FA057047FFFF10B4054C11
:10055000D4E90023501C43F10001C4E900015DF817
:10056000044B70473021002008B5034A034902209C
:1005700003F01AFA08BD00BF4852020060520200A0
:1005800008B50346024A0349032003F00DFA08BDEB
:10059000685202006052020000B583B00346049A1C
:1005A00001920091034A0449002003F0FDF903B0D1
:1005B0005DF804FB845202006052020008B5034655
:1005C000044A0549022003F0EFF9044A1368013395
:1005D000136008BDBC520200605202008820002057
:1005E00030B583B004461546019300910346154A81
:1005F0001549022003F0D8F9144920460DF0AAF954
:1006000030B91DB9124A13680133136003B030BD0D
:10061000104920460DF09EF930B9002DF6D10C4A54
:10062000536801335360F1E70B4920460DF092F90E
:100630000028EBD1002DE9D1054A9368013393607E
:10064000E4E700BFD85202006052020010530200DB
:1006500070200020145302001853020008B5194DF1
:10066000194A2946022003F09FF9184C2369184AB9
:100670002946022003F098F92368164A29460220E9
:1006800003F092F96368144A2946022003F08CF9BA
:10069000A368124A2946022003F086F94FF05A3324
:1006A000E3600F4D286808F06EF9142322460021FC
:1006B000286808F073F94FF47A7005F09EFEFFF792
:1006C00031FF00BF605202001C5302007020002066
:1006D000445302005C5302006C5302007C5302003E
:1006E00084200020014BD3E9000170473021002015
:1006F00010B50446FFF7F6FF6368C01A236883420B
:1007000001DD181A10BD0020FCE7FFFF30B585B0F1
:10071000224B186800283BD00246214903F057FDC0
:10072000204A1369013313611F4D1C4C1F4B1B687A
:1007300002931F4B1B8801931E4B1B6800932B4693
:1007400000221146206803F04FFD1B4B1B680293EB
:100750001A4B1B6801931A4B1B6800932B4601220E
:100760000021206803F040FD164B1B680293164BD6
:100770001B680193154B1B680093154B0222002147
:10078000206803F031FD206803F088FD05B030BD1E
:10079000104A114903F008F9F8E700BF18210020BA
:1007A0000805002070200020AC5302003C0500200A
:1007B00040050020440500203005002034050020BD
:1007C000380500202C0500202405002028050020E5
:1007D000B45302008C530200605202000023934283
:1007E0000ED200B510F803E011F803C0E64505D1BC
:1007F00001339342F6D301205DF804FB0020FBE7B0
:100800000120704730B5A5B00446594D594A2946D4
:10081000022003F0C9F800940323574A2946022016
:1008200003F0C2F86368554A2946022003F0BCF879
:10083000A368534A2946022003F0B6F8A389514A17
:100840002946022003F0B0F823694F4A29460220C6
:1008500003F0AAF8237D4D4A2946022003F0A4F8AC
:100860004B4D0DF1500C05F1C00EBEE80F00ACE889
:100870000F00BEE80F00ACE80F00BEE80F00ACE8C8
:100880000F009EE80F008CE80F00022302938DF802
:10089000503000238DF851308DF852308DF85330A0
:1008A000A36802938DF85430C3F307228DF85520C6
:1008B000C3F307428DF85620C3F307638DF8573012
:1008C000636802938DF85830C3F307228DF85920DE
:1008D000C3F307428DF85A20C3F307638DF85B30EA
:1008E000A389ADF808308DF86030C3F307238DF885
:1008F0006130012205F1C001264801F0C3FFF8B9BB
:100900004023254A14A9234801F0ABFF00BB0DF199
:10091000100C214C0FCCACE80F000FCCACE80F0052
:100920000FCCACE80F0094E80F008CE80F004022D9
:1009300014A904A8FFF752FF90B1012025B030BDE3
:10094000164A0B49002003F02FF84FF0FF30F5E76F
:10095000134A0749002003F027F84FF0FF30EDE776
:10096000104A034903F020F84FF0FF30E6E700BFDC
:1009700060520200BC530200E4530200F85302002C
:100980000C5402001C54020028540200405402007F
:100990000004000820220020C00400085054020077
:1009A000745402009854020070B588B0002269495E
:1009B000694B186805F0D0FD684A6949022002F0C9
:1009C000F3FF6849684801F061FE0122022167488F
:1009D00001F06FFF664C674B1A68674B1968204639
:1009E00006F0E5FF204607F037FF07F03BFF634CBA
:1009F000206007F03DFF4FF4BC224FF4E221206855
:100A000007F0AEFF05464FF416324FF480312068F0
:100A100007F0A6FF06464FF480524FF4A02120684D
:100A200007F09EFF564B1860002103910491059139
:100A300006910791142303AA07F0C6FF069BB3F1A2
:100A40005A3F19D04F4C504B1A68504B19682046EA
:100A500007F06AFB204608F001F9044603F0D6F9D6
:100A60004B4B186090B94B4A3D4902F09DFF4FF443
:100A70007A7005F0C2FCE5E7474C0DF10C0CBCE8C0
:100A80000F000FC4DCF800302360DBE73B4B1B6832
:100A90005BB3424B1B6800221146104608F0DCF99C
:100AA00002463F4B186040B30021082007F0B2FD1A
:100AB0003C4B186038B304F091F801463A4B18608B
:100AC00030B32A46204603F035FB384B186028B374
:100AD0000023374A314603F071FB01230193FFF7EE
:100AE00001FE0290FFF712FE29E0324A1C49002065
:100AF00002F05AFF012008B070BD2F4A18490020AB
:100B000002F052FFF6E72D4A154902F04DFFF1E7DA
:100B10002B4A1349002002F047FFEBE7294A10490E
:100B200002F042FFE6E701211E4B186807F02BFE9A
:100B3000FFF7D8FD02901D4B186803F0E3FB184B3C
:100B4000186808F0D2F901A8FFF7D2FD0028EAD012
:100B5000F1E700BF4D050100441F0020BC54020016
:100B600060520200346E020020220020286E020033
:100B70008C200020641F00204C1F00202421002016
:100B800084200020BC200020541F0020681F00206B
:100B900020210020D854020070200020581F00207F
:100BA0002C210020282100201C21002018210020B9
:100BB00005080100F8540200185502003C550200D7
:100BC0005C5502008055020008B5FFF791FC00203B
:100BD00008BD4162C262836200207047F8B50646D4
:100BE0000569037803F5800303F58D531B021C1D73
:100BF000002D26D06B681B684FF000621A606B688E
:100C00001B689C60AB681B68696828689847074642
:100C1000A8B973699BB15A6812684FF4002111603A
:100C20005A68126854609A68126859681868904740
:100C3000074620B11DB1AB681B6A28689847384643
:100C4000F8BD0027E5E7FFFF2DE9F04F85B04168CB
:100C50004D7A65BB082465BB4FF0100E8B7ACA7ABB
:100C600043EA42034A7B43EA02330A6A16782EBB00
:100C7000097811B905BB80210B4344F0B0045678C4
:100C800024EAC614710141EA46012143039192F816
:100C900002C0D4780CFA04FC23F0700343EA041376
:100CA000147974B1022C69D0202101910BE0002449
:100CB000D1E74FF0000ED1E70021DDE744F0B104A9
:100CC000DDE700210191547924B14EF00106012C99
:100CD00057D0B64692F80680147A04F0030443EA2B
:100CE0008403002D50D143F46043567A917A0291E7
:100CF000D47AEFF3108A012585F31088244FD7F8B2
:100D00000490416891F800B0CBF1130B05FA0BF594
:100D100029EA05057D607D688AF310888568EF788B
:100D20000027EF7085689DF80C10297081685FFAC4
:100D30008CFC81F801C081689DF804508D70816839
:100D4000D2798A728268F6B2167381689DF808209B
:100D50004A738268E4B2947382685FFA8EFE82F806
:100D60000FE082689BB21382836883F820808368D7
:100D7000102283F8212005B0BDE8F08F30210191C9
:100D8000A1E74EF0030EA5E7002402942646B0E743
:100D90000040084010B48468E27AD2B2238A9BB241
:100DA00090F820100F2916D922F0400242F02002BC
:100DB0008C460F2903D901318908A1F1050C23F4D0
:100DC000706343EA0C23D2B2E27282689BB2138250
:100DD0005DF8044B7047072902D842F04002E7E76C
:100DE00022F06002E4E78268137843F06003137036
:100DF0007047FFFF70B50E461D469DF810308168A4
:100E0000097811F0400F40F0BC800446C6600261D2
:100E1000002141618161C56180F8203041684869E5
:100E200000282BD0A5610F2B67D94B695B681B6825
:100E3000D978022060F30511D97063685B695B683B
:100E40001B689978022060F38301997063685B697D
:100E50005B681B68A9B2D98163685B695B681B68C2
:100E60009A60002A5CD063685B699A685268596826
:100E7000096818689047034600283CD163681A69DE
:100E8000002A31D0656194F820200F2A57D91B69B8
:100E90005B681B68DA78022161F30512DA70636817
:100EA0001B695B681B68DA78022161F38302DA70E0
:100EB00063681B695B681B68ADB2DD8163681B6991
:100EC0005B681B685E60002E4CD0A268137823F02C
:100ED0002003137063681B699A685268596809682F
:100EE00018689047034630B92046FFF753FF204665
:100EF000FFF779FF0023184670BD072B07D84B6911
:100F00005B681968CB7823F03003CB7095E74B69A9
:100F10005B681B68D978012060F30511D9708CE7F4
:100F200063685B695B681A68937823F00C039370BD
:100F300063685B695B681B68134A9A6093E7072ADA
:100F400007D81B695B681A68D37823F03003D37025
:100F5000A5E71B695B681B68DA78012161F305125C
:100F6000DA709CE763681B695B681A68D37823F0C2
:100F70000C03D37063681B695B681B68034A5A6083
:100F8000A3E70823B7E700BFB8220020B42200205F
:100F900000B583B0009313460A460021FFF72AFFED
:100FA00003B05DF804FB00B583B000931346002244
:100FB000FFF720FF03B05DF804FB10B582B09DF889
:100FC00010400094FFF716FF02B010BD8369C2699C
:100FD0009A420BD0026952B190F820100F2909D91A
:100FE0008168496842F82310013383617047826841
:100FF0005268F9E7072903D881680979D154F3E7E2
:101000008168898822F81310EEE74369C2699A4221
:101010000BD0C26852B190F820100F290AD981680C
:1010200052F823204A6001334361704782680021EF
:101030005160F8E7072903D88168D25C0A71F2E7AA
:10104000816832F813208A80EDE710B584B0044639
:101050008C46836AC3B193E807000DF1100E0EE9C8
:101060000700626812781A6083F804C0E26A9A6026
:10107000626A18469047A36A23B104AA12E90700DE
:1010800083E8070004B010BD01ABEAE710B50446E1
:10109000436893F90200002813DA636893F90100AA
:1010A000002813DA63682246197A93F9040002F0E3
:1010B00027F963682246D97993F9030002F0EEF824
:1010C00010BD2246997902F01BF9E6E722465979CC
:1010D00002F016F9E6E7FFFF70B504460D46084634
:1010E000FFF77CFD064608B1304670BD6560AB6910
:1010F0006362EB69E3620023A3622B7803F580034C
:1011000003F58D531B02A3602046FFF79DFD20468B
:10111000FFF7BCFF014B2360E6E700BF4950535285
:1011200010B504460023036043685B691BB19A68ED
:10113000126A1868904763681B691BB19A68126A43
:1011400018689047636893F90200002818DA63680A
:1011500093F90100002816DA636893F9030002F09E
:10116000BFF8636893F9040002F0BAF8A268137834
:1011700023F040031370A368DA780020D87010BD04
:1011800002F0AEF8E3E702F0ABF8E5E710B5EFF3F5
:101190000384C4F30804103C64B2204602F05EF8F5
:1011A000084B53F824402046FFF710FFA269E3697B
:1011B0009A4200D010BD636893F9030002F07CF8F6
:1011C000F8E700BFBC22002010B5EFF30384C4F39E
:1011D0000804103C64B2204602F040F80F4B53F86C
:1011E00024406268136A13B15B78012B03D0204658
:1011F000FFF70BFF10BD6169E369013B994207D01E
:101200001369002BF3D092F9030002F055F8EEE7D2
:1012100092F9030002F05CF8E9E700BFBC2200206D
:1012200038B5EFF30384C4F30804103C64B22046DD
:1012300002F014F8144B53F82450AB68DB7813F029
:10124000020F03D06B685B7A012B15D1204602F0A8
:1012500047F86B6893F9020000280EDAAA68137841
:1012600023F0400313706B6893F90200002807DA3B
:1012700001212846FFF7E9FE38BD02F031F8EDE71D
:1012800002F026F8F4E700BFBC22002070B5EFF3AF
:101290000384C4F30804103C64B21E4B53F824507A
:1012A0006B6893F9020000281EDAAA68137823F00D
:1012B000400313706B6893F90200002817DAAA68DC
:1012C000D378DEB20021D17013F0080F12D116F0DE
:1012D000010F14D116F0040F02D016F0100F13D125
:1012E000204601F0BBFF70BD01F0FAFFDDE701F021
:1012F000EFFFE4E705212846FFF7A7FEE7E7042113
:101300002846FFF7A2FEE5E708212846FFF79DFEE5
:10131000E6E700BFBC2200204161826100207047E7
:1013200010B4046AA37803F07B03A3700378A3B11D
:101330000261C160026A937843F08003937003787E
:101340003BB9837803F00303022B0ED0036A0A78BB
:10135000DA7000205DF8044B7047837803F00303D4
:10136000D21A02610B44C360E4E70B88026A43F4BB
:101370007E43D381EDE74162C26283620020704701
:101380004FF0FF334B600B6000207047034611F0B5
:10139000020F25D0006A827802F07B0282701A78F0
:1013A0004AB1186A828A42F0040282821A6A928AD8
:1013B00012F0040FFAD10020186111F0010F12D0C1
:1013C00000229A611A786AB1196A8A8A42F0020286
:1013D0008A821A6A928A12F0020FFAD100207047AC
:1013E0000620EAE700207047034682690A60002071
:1013F000986170470378ABB1C269D269013B117A39
:101400001940090201F4706141F001011B039AB215
:101410000A43036A42F006019982036A9B8A9BB2DF
:101420009342FAD170478B7843704A78037862F31D
:1014300001030370CB788374C37903F0A3030A78A4
:1014400002F05C021343C371704738B504460D4681
:10145000FFF7D0FFAA78EB78DB0043EA02136A7843
:10146000032A02D06AB3F22202E043F04003F222E0
:10147000216ADBB20B70216AD3B28B71E9690B7BF5
:10148000082B20D05B00226A03F0020353734B78D1
:10149000DB01DBB28A78520102F020021343226A98
:1014A000002010720A78023AD2B2012A12D8226AB7
:1014B000FF2050700A78022A09D0226ADBB2D37169
:1014C00038BDE222D4E7236A0A225A73DFE743F0E9
:1014D0001003F2E7226ADBB2D3714968206AFFF792
:1014E000A2FFEDE770B50446C3691A780123934063
:1014F00013F0060F03D00B7813F0080F0FD1226AF8
:10150000937803F07B0603F00B0393700025E560EE
:10151000206AFFF788FF236A9E70284670BD03206B
:10152000FCE770B584B005460E469446846ACCB19B
:1015300094E80F000DF1100E0EE90F00EB691B7817
:101540002360A66084F804C0EB6AE3606B6A2046FF
:101550009847AC6A24B104AB13E90F0084E80F008C
:1015600004B070BD6C46E9E738B504460025456017
:10157000036A9D70C36993F9050001F0B1FEE36948
:1015800093F90B0001F0ACFEE36993F9070001F059
:10159000A7FEE36993F9090001F0A2FEEFF31080C2
:1015A000012383F31088074B5A68E1690C784FF0E8
:1015B0000041E1400A435A605B6880F31088284686
:1015C00038BD00BF0040084070B506460D461446C1
:1015D000104601F085FE204601F040FE32462946C5
:1015E000204601F05BFE70BD38B505460C4691F90A
:1015F0000B20897AFFF7E8FF94F905202179284626
:10160000FFF7E2FF94F90720A1792846FFF7DCFFF6
:1016100094F90920217A2846FFF7D6FF38BDFFFF4D
:10162000F8B504460D460B7801229A4012F0060FD9
:1016300005D0CA695268127812F0080F7DD103F5FF
:10164000800303F58C531B022362002323702A7846
:1016500040F21923D34013F0010F01D0102323705F
:10166000E5616B696362AB69E3620023A362A378FF
:10167000012262F30103A3706B7823B9A3780222DD
:1016800062F30103A37029462046FFF7ADFFEFF395
:101690001080012383F31088294B5A682E784FF06D
:1016A0000041F14022EA01025A605B6880F3108831
:1016B000226A00239370226A1371226A5372226A8B
:1016C0009372226AD372226A53832A7840F21923D2
:1016D000D34013F0010F02D0236A4022DA74236A48
:1016E00006221A7729462046FFF7AFFE0026E6605D
:1016F00026616661A661EF693D78E36993F90500AB
:1017000001F0E6FDE36993F90B0001F0E1FDE36907
:1017100093F9070001F0DCFDE36993F9090001F09A
:10172000D7FD05F0030545F07005236A9D707B89A0
:101730002381044B63603046F8BD0320FCE700BF03
:10174000004008405549435310B5EFF30384C4F3F8
:101750000804103C64B2204601F080FD314B53F880
:101760002400C3691B698BB1036973B9026A93785A
:1017700003F07F0343F0040393700023C360436AC4
:101780001BB180220021FFF7CCFE10BD0369002BA6
:10179000EAD003785BB3036AD98AC1F304210FE06E
:1017A000C3681B88026A43F47E43D381026983784D
:1017B00003F00303D21A0261C2681A44C260013105
:1017C00003788B420BD903694BB1837803F0030391
:1017D000022BE5D0C268036A1278DA73E6E7026A80
:1017E000137903F07D0343F002031371BCE78378A0
:1017F00003F00303022B0DD0C268036A1278DA707B
:101800000269837803F00303D21A0261C2681A44A2
:10181000C260A9E7C3681B88026A43F47E43D38190
:10182000EEE700BFBC22002010B582B0EFF30384C6
:10183000C4F30804103C64B2204601F00FFD284BAD
:1018400053F824402DE0A37803F00303022B03D0C8
:10185000236A5B79019330E0236A1B8AC3F3080390
:1018600001932AE0A27802F0030201A960690DF059
:10187000CFFB6369A27802F0030213446361A3699A
:101880009B1AA36133B9636A23B101220021204668
:10189000FFF747FE2378E3B1236ADB8A13F01F0FBB
:1018A00017D02378002BCED0236ADA8A12F01F0FCC
:1018B0000FD01B8AC3F308030193A369002BD1D176
:1018C000636A002BE6D0042201992046FFF729FE27
:1018D000E0E7237813B1236ABE221A7102B010BD6B
:1018E000BC22002010B5EFF30384C4F30804103CBD
:1018F00064B2094B53F82400026A937803F07B0327
:101900009370436A1BB102220021FFF70AFE2046B2
:1019100001F0A4FC10BD00BFBC22002010B5EFF305
:101920000384C4F30804103C64B2174B53F824003A
:10193000037843B9837803F00303022B03D0036ACF
:101940005979C9B203E0036A198AC1F30801036A2D
:1019500093F804C00CF038021CF0100F06D093F876
:101960001CC01CF0010F01D142F0400293F804C0EA
:101970000CF0C70C83F804C0436A0BB1FFF7D1FD2C
:10198000204601F06BFC10BDBC22002041600272B9
:10199000002070474163C263836300207047FFFFEC
:1019A000C368044A934214BF002301230B70002034
:1019B000704700BF433249530269002393700269A4
:1019C000F021D172036280F8303080F82E3090F828
:1019D0002A3080F82C30C3694362704708B5FFF79E
:1019E000EBFF002008BDFFFF38B504460369002562
:1019F0009D70FFF7E1FFE560EFF31080012383F3B3
:101A00001088074B5A6821680C784FF00041E1407C
:101A10000A435A605B6880F31088284638BD00BFCF
:101A200000400840002380F82C304362C269026203
:101A300090F82A2080F82B2080F82F3080F8313061
:101A400080F8333090F82D3013B1012380F8313015
:101A50000369B4229A7090F830301BB9036951229F
:101A6000DA727047002380F8303090F82A30012B6A
:101A70000ED090F829200369DA7090F82B30013BE2
:101A800080F82B3090F82C30013380F82C307047E0
:101A900090F82820EFE708B58161C261027A012A37
:101AA00008D0003B18BF012380F82D30FFF7BAFFA4
:101AB000002008BD002280F8292042685200D2B2DE
:101AC0001A4380F82820012280F82A20E9E708B587
:101AD00080F82E300123FFF7DEFF08BD08B580F83F
:101AE0002E300023FFF7D7FF08BD90F82D3053B9F3
:101AF0008269436AD25C016A01390162013343623F
:101B00000369DA70704790F831304BB1002380F8E8
:101B10003130036A012B0ED9036900229A720AE060
:101B200001698269436A4979D154036A013B0362BE
:101B3000436A01334362036A012B01D0FF22DFE7CE
:101B4000036920229A72FF22DAE790F82C30C3B999
:101B500090F82A30012B11D090F829300269002129
:101B6000D1720269D37090F82B30013B80F82B3092
:101B700090F82C30013380F82C30704790F82830E2
:101B8000ECE790F82D2042B1022B01D00023E5E7CD
:101B900090F8293043F00103E0E70023DEE790F8F6
:101BA0002E3033B103695222DA72012380F83030CB
:101BB000704703695422DA72704708B590F82D30E7
:101BC00013B190F8313043B100230362012380F850
:101BD0002F3003695422DA7208BD01698269436AB1
:101BE0004979D154036A013B0362436A013343627A
:101BF000FFF7D5FFF0E708B503691A7B12F0010F74
:101C000023D190F82A1090F82C20914215D090F80A
:101C10002D1009B1022A0DD090F82820DA7090F822
:101C20002B30013B80F82B3090F82C30013380F8BA
:101C30002C3008BD5222DA72FBE7036A13B1FFF7BA
:101C400054FFF6E7FFF7ABFFF3E7FFF7B6FFF0E768
:101C500038B504460D4603685A6A03690021997035
:101C60000369F020D8729378206903F003030370AE
:101C70002369FA20987123695078587013789B0073
:101C8000DBB2206943F02003C371236950791872D5
:101C90002369D07898741379DB00DBB2226943F0B2
:101CA00001035372236923229A72236959732246CE
:101CB000697B95F90F0001F023FB2246697B95F9BA
:101CC000100001F01DFB38BD70B504460A7802F51E
:101CD000800202F58C521202026101608A68426041
:101CE0000A7B0272CA6942630A6AC263002585637D
:101CF000EFF3108C012282F31088104A566891F895
:101D000000E04FF0004323FA0EF326EA030353608A
:101D100053688CF31088FFF79BFFA561E56125628E
:101D2000656284F82D5084F82E5084F82F5084F882
:101D30003050034BE360284670BD00BF00400840B0
:101D40004332495310B582B004460A46836BA3B1AF
:101D500093E803000DF1080C0CE90300E16B196036
:101D60001A71626B18469047A36B23B102AA12E95D
:101D7000030083E8030002B010BD6B46EEE708B530
:101D80000269D37A23F00803D37290F82F30A3B9F5
:101D900090F82A2090F82C309A4215D1036A93B912
:101DA00090F82D309BB1022190F830308BB103694F
:101DB0000022DA72FFF7C6FF05E00369F022DA724B
:101DC0000121FFF7BFFF08BDFFF7BFFEFBE70321BF
:101DD000EAE70369F022DA720269937803F0CF032D
:101DE0009370E7E708B5EFF30380C0F308001038FD
:101DF00040B201F033FAEFF30383C3F30803103B5F
:101E00005BB2034A52F82300FFF7F5FE08BD00BF9E
:101E1000BC22002008B5EFF30383C3F30803103B93
:101E20005BB2074A52F82300FFF7A9FFEFF30380E4
:101E3000C0F30800103840B201F010FA08BD00BF2E
:101E4000BC22002003460020186070470B0A1B01CB
:101E500053FA81F1034B53F82130C3F3400313705D
:101E60000020704700080840090A490101F180413B
:101E700001F500214B6813800020704702EA03003F
:101E8000D24312B21340090A490101F1804101F520
:101E9000002140EA0340886000207047CBB2012057
:101EA000984080B262B9024600200B0A5B0103F140
:101EB000804303F5002340EA024098600020704709
:101EC0000022F2E7090A490101F1804101F50021F0
:101ED000086802EA030C40EA0C0062EA03020240CE
:101EE0000A6000207047090A490101F1804101F5AB
:101EF00000214B68C3F30F431380002070470B0A87
:101F00005B0103F1804303F500235868C9B2012344
:101F10008B4099B203EA10438B4203D00023137025
:101F20000020704701231370FAE702EA0300D2434E
:101F300012B21340090A490101F1804101F5002163
:101F400040EA0340C86000207047000A400100F1E9
:101F5000804000F50020012303FA01F1C368012A43
:101F600005D023EA010343EA0141C160704723EA37
:101F700001431943F9E708B50846C9B200F47F40A8
:101F8000FFF7E3FF002008BD10B411F4803F0ED02E
:101F9000030A0C4A1B0153FA80F352F8234024F43D
:101FA000803442F8234021F4803442F82340030A6D
:101FB0001B0153FA80F0034B43F820105DF8044BEB
:101FC000704700BF00080840F8B50646002541E00C
:101FD000234B93F8BB240123A340DFB213422BD041
:101FE0000134022C35D8736803EBC50291881D4A71
:101FF00032F814209142F3D153F8353003F0F853FE
:10200000B3F1807FE4D0B3F1106FE1D0144B93F8BB
:10201000BB240123A340DFB21342E1D0012001F031
:1020200005FA0F4A92F8BB3423EA070382F8BB345F
:10203000012001F0C7F9D3E7012001F0F7F9084AC0
:1020400092F8BB343B4382F8BB34012001F0BAF96B
:10205000C6E701353388AB4201D90024C1E7F8BD9A
:1020600000E00140E470020038B50546FFF7ACFF20
:10207000002409E06B6803EBC40253F83410908825
:10208000FFF782FF0134A4B22B88A342F2D838BDF7
:1020900008B5034B03600846FFF7E6FF002008BDC4
:1020A00054524F5008B50846FFF7DEFF002008BD28
:1020B00030B587B00C461546ADF8081001920123E3
:1020C000ADF80C3001AB049303A8FFF77DFF294660
:1020D0002046FFF759FF002007B030BD8368C26873
:1020E0009A60002070478368C2685A600020704779
:1020F0008368C268DA600020704730B44368DB69E7
:102100005A6842F00042996841F00044D96841F0B1
:10211000004185686C618468A16181680A61826898
:102120001969516282685B699362002030BC704714
:102130000139836899668368DA6A12F0010F03D166
:1021400059668368C268DA600020704706207047CD
:1021500083680139123203EB820359600020704713
:102160008368DB6AC3F300030B7183689B6C0B60AD
:10217000002070474161C261836100207047FFFF0A
:10218000416001230374C36813F00F0F01D00023D3
:1021900003740A7C054B13441B0283604B69436143
:1021A0008B69C36100238361704700BF90164000B4
:1021B00082684FF0004313618268536182689361C3
:1021C00082680023536282689362704708B5FFF704
:1021D000EFFF002008BDFFFF8368D86AC0F3C3503B
:1021E000064B1A6A02F00701C2F30262044B1B6835
:1021F0009340CB4023FA00F0704700BF00E001405D
:10220000081F002010B50C4683685B6E01338B609D
:10221000FFF7E2FF606001232370002010BD4368D8
:10222000DB6993F8302012F0010F03D09A6A8168BD
:10223000013ACA6493F8302012F0020F03D0DB6A2F
:102240008268013B1365704730B585B004468C4603
:1022500015468369B3B193E807000DF1100E0EE93E
:10226000070083F804C09D60E2691A60626918463D
:102270009047A36923B104AA12E9070083E8070085
:1022800005B030BD01ABECE7002800DA704708B5B7
:1022900001F036F808BDFFFFF8B504460E46CD69DB
:1022A000EFF31080012383F31088374B1A690F7CFA
:1022B0004FF00041F94022EA01021A611B6980F3E4
:1022C0001088A3684FF425421A60A2680023D362E5
:1022D000A268D363A2689364337ADB057768013F11
:1022E0003278032A49D0A268D3622046FFF760FF04
:1022F000A368AA69DA61A368EA691A62A3689F669B
:10230000A3685F66AF6B2046FFF789FFA2680023D2
:102310009363A268C2F88830AB6B3BB995F8203064
:1023200047EA433395F8217043EA477795F8303010
:1023300033BB4FF4AA02A3681A64A3685F63A3685F
:1023400003221A63A36801221A63A368E268DA60B1
:102350002246717C96F91200FFF796FF224695F807
:10236000221095F92400FFF78FFF224695F82310DD
:1023700095F92500FFF788FFF8BD43F48033B2E7F5
:102380004FF4A002D7E700BF0040084038B504462C
:102390000D460A7C01239340C360FFF7F1FE2946F6
:1023A0002046FFF779FF024B2360002038BD00BFB5
:1023B0005450470010B5041E00DA10BD204600F04E
:1023C0008FFF024B002243F82420F6E7BC220020B6
:1023D00038B504464368DD6993F91200FFF7EAFF58
:1023E00095F92400FFF7E6FF95F92500FFF7E2FFD6
:1023F00000202060A368E2689A60A368586338BD33
:1024000038B5EFF30384C4F30804103C64B22046EB
:1024100000F024FF0E4B53F824506B681B78012BFF
:1024200007D06B6923B1002211462846FFF70CFF45
:1024300038BDAB68EA689A60AA6800239364AA680A
:10244000D364AA681365204600F016FFE9E700BFD1
:10245000BC220020054BB3F8843003F0810313B98C
:102460000B700020704701230B70FAE700E07F40FB
:1024700006207047062070470620704706207047E8
:102480000B46064A92E8030083E80300044A083337
:1024900092E8030083E8030000207047A87102005F
:1024A0009071020081630264C36300207047FFFFE4
:1024B000002380F834303549012381F816340A6A44
:1024C000C2F3027CC2F30262314B1B6803FA02F2D0
:1024D00022FA0CF2096AC1F302618B40CB402D490C
:1024E0008A424FD902F5742202F23F222A49A1FB07
:1024F00002C2920C03F5742303F23F23A1FB0313E2
:102500009B0C02F5F0522549A1F8E42043F6B8519E
:1025100003FB01F1224AA2FB01C18908816040F658
:10252000D86103FB01F1A2FB01C18908C160590018
:10253000A2FB01C189080161542103FB01F1A2FB47
:1025400001C189084161174903FB01F1A2FB01C1E7
:102550008908816144F2506103FB01F1A2FB01C1D2
:1025600089084162104903FB01F1A2FB01C18908FE
:1025700001620E4901FB03F3A2FB03239B08C36125
:10258000002070474FF4FB70704700BF00E001402F
:10259000081F0020FF083D0083DE1B4300E07F4052
:1025A000ABAAAAAA38AF040080DE0F00A0F7030090
:1025B00008B5FFF77DFF08BD10B582B004460A4696
:1025C000C36BA3B193E803000DF1080C0CE9030001
:1025D0001A70226C5A60A26B18469047E36B23B1C5
:1025E00002AA12E9030083E8030002B010BD6B46A3
:1025F000EEE7FFFF10B5044600230360436893F93C
:10260000110000280BDA094B00221A76636893F94F
:102610001300904206DA0020044B187510BD00F03C
:102620005FFEF0E700F05CFEF5E700BF00E07F40F2
:1026300010B582B04FF49643019343681A782AB9D3
:10264000114B4AF68022A3F884200DE0044693F94A
:10265000110000F03DFE636893F9130000F038FEAE
:10266000EEE7019B013B0193074BB3F884309BB22B
:10267000802B05D0019B002BF3D14FF4FA7000E0C2
:10268000002002B010BD00BF00E07F4070B50446DE
:1026900041600B7853B9124B00221A761A75204606
:1026A000FFF706FF08B90F4B236070BD0D464B685E
:1026B0008363CB6803640023C363094E012333762D
:1026C0000246097C95F9110000F01AFE9823337533
:1026D0002246A97C95F9130000F012FEDFE700BF47
:1026E00000E07F404E45504F08B512F0A1FD08BDF7
:1026F00070B50546FFF79CFFE0B96B681B78D3B156
:10270000012385F83430064632460421284612F06B
:1027100087FD6B681B786BB918224FF4805112F05B
:102720006FFD04462B6B0BB10028EDD012F06CFD51
:1027300004B1204670BDEE68E6E7FFFF70B50546C0
:1027400081620263FFF774FF18BB06466B681B7853
:10275000EBB1022385F834300F4B0122A3F8E020BF
:1027600032464021284612F057FD6B681B786BB942
:1027700019224FF4005112F043FD04462B6B0BB1AC
:102780000028EDD012F040FD04B1204670BD6E6A05
:10279000E2E74FF4FA70F9E700E07F40F8B507464A
:1027A0000C4616461D46FFF743FFD0B91D4B0022CD
:1027B00083F8D0201C633444013C5C63A3F5F03300
:1027C00071221A70D0221A707B681B7823B979693C
:1027D000B60806FB011606E0032387F8343002230F
:1027E0002B70F8BD013E0F49D1F8801011F4004F55
:1027F00002D1002EF6D114204FF4FC72002112F009
:10280000FFFC0446074B93F8D430DBB2012B07D012
:1028100000232B7012F0F8FC002CE2D02046E0E7F9
:102820002B70F7E700E07F40B1F1006F15D24FF059
:10283000000C80F834C083F800C0604690420AD291
:1028400011F800C0BCF1FF0F01D10130F6E7012201
:102850001A70002070470020704708B5FFF79EFFF0
:1028600008BD08B55B0803638162C262002380F87B
:102870003430B2F1006F02D212F0DEFC08BDFFF777
:1028800037FFFBE708B5002380F83430B1F1006F63
:102890000AD2B1F5803F04D26FF30C0112F0B8FCFC
:1028A00008BD6FF30E01F9E721F03F01FFF746FF86
:1028B000F6E708B512F0B8FC08BDFFFF70B5EFF3FE
:1028C0000384C4F30804103C64B2144B53F824503E
:1028D000134A137CD2F8802013F0080F0BD1D9B221
:1028E00011F0800F13D111F0100F12D012F4405FCD
:1028F00011D0072600E00426284612F099FC204655
:1029000000F0ACFC31462846FFF756FE70BD0526A8
:10291000F2E70726F0E70626EEE700BFBC2200201C
:1029200000E07F4038B5EFF30380C0F308001038B3
:1029300040B21B4B53F8204000F090FC94F8345008
:10294000012D12D0022D1ED0164B93F8D430DBB2DD
:10295000012B22D0022512F057FC002384F83430DA
:1029600029462046FFF728FE38BD236B002BF2D006
:1029700000220421204612F053FC0028F4D0204607
:1029800012F056FCF0E7236B0BB90025E3E70022B9
:102990004021204612F040FCE6E70325DBE700BFBC
:1029A000BC22002000E07F40062070474268B2F859
:1029B00042389BB20B6092F84E384B7392F84F3806
:1029C0000B7392F8503803F07F030B6183F07F03A1
:1029D00082F8503800207047C161426203620020D3
:1029E0007047FFFF037B43B1022B04D00023106824
:1029F00020F0604006E0137953B91368084800EAF4
:102A000083400023527943EA827303430B6070478B
:102A1000012B01D00023EAE74FF00043E7E700BFB6
:102A20000000FC1FF8B503461746026810695E688F
:102A3000731893F82038DB091FD10D4601F12003EC
:102A400006EB03143A462146FFF7CCFFBA79A38878
:102A500062F30303A380B879A31D07F10C0204E01D
:102A600012F8010B03F8010B0846411E0028F7D1AC
:102A70002E44802386F82038F8BD4EF66320FBE70D
:102A800030B4446801F1200C4FEA0C1C54F80C508F
:102A9000C5F38073537103681B691B7B54F80C00EA
:102AA00043EAD07303F00103137193B9C5F38A4568
:102AB000156001F1200304EB03139B88C3F30300AB
:102AC00003F00F039071082B01D9082393710023A1
:102AD0000CE025F060451560EBE704EB01101844AD
:102AE00090F806C2D01880F80CC001339079984253
:102AF000F3D80C44442384F820380023936030BC7E
:102B0000704770B58AB005468C46066A6EB3EE46CD
:102B100034460FCCAEE80F000FCCAEE80F0094E8BF
:102B200003008EE80300B646BCE80F00AEE80F00D5
:102B3000BCE80F00AEE80F009CE803008EE803003D
:102B4000EB69304698472B6A6BB19C46EE46BEE86F
:102B50000F00ACE80F00BEE80F00ACE80F009EE8E5
:102B600003008CE803000AB070BD0E46E8E7426837
:102B7000B2F8403823F48063A2F84038B2F8403805
:102B800061F30923A2F84038B2F8423803F4E06355
:102B9000B3EB012FF8D17047F8B504460D464768EE
:102BA000437B93420AD1237BAB4206D0052D0FD045
:102BB00029462046FFF7DBFF2573F8BD16460221A4
:102BC000FFF7D5FF87F85868667302232373EAE797
:102BD00002212046FFF7CBFFB7F8403843F480636B
:102BE000A7F84038B7F8423813F4806FFAD0E3E71B
:102BF00008B5FFF7D1FF002008BDFFFF2DE9F04128
:102C0000074688460D690E6806F58026A836360305
:102C10004660EFF3108C012181F310885B4A546801
:102C2000D8F80030C3F1020301FA03F324EA0303E6
:102C3000536053688CF31088C0F80080D8F80830CF
:102C4000C361D8F80C304362002404622B78037609
:102C50002246FFF7A1FF2A7B2B7DDB0043EA4203DC
:102C600043F4E073A6F84038D8F804201368591EDE
:102C7000474B03EA01435168013943EA0173916804
:102C8000013943EA0123D268013A43EA02333A7E2A
:102C90001343C6F84438224602213846FFF77CFF2A
:102CA000802386F850384FF400722146B0180AF09D
:102CB000A5FD04E00023321982F8203801341F2CCE
:102CC00011D8AA6802EBC4029379002BF2D12969CA
:102CD000A142F0D904F1200106EB01112846FFF7CB
:102CE00081FE4023E7E700231C4607E003F58071DF
:102CF00046F821200F228240144301332A69B3EBA6
:102D0000920F0ED26A68980052F823206FF060414B
:102D10008A42F2D2297B0029E8D11E4901EA824287
:102D2000E4E7E443C6F82844002211463846FFF79A
:102D300033FFB6F8403843F02003A6F84038B6F821
:102D4000403813F0200FFAD13A4698F8141098F949
:102D5000150000F0D5FA3A4698F8141098F91600C4
:102D600000F0CEFA3A4698F8141098F9170000F0DF
:102D7000C7FA3E2386F84C384FF0FF33C6F82C34A0
:102D8000054BBB600020BDE8F08100BF004008405B
:102D90000000FF030000FC1F4E41435238B50446BB
:102DA00000258560036893F9150000F099FA2368FF
:102DB00093F9160000F094FA236893F9170000F0D5
:102DC0008FFA636883F84C58C3F82C54EFF3108CD7
:102DD000012383F31088074A516820680068C0F116
:102DE000020083400B43536053688CF310882846DD
:102DF00038BD00BF0040084030B58BB0EFF3038012
:102E0000C0F30800103840B200F028FAEFF3038353
:102E1000C3F30803103B5BB2284A52F82350282220
:102E2000002168460AF0EAFC6C6894F84D38DBB281
:102E3000ADF80430002284F84D28B4F8422812F08E
:102E4000100F38D043F02003ADF8043094F8532825
:102E5000D2B2022384F8533894F8523803F01F0397
:102E600084F85328E11891F8202822F0040281F810
:102E700020282A68126800926A6A049203936946BD
:102E80002846FFF73EFE2B681969B4F8422812F075
:102E9000100F0ED00A7D62B193F91530002B08DBBC
:102EA00003F01F015B0901228A404033044941F8C5
:102EB00023200BB030BD0023DBE700BFBC22002085
:102EC00000E100E02DE9F0418AB0EFF30380C0F3A8
:102ED0000800103840B200F0C1F9EFF30383C3F3E8
:102EE0000803103B5FFA83F85CB21B4B53F8246075
:102EF0004FF48063ADF80430756895F85338DBB251
:102F0000002285F8532895F8527807F01F0785F8B6
:102F1000533805AA39463046FFF7B2FD03973368A8
:102F20001B680093736A049369463046FFF7E9FD16
:102F3000B5F8423813F0010F0BD0002C09DB08F074
:102F40001F086309012202FA08F24033034941F8DD
:102F500023200AB0BDE8F081BC22002000E100E09F
:102F600030B58BB0EFF30380C0F30800103840B2E7
:102F700000F074F9EFF30383C3F30803103B5BB273
:102F80001D4A52F823500022ADF804206C6894F8D2
:102F90005318C9B2012384F8533894F8523803F017
:102FA0001F0384F85318E11881F8202881F820289D
:102FB00003934FF40063ADF804302B681B68009353
:102FC0006B6A049369462846FFF79BFDB4F84238C4
:102FD00013F0020F0DD02B6893F91730002B08DB8C
:102FE00003F01F015B0901228A404033034941F885
:102FF00023200BB030BD00BFBC22002000E100E068
:10300000024B012283F88024704700BF00E001409A
:10301000064B93F826101A6AC2F30262044B53F867
:103020002130D340034A1360704700BF00E00140E5
:10303000A81E0020081F002008B5094B094A1A6085
:10304000094A5A604FF400429A600022DA601A611D
:10305000064A5A61064A9A61FFF7DAFF08BD00BFC7
:10306000A81E00200024F40000127A00000E27079A
:103070000068890908B50A4B012283F81C2103F571
:103080000053084A1A62052283F82620FFF7C0FF82
:10309000054BF1221A7300221A72F0221A7308BD2E
:1030A00000C00140211303210020004008B5234B3C
:1030B0004AF20352A3F8FE23A3F500530122A3F81A
:1030C00004211F4BB3F804319BB2002BF9D11C4BE8
:1030D0000122A3F80021FFF7AFFFFFF791FF174B85
:1030E000002283F83620154B93F83C3013F0010F83
:1030F000F9D0124B002283F83220104B93F83C3069
:1031000013F0080FF9D00D4B42F21172A3F84820CA
:10311000002283F84A204FF49851198583F82A2019
:10312000064B93F83C3013F0200FF9D0FFF7A2FFC5
:10313000024B4FF42542A3F8FE2308BD00E00140F6
:1031400000C0014010B50024064B83F82840012040
:1031500000F06CF9044B83F8BB44012000F032F915
:1031600010BD00BF0030084000E00140704700BEC5
:10317000FEE7A0F101000028FBD1704708B500FB75
:1031800001F1204B1B682048B0FBF3F0CA0E4B0145
:103190005B1A62F10002920042EA93729B005B1894
:1031A00042F10002D20042EA5372DB004FF0FF3CD2
:1031B0009C454FF0000C7CEB020C06D3B3FBF0F304
:1031C000980808B1FFF7D5FF08BD8000B1FBF0F10A
:1031D000CA0E4B015B1A62F10002920042EA93723E
:1031E0009B005B1842F10002D20042EA5372D80001
:1031F0004FF0FF3383424FF000039341E1D24FF091
:10320000FF30DFE7081F002000CA9A3B08B5034BD8
:1032100053F8203003B1984708BD00BFC41E0020FA
:1032200038B50D4BB3F82021B3F84051ADB215407D
:10323000002401E00134E4B20D2C08D825FA04F38F
:1032400013F0010FF6D02046FFF7E0FFF2E7024B44
:10325000A3F8305138BD00BF00600040054BC030BE
:1032600053F8202022F4803243F8202053F82030F5
:10327000704700BF0060004010B50446FFF7EEFF46
:10328000BFF35F8F04F01F02640901239340603491
:10329000014A42F8243010BD00E100E00901C9B242
:1032A00000F1604303F5614383F80013014B43F8D9
:1032B00020207047BC22002000F01F02400901239B
:1032C0009340024A42F82030704700BF00E100E01E
:1032D00010B50446FFF7D0FF2046FFF7EDFF10BD05
:1032E00000F01F024009012393402030034A42F8B6
:1032F0002030BFF34F8FBFF36F8F704700E100E0C6
:1033000010B50446FFF7CAFF2046FFF7E1FF10BDE6
:1033100000B585B0032000F089F8254B6FF0FF025F
:103320009A644FF0FF33019302930393002300E06C
:1033300001335F2B14D81F4A32F81320002AF7D02C
:103340005A0903F01F0C04A901EB820252F80C1C6D
:10335000012000FA0CF021EA000142F80C1CE7E71A
:1033600000230DE004AA02EB830252F80C2C124950
:1033700041F8232003F1A000104941F82020013337
:10338000022BEFD9032000F01DF8002300E00133E9
:103390005F2B0AD8074A32F81320002AF7D003F12E
:1033A000C001074840F82120F1E705B05DF804FBB3
:1033B00000800040C86F02007080004000E100E023
:1033C00000600040EFF31082012383F31088144B58
:1033D00033F810309BB23BB1114931F810309BB239
:1033E000013B9BB221F810300D4B33F810309BB2EB
:1033F00093B910B40B49B1F8FE339BB20A4C34F8C0
:10340000100043F4254323EA0003A1F8FE3382F3BE
:1034100010885DF8044B704782F31088704700BF36
:10342000001F002000E00140EC71020010B4EFF337
:103430001081012383F310880F4B33F810309BB2B7
:1034400063B90E4AB2F8FE339BB20D4C34F810C08B
:1034500043EA0C0343F42543A2F8FE33064A32F84C
:1034600010309BB201339BB222F8103081F31088E8
:103470005DF8044B704700BF001F002000E00140D2
:10348000EC71020008B503460C4A12685AB10B4AA7
:103490001068033323F003030344094A934206D818
:1034A000064A136008BD054A06491160EFE706F0B9
:1034B0007DFB0C2303604FF0FF30F3E73C2400203A
:1034C000688800206848002000BE704708B500F0FA
:1034D00025F8FDF779FBFEE700230B4A1360032B69
:1034E00005D80A4A002122F813100133F7E7002318
:1034F00004E0074A002142F8231001330F2BF8D9CA
:10350000044B054A1A607047FC1E0020001F002073
:10351000C41E0020081F002000127A0038B52F4B6F
:103520004FF47002C3F888202D4C9C60FFF7D4FF45
:103530000020FCF7E9FFFFF7B9FD0120FCF7E4FFED
:103540002368A3F5405383F30A882648264A121AB3
:1035500000210AF053F92548254A121A25490BF093
:1035600057FD254D254BED1AAD10002404E0234BEB
:1035700053F8243098470134AC42F8DBFFF748FD9C
:10358000FFF7E0FD1E4B0024DC704022DA700320C0
:10359000FFF74CFF234607E003F10801184A4FF6F6
:1035A000FF7022F811000133072BF5D90320FFF734
:1035B00009FF0320FFF73AFF124B00245C609C6078
:1035C000DC601C610320FFF7FDFE0220FCF79CFF7E
:1035D000FFF79EFE2046FFF7C9FD38BD00ED00E075
:1035E00000000100101F002068480020000000209B
:1035F000A81E002010E10200A41E00209C1E002036
:10360000000D084000000E4038B504460123037643
:10361000C36801334568B3FBF5F005FB103523693A
:10362000AB4202D10020207638BD2368E068A26852
:1036300002FB00300BF0ECFCE56063690133636171
:10364000002323760120EFE770B50D4616460446A9
:1036500080B1681C6060A660002565614FF0FF3393
:10366000E3602361256031460AF092FB20602576F5
:1036700060B170BD1C2009F025FD04460028E8D18A
:10368000044B054A2F210548FFF771FD04480AF055
:10369000FDFAEEE730570200F471020040570200D5
:1036A0006857020010B5044601230376C268036917
:1036B0009A4202D10020207610BD08462368216975
:1036C000A26802FB01310BF0A3FC2369013362689D
:1036D000B3FBF2F102FB113323616369013B6361C8
:1036E000002323760120E7E770B505460E4610203B
:1036F00009F0E8FC044660B18560466006FB05F011
:1037000009F0E0FC0546206038B10023E360204664
:1037100070BD06480AF0FCF9F9E7204609F0DAFC2A
:1037200003480AF0F5F92C46F1E700BF7C57020088
:103730009857020080B110B50446C368826893426E
:103740000DD20068626802FB03000BF061FCE368C5
:103750000133E360002010BD4FF0FF3070474FF0A1
:10376000FF30F8E708B1C06870474FF0FF3070478E
:10377000034630B1C0689B68984234BF00200120E6
:1037800070470120704740B1C2683AB18A4207D9F8
:103790000268406801FB00207047704700207047B6
:1037A00000207047D8B138B50B460446D1B1056842
:1037B0004168C068013800FB0152AB4215D3934207
:1037C00016D809D0D21A1944184609F097FFE368B1
:1037D000013BE360002038BDE0600020FBE74FF0D4
:1037E000FF3070474FF0FF30F5E74FF0FF30F2E762
:1037F0004FF0FF30EFE7FFFF28B100B5864600230A
:103800004FF6FF700CE07047020292B21EF803C040
:103810008CEA102C0448006830F81C00504001333A
:103820008B42F1D35DF804FB300600200023934265
:1038300012D210B411F803C08CEA102C074C246883
:1038400034F81CC0000280B28CEA000001339342BD
:10385000F0D35DF8044B7047704700BF300600207E
:1038600001460023FF2004E0A1F13000C0B2013383
:103870009BB2152B12D80C4AD25C8A42F7D1092B85
:10388000F2D9A3F10A0292B2052A03D9A1F1570095
:10389000C0B2ECE7A1F13700C0B2E8E7FF2800D0E2
:1038A00070470846FCE700BF3408002001230022CF
:1038B00005E010F803C06244D2B201339BB201F1BB
:1038C000FF3C6345F5DB5042C0B2704710B502784B
:1038D0003A2A2AD1174B1A7042785A7082789A7015
:1038E000C278DA7002791A71134A9A60002309E0EB
:1038F00003F1050C0F4A926810F80CC002F803C0DF
:1039000001339BB20B4A52789A42F1D80532845C5B
:10391000084B1C73FFF7CAFF844201D1054810BD54
:1039200006480AF0B3F90020F9E705480AF0AEF9B5
:103930000020F4E76024002040240020B457020057
:10394000C45702002DE9F04780468946924600247C
:10395000254607E00AF805600135ADB2013CA4B286
:103960000234A4B24C4513D218F804703846FFF75D
:1039700077FF0646631C18F80300FFF771FFB74294
:10398000E8D040EA06100AF805000135ADB2E7E7D5
:103990002846BDE8F087FFFF024B197058600020F1
:1039A000704700BF4C0800200CB430B5ADF5805D09
:1039B00085B004460D4641F20202002103A809F039
:1039C0001DFF1D4B1B78A34206D20DF5805D05B08F
:1039D000BDE8304002B070470DF5815304330293C7
:1039E0000195164B53F824300093154B53F82430AF
:1039F000144A4FF4805103A80BF0FEFB0446029BCF
:103A00000DF581521268C0F5805103A8204409F0D9
:103A100021FB0444B4F5805F01DD4FF4805404AB16
:103A20002344002203F8042C034B5B68002BCCD00A
:103A300003A89847C9E700BF4C08002004720200A1
:103A400018720200D857020048B110B50446406809
:103A500008B109F03FFB204609F03CFB10BD704760
:103A6000F8B5044609B92046F8BD15460F460C20A6
:103A700009F028FB06460E4B0360A0682844B0609E
:103A8000013009F01FFB7060A26861680BF0C0FA9A
:103A90007068A3682A46394618440BF0B9FA726870
:103AA000B3680021D1542046FFF7CEFF3446DAE751
:103AB0002C72020038B5044609B9204638BD0D46BF
:103AC00008460BF01BFB024629462046FFF7C8FFBD
:103AD0000446F2E740B110B50446406809F0FAFA2E
:103AE00000236360A36010BD7047884210D088B186
:103AF00091B108B582688B689A4201D0002008BD58
:103B00004968406809F0A2FDB0FA80F04009F6E784
:103B100001207047002070470020704708B5826878
:103B2000406809F093FDB0FA80F0400908BDFFFF3E
:103B300070B50646A0B10D460C2009F0C3FA044644
:103B4000084B0360681C09F0BDFA6060A5602A4656
:103B500031460BF05DFA636800225A55204670BD6D
:103B60000446FBE72C72020010B504460BF0C6FABF
:103B700001462046FFF7DCFF10BD034668B1002078
:103B80005860986083F81E04A3F81C04C3F814045A
:103B9000C3F81804D860186170474FF0FF307047C1
:103BA00030B141B1C0F82C14C0F830240020704767
:103BB0004FF0FF3070474FF0FF30704708B10120E1
:103BC00070474FF0FF30704780B370B50E46154612
:103BD000044671B3184A19490220FFF7E5FEE66072
:103BE00025612B46002D1EDB9B12C4F81834C5F34B
:103BF000090515B10133C4F81834002584F81E54A2
:103C0000A4F81C54C4F8145484F8205444F62063D7
:103C1000C4F82434FCF766FDC4F82804304604F0E8
:103C2000B2FE284670BD05F2FF33DDE74FF0FF30EE
:103C300070474FF0FF30F5E7345802004858020053
:103C400030B108B539B14160806805F07BF808BD36
:103C50004FF0FF3070474FF0FF30F8E7002868D092
:103C600030B583B0044619B14160806805F06AF848
:103C7000D4F81424D4F81834013B9A4202DB01230F
:103C800084F81E3494F81E34FBB1A06805F044F8A3
:103C90002269D4F81414A2EB81228902A06805F0ED
:103CA00049F82346254A6168A06805F04DF80028C8
:103CB0001DDBD4F814340133C4F81434D4F81824B8
:103CC000934239DA012003B030BDA06805F024F832
:103CD000D4F814144FF480628902A06805F02AF821
:103CE0002346164A6168A06805F02EF8DFE7D4F88D
:103CF0001434134A13490020FFF756FED4F82C540D
:103D000055B1D4F8303400930F4B6FF0020294F8A1
:103D10001E14D4F81404A84794F820340133DBB2FD
:103D200084F82034022B01D80020CCE74FF0FF307C
:103D3000C9E74FF0FF3070470220C4E74D3D010056
:103D400058580200485802007458020070B582B0FA
:103D50001C461BB30E461546002A1FDBD3F814146D
:103D6000134632468902E06804F018FE00282ADB78
:103D70002A463146B4F81C04FFF758FDA4F81C0489
:103D8000D4F82C54EDB1D4F830340093194B002200
:103D900094F81E14D4F81404A84712E0164A1749E0
:103DA0000020FFF701FED4F82C5455B1D4F830347C
:103DB0000093134B4FF0FF3294F81E14D4F8140400
:103DC000A84702B070BDD4F814340E4A0B49002045
:103DD000FFF7EAFDD4F82C54002DF2D0D4F830349B
:103DE0000093094B6FF0010294F81E14D4F81404E8
:103DF000A847E6E76C6502008458020048580200B4
:103E0000B8580200C8580200F058020010B5044625
:103E100030B10648846000234360C360036110BD75
:103E2000034A0449FFF7C0FD2046F8E75408002084
:103E30000859020048580200032809D8DFE800F0BA
:103E4000020A040604487047044870470448704753
:103E5000044870470448704710530200185302008A
:103E60003C59020040590200145302000023032B66
:103E700009DC03EB830200EB820292F824208A42E1
:103E800003D00133F3E700207047012070478446D8
:103E9000002200E00132032A11DC02EB82039B00C6
:103EA00020336344181DF5D002EB82030CEB83032F
:103EB00093F824308B42EDD1CCF874007047002089
:103EC000704710B50446C06870B103681B68626F24
:103ED000926821699847E0680368DB68626F12693D
:103EE00051689847002010BD4FF0FF30FBE7FFFFFF
:103EF00010B570B10446436F1878FFF79DFF034675
:103F0000064A07490220FFF74FFD072384F82030B7
:103F100010BD044A0249FFF747FDF9E77C5902004A
:103F2000705902005059020070B582B0FAB11446BF
:103F3000936F13B3DB6803B331B311F1030F36D0C2
:103F400011F1020F47D02E4A2E490220FFF72CFD17
:103F5000A36FDE68656F2878FFF76EFF6B6859689E
:103F6000E36F0093284B6FF00802B0470AE0274A3E
:103F700024490020FFF718FD04E0254A21490120CB
:103F8000FFF712FD02B070BD224A1E490220FFF762
:103F90000BFDA36FDE68656F2878FFF74DFF6B6838
:103FA0005968E36F00931C4B0022B047EAE71B4AB5
:103FB00014490220FFF7F8FCA36FDE68656F2878CC
:103FC000FFF73AFF6B685968E36F0093144B6FF08B
:103FD0000502B047D6E7134A0A490220FFF7E4FC7E
:103FE000A36FDE68656F2878FFF726FF6B68596856
:103FF000E36F00930C4B6FF00702B047C2E700BFBE
:10400000805A020070590200A85A0200505902005A
:1040100098590200BC590200D4590200E459020028
:10402000145A0200345A0200605A02002DE9F0438B
:1040300083B00A9E0EB30446884615461F4612BB3F
:10404000124B00932346124A12490220FFF7ACFCA0
:10405000B06F78B1D0F80890B9F1000F0AD0736F43
:104060001878FFF7E9FEF36F019300972B4642465D
:104070002146C84703B0BDE8F083074A0549002040
:10408000FFF792FCF6E7054BDBE700BF6C6502002B
:10409000CC5A020070590200505902006C580200BC
:1040A00010B50C4604230B700023CB608B6048686E
:1040B00008B1FFF7C9FC00236360206908B1FFF76E
:1040C000C3FC0023236110BD00B583B0436F1B7890
:1040D000032B22D8DFE803F0020A101A01694068B6
:1040E00000F03DFE002003B05DF804FB016940686C
:1040F00000F005FE0020F6E7C3690093836942697A
:104100000169406800F05BFE0020ECE700221146E8
:10411000406800F0BAFD0020E5E7044A04490220A7
:10412000FFF742FC4FF0FF30DDE700BFE45A02002A
:1041300070590200F8B5D0B10C461646B9B1B2B10B
:10414000184A10605160FFF761FE0546B0B1036880
:104150009B68144F3A4614499847BD607C601349E8
:104160008F60204600F08AFD3E61002415E0104A71
:1041700010490020FFF718FC002511E00E4A0D49F8
:10418000FFF712FC0CE004EB8401890020310548A4
:1041900001440431FFF784FF0134032CF3DD014DAA
:1041A0002846F8BD702400202D400100A00C0020FE
:1041B000F85A0200705902002C5B020020B14161E4
:1041C0008261C361002070474FF0FF30704720B11B
:1041D00031B18167C267002070474FF0FF307047F0
:1041E0004FF0FF307047FFFF00284ED02DE9F04719
:1041F0000E46174698460546012915D88B1C50F8DF
:1042000023308BB11146FFF731FEA8B90024032CEF
:1042100037DC04EB840C05EB8C0C9CF824C0BCF15F
:10422000040F12D00134F2E7194A1A490020FFF7AF
:10423000BBFB4FF0FF3026E03B46174A15490120F3
:10424000FFF7B2FB4FF0FF301DE004EB840905EBF4
:10425000890989F82470089BC9F82C30099BC9F892
:1042600030304046FFF780FCC9F828000A98FFF775
:104270007BFCC9F83400023655F82630EB6000208C
:1042800001E04FF0FF30BDE8F0874FF0FF3070479E
:10429000705B0200705902008C5B020060B310B5C5
:1042A00004460021FFF7F3FD28B16067012384F87D
:1042B0002030002010BD01212046FFF7E8FD28B185
:1042C0006067012384F820300020F3E702212046B4
:1042D000FFF7DDFD28B16067012384F8203000205E
:1042E000E8E703212046FFF7D2FD40B160670123D4
:1042F00084F820300020DDE74FF0FF3070474FF0AA
:10430000FF30D7E7002800F0B38070B582B00446D4
:1043100090F82030013B072B00F2AD80DFE803F07E
:10432000043745507D8B909FFFF7B8FF00281FDBB7
:10433000A36F4BB15D683DB1636F1E783046FFF7E8
:104340007BFDE26F3146A847636F2BB12046FFF734
:10435000B8FD022384F82030636F1878FFF76CFDF6
:104360000346484A48490220FFF71EFB002025E08B
:10437000464A45490020FFF717FBA36F1BB19B6915
:104380000BB1E06F9847002084F8200016E0C06869
:1043900003681B6900219847022801D000200DE026
:1043A000032384F82030002008E0394A36490220EF
:1043B000FFF7FAFA042384F82030002002B070BD21
:1043C000C06803685B69626F91899847002809DBC0
:1043D000304A2D490220FFF7E7FA052384F8203000
:1043E0000020EBE72C4A28490020FFF7DDFAA36FF5
:1043F000002BEDD01D69002DEAD0666F3078FFF7F5
:104400001BFD73685968E36F0093244B6FF0030240
:10441000A847082384F82030DAE7FFF755FE002884
:1044200004DB062384F820300020C7E7082384F843
:1044300020300020C2E7406800F012FC0020BDE7F9
:10444000082380F82030836FBBB15D69BDB1436F35
:104450001878FFF7F1FCE16FA8470020AEE7416F45
:10446000FFF71EFE00206067012384F82030A5E7D7
:104470004FF0FF3070470020A0E700209EE70020AB
:104480009CE700BFF05B020070590200D45B0200A1
:10449000185C0200A05C0200585C0200845C020010
:1044A000F0B583B04668002E3DD005460C468368C3
:1044B0005B686BB1337800930B461D4A1D4902209F
:1044C000FFF772FAAB685F68DA68E1B23078B84734
:1044D00031462868FFF766F900236B602868FFF70C
:1044E00041F910BBAB689B68EBB1134A114902203C
:1044F000FFF75AFAAB689A68D868904713E03146DC
:104500002868FFF740F904464AF6C8730362FCF7CF
:10451000E9F86062002384F8283001362868FFF744
:1045200021F9B042EBDC03B0F0BD0026F6E700BF96
:10453000C05C0200F05C0200045D0200EAB110B54C
:1045400082B0144658B90B460C4A0D490220FFF7B9
:104550002BFA00212046FFF7A3FF02B010BD5368DD
:104560001B780090074A06490020FFF71DFA6FF0FC
:1045700003012046FFF794FFEFE77047345D020028
:10458000F05C0200545D020010B50446FCF7AAF886
:104590006368C01A2368834201DD181A10BD002029
:1045A000FCE7FFFFF8B5054644682378304A3149F7
:1045B0000220FFF7F9F9237A022B15D1206901F0C7
:1045C000B7FA0646637A012B1BD0022B2ED02A4A5B
:1045D00028490020FFF7E8F96FF004012846FFF7AB
:1045E0005FFF4FF0FF3020E0244A22490020FFF710
:1045F000DBF96FF004012846FFF752FF4FF0FF3060
:1046000013E000F08DFF0746BFB1B6B13B4632461E
:104610002178686901F01CFB002816DB022384F86E
:104620002830FCF75FF860620020F8BDE269A169FC
:10463000606901F065F80746E6E74FF0FF3128466C
:10464000FFF72EFF4FF0FF30EFE70D4A094900203A
:10465000FFF7AAF93B685B68384698477368984744
:104660004FF0FF312846FFF71BFF4FF0FF30DCE72C
:10467000905D0200F05C0200CC5D0200B05D0200C3
:10468000EC5D020070B54468002C48D005462378E4
:10469000244A25490220FFF787F962681368A3B10D
:1046A000D26842F2107120789847002815DB6368C1
:1046B0005B6833B342F210732362FCF713F8606255
:1046C000012384F82830002070BD022384F82830AC
:1046D0002846FFF767FF0020F6E72378134A1249C0
:1046E0000020FFF761F9AB681E68DA6800212078C6
:1046F000B0476FF002012846FFF7D2FE4FF0FF30BF
:10470000E2E7022384F82830AB681E68DA680121EA
:104710002078B0472846FFF745FF0020D4E74FF048
:10472000FF30D1E7045E0200F05C02001C5E020074
:1047300038B50546182008F0C5FC044678B12C2190
:104740004020FEF7D1FF206090B1A5600023636098
:104750002146084801F062FA0546606108B120462A
:1047600038BD054A05490020FFF71EF92C46F6E73B
:104770000446F4E73D450100385E0200F05C0200AB
:1047800084B010B58CB00DF13C0C8CE80E0088B3F1
:1047900004462C22002101A809F030F80DF1040C88
:1047A0000DF13C0EBEE80F00ACE80F009EE80F00D4
:1047B0008CE80F002068FEF7DBFFF0B900238DF8CE
:1047C0002C304AF6C8730993FBF78CFF0A9001A9B5
:1047D0002068FEF7AFFF002812DB9DF83C300A4A44
:1047E0000A490220FFF7E0F800200CB0BDE81040B5
:1047F00004B070474FF0FF30F7E74FF0FF30F4E7B9
:104800004FF0FF30F1E700BF545E0200F05C0200A1
:10481000002800F0868070B505460068FEF7A2FF0C
:10482000002802DD6B68002B53D06C683CB194F813
:104830002830012B4FD094F82830022B6DD070BD5A
:1048400063689A68D96820789047002836D1013685
:104850002868FEF787FFB042E7DD31462868FEF79B
:1048600092FF044690F82830002BE9D12030FFF762
:104870008BFE0028E4D123782A4A2B49FFF794F8CD
:10488000AA6853681BB1D268FE2120789847214658
:104890002868FEF787FFAB689B68002BCFD028689D
:1048A000FEF760FF0028CAD1204A1F490220FFF707
:1048B0007BF8AB689A68D8689047C0E76C6023784B
:1048C0001B4A19490220FFF76FF82846FFF7DAFE66
:1048D000B5E70026BCE704F12000FFF755FE80B1E4
:1048E00063685A68D968207890470028A3D0AB68DD
:1048F0001E68DA6801212078B0472846FFF752FE8B
:1049000099E7AB681E68DA6800212078B0476FF03D
:1049100002012846FFF7C4FD91E7686901F04AFAF1
:104920008DE77047885E0200F05C0200045D0200C3
:10493000B85E020091F838007047012070470120EE
:104940007047FFFF10B582B01C4602280CD0074B01
:1049500001920091064A07490220FFF725F801233A
:1049600084F8383002B010BD034BF1E7305E02002E
:10497000EC5E02001C5F0200E45E020010B582B033
:104980001C4602280CD0074B01920091064A0749A9
:104990000220FFF709F8012384F8383002B010BD77
:1049A000034BF1E7305E0200305F02001C5F020043
:1049B000E45E020008B50346034A04490220FEF7FC
:1049C000F3FF012008BD00BF585F02001C5F02001A
:1049D00008B50346034A04490220FEF7E5FF01201B
:1049E00008BD00BF705F02001C5F020010B50446E6
:1049F000054A06490220FEF7D7FF636B1BB15A68D0
:104A00000AB19868904710BD905F02001C5F0200D9
:104A100000B583B0034649B1054A0092054A0649EC
:104A20000220FEF7C1FF03B05DF804FB034AF4E780
:104A30006C650200B05F02001C5F0200305E020085
:104A400010B586B00446164B01221A60154B4FF480
:104A500008521A60144B00221A70144B1970022964
:104A60001BD0134B134A14490220FEF79DFF0494F8
:104A7000124B03934FF47A730293012301930B4B70
:104A80000093074B1B68084A1278064909680C48CE
:104A9000006803F04EFE06B010BD0A4BE2E700BF0F
:104AA000F8240020F4240020F1240020F024002029
:104AB000CC5F0200D45F02001C5F02004549010088
:104AC00008250020C45F020070B582B00446154678
:104AD0000E4699B90D4B009323460D4A0D4902200D
:104AE000FEF762FF022C0BD06B6B2BB11D681DB162
:104AF0009A6831462046A84702B070BD064BEAE7E7
:104B000000212846FFF79CFFEEE700BF6C6502001E
:104B1000EC5F02001C5F0200305E020010B586B040
:104B2000002382F83830431E072B47D8DFE803F014
:104B30002D27464604040439224B1860224B42F2CA
:104B400001011960214B07211970214B01211970B6
:104B50000492204B03934FF47A730293012401943F
:104B60001B4B0093174B1B68184A127816490968AB
:104B70001948006803F0DDFD204606B010BD022193
:104B80001046FFF75DFF0120F7E70E4B18600E4B54
:104B90004FF40C51196001230C490B700C490B7038
:104BA000D6E7084B1860084B42F601011960074B25
:104BB00000211970064B01211970C9E74FF0FF3031
:104BC000DBE700BF0425002000250020FD24002095
:104BD000FC2400207D4901000825002038B5054649
:104BE000E8B1124C124BE361124B6361124BA361AB
:104BF0002462124BE362124B6362124BA362246382
:104C0000114B6360114BA360114BE3602461114BA6
:104C10001860201DFFF78CFD2060204638BD0E4A2D
:104C20000E49FEF7C1FE2846F8E700BF0C2500201C
:104C30003B4901001D4B0100354901003F4901007E
:104C4000B5490100D1490100114A0100C94A0100DA
:104C5000ED49010008250020106002001C5F0200E1
:104C600030B108B5006830B1FFF7D2FD002008BDB3
:104C70004FF0FF3070474FF0FF30F8E710B141635D
:104C8000002070474FF0FF30704778B32DE9F041B6
:104C90008EB00C4690460546076857B302292BD8BC
:104CA00006AE20220021304608F0A8FD05348DF81C
:104CB00018401435079502238DF8203001238DF814
:104CC0002130CDF82880EC460DF1240EBEE80F000F
:104CD000ACE80F00DEF80030CCF8003096E80E00AB
:104CE0003846FFF74DFD0EB0BDE8F0814FF0FF30C4
:104CF00070474FF0FF30F6E74FF0FF30F3E740B377
:104D0000F0B58FB00E46044607682FB306AD2022DB
:104D10000021284608F072FD01238DF81830143464
:104D2000079402228DF820208DF821300A96EC4657
:104D30000DF1240EBEE80F00ACE80F00DEF80030E5
:104D4000CCF8003095E80E003846FFF719FD0FB09B
:104D5000F0BD4FF0FF3070474FF0FF30F7E740B342
:104D6000F0B58FB00E46044607682FB306AD20227B
:104D70000021284608F042FD02238DF81830143433
:104D800007948DF8203001238DF821300A96EC46E7
:104D90000DF1240EBEE80F00ACE80F00DEF8003085
:104DA000CCF8003095E80E003846FFF7E9FC0FB06C
:104DB000F0BD4FF0FF3070474FF0FF30F7E7A0B382
:104DC0002DE9F0438FB0894617461E460446D0F8B9
:104DD0000080B8F1000F2BD006AD2022002128461C
:104DE00008F00CFD08238DF81830243407940223B2
:104DF0008DF820308DF82130CDF828900B970C9647
:104E0000169B0D93EC460DF1240EBEE80F00ACE8A6
:104E10000F00DEF80030CCF8003095E80E00404678
:104E2000FFF7AEFC0FB0BDE8F0834FF0FF307047E6
:104E30004FF0FF30F6E70020704703464FF0FF3297
:104E4000C263002083F838005A60586318637047C3
:104E500048B15AB1013140F8312000EBC10CCCF817
:104E60000430002070474FF0FF3070474FF0FF30A4
:104E70007047FFFF08B5044B1B78044A0449032020
:104E8000FEF792FD032008BD482500205460020073
:104E900080600200002B51D010B584B01C46002366
:104EA00084F84930032803D0022824D004B010BD70
:104EB00000920B46224A23490020FEF775FDE36B62
:104EC000002BF3DB00238DF80F3094F83830032BE0
:104ED00005D0022B09D04FF0FF33E363E6E7A36967
:104EE000E1690DF10F009847F5E7236961690DF15C
:104EF0000F009847EFE794F83830012B17D0E36B99
:104F00000133E363E36B022BD0DD01238DF80F3017
:104F100094F83830032BC9D0022BC7D123696169BB
:104F20000DF10F0098474FF0FF33E363BEE74FF4F6
:104F30007A732364FBF7D6FB6064E3E7704700BF36
:104F400098600200D060020010B50446FBF7CAFB6F
:104F50006368C01A2368834201DD181A10BD00205F
:104F6000FCE7FFFF70B586B00446134B186803F0EA
:104F7000D9FBD0B9064694F84930CBB904940F4B0D
:104F80000393502302930125019504F148030093F4
:104F90006368072242F201010748006803F0C9FB79
:104FA00084F84950304606B070BD4FF0FF36F9E73F
:104FB0004FF0FF36F6E700BF08250020954E0100B0
:104FC00030B587B00446184B186803F0ABFB10BB34
:104FD000E56B1DBB94F849301BBB236B083304946D
:104FE000124A03924FF47A720292042201920093C1
:104FF0006368012242F201010B48006803F099FB4B
:10500000012384F849300A4A0A490320FEF7CCFC00
:10501000284607B030BD4FF0FF35F9E74FF0FF35B8
:10502000F6E74FF0FF35F3E708250020954E010025
:10503000D86002008060020030B587B00446194B8A
:10504000186803F06FFB18BB0546E36B012B22D1F8
:1050500094F8493013BB236B0C330494124A039227
:105060004FF47A720292022201920093636842F234
:1050700001010C48006803F05CFB012384F849300F
:105080000A4A0B490320FEF78FFC284607B030BDC3
:105090004FF0FF35F9E74FF0FF35F6E74FF0FF35FA
:1050A000F3E700BF08250020954E0100E8600200EC
:1050B0008060020070B586B00446194B186803F092
:1050C00031FB18BB0646E36B022B22D194F8493022
:1050D00013BB236B0494134A03924FF47A72029227
:1050E0000325019500936368002242F201010C48F8
:1050F000006803F01EFB012384F849300A4A0B497B
:105100002846FEF751FC304606B070BD4FF0FF3622
:10511000F9E74FF0FF36F6E74FF0FF36F3E700BF51
:1051200008250020954E0100F86002008060020012
:1051300030B587B00446194B186803F0F3FA18BB72
:10514000E56B25BB94F8493023BB636B0494144A88
:1051500003924FF47A7202920422019200936368E0
:10516000032242F201010D48006803F0E2FA012334
:1051700084F84930636B1B680A4A0B490320FEF729
:1051800013FC284607B030BD4FF0FF35F9E74FF06C
:10519000FF35F6E74FF0FF35F3E700BF08250020A5
:1051A000954E01000C6102008060020030B587B0AE
:1051B00004461B4B186803F0B5FA38BB0546E36B91
:1051C000012B26D194F8493033BB636B03F11002F5
:1051D000DB6804941349039141F2883102910193F1
:1051E00000926368042242F201010D48006803F056
:1051F000A0FA012384F84930636BDB680A4A0B4943
:105200000320FEF7D1FB284607B030BD4FF0FF3535
:10521000F9E74FF0FF35F6E74FF0FF35F3E700BF52
:1052200008250020954E01002461020080600200E4
:1052300030B587B004461B4B186803F073FA40BBC7
:105240000546E36B022B27D194F849303BBB636BD7
:1052500003F582630494144A039241F28832029265
:105260000222019200936368052242F201010D4877
:10527000006803F05EFA012384F84930636BB3F8E9
:1052800010340A4A0A490320FEF78EFB284607B06D
:1052900030BD4FF0FF35F9E74FF0FF35F6E74FF03F
:1052A000FF35F3E708250020954E01003C61020020
:1052B0008060020038B5002856D0044690F8383097
:1052C000032B4DD8DFE803F05302122F4030FFF7D5
:1052D0003BFE054608B100254AE02046FFF742FEA6
:1052E00050232364FBF7FEF9606441E0C36B43B1D4
:1052F000012B09D0022B0AD0E36B002B0ADB00251F
:1053000036E0FFF75DFEF7E7FFF796FEF4E7FFF7FD
:10531000D1FEF1E7194B186803F004FA054648BBC3
:105320000023E36324E0C36B43B1012B09D0022BBC
:105330000AD0E36B002B0ADB002519E0FFF7F8FE2B
:10534000F7E7FFF733FFF4E7FFF772FFF1E70B4BE7
:10535000186803F0E7F9054670B90023E36307E036
:10536000002580F8385003E04FF0FF3500E00025BD
:10537000284638BD0025FBE70025F9E70825002071
:10538000B0B108B503464268002A01DB8A4208D161
:105390005960012283F83820074808F0B9FB002043
:1053A00008BD1146054808F0B3FB4FF0FF30F7E7A2
:1053B0004FF0FF30704700BF94610200506102005F
:1053C000C8B110B582B004464368002B16DB0163F8
:1053D0008B688A89019200938B784A78097809480A
:1053E00008F096FB022384F838304FF0FF33E36374
:1053F000002002B010BD4FF0FF3070474FF0FF307B
:10540000F7E700BFC461020010B582B01E4A1F4911
:105410000320FEF7C9FA1E4B1978022907D01D4B4D
:1054200093F83830012B1BD0032002B010BD194B6C
:1054300093F83830032BF2D1164BDB6B012BF3DDE5
:10544000154808F065FB01238DF80730114CA3695E
:10545000E1690DF1070098474FF0FF33E363E3E79D
:105460008DF807300B4CA368E1680DF107009847F1
:10547000074B1B78094A05490320FEF795FA0023DC
:1054800084F83830D0E700BFF86102008060020085
:1054900049250020AC0C00201C620200346202008E
:1054A00078B32DE9F04387B00C464568002D2BDB1F
:1054B0004163032280F838204FF0FF32C2638E68C8
:1054C000B1F81074D1F80080D1F80490084600F0CB
:1054D00095FBA0B10E4AB4F8103405930492CDF8B0
:1054E0000C90CDF80880019700962B46094A0A498E
:1054F0000220FEF759FA002007B0BDE8F083074A02
:10550000E9E74FF0FF3070474FF0FF30F4E700BF9E
:10551000345902005062020080600200B05802005C
:1055200010B5002300E001331D4A1268118899422A
:1055300009DD526802EBC30032F8331042F2010277
:105540009142F0D100E000204268164B1367426898
:10555000926F136043689B6F134A5A604268134B03
:1055600013664268926E136043689B6E104A5A60DD
:105570000321104B186803F047F80F4C4FF0FF322F
:10558000E263002384F8383062606363236384F845
:10559000493050232364FBF7A5F86064204610BD12
:1055A000DC15002048250020754E0100492500200B
:1055B0000954010008250020AC0C00200020704791
:1055C00003464FF0FF3242640020986458631A8704
:1055D000D8641865704742B110B400EBC100426056
:1055E000836000205DF8044B70474FF0FF30704738
:1055F00000B583B001238DF80730436881680DF151
:1056000007009847002003B05DF804FB10B582B096
:10561000044600238DF807308A89038F9A4204D10B
:1056200008468A68636B9A420CD0134A13490020DB
:10563000FEF7BAF9E36821690DF1070098470020E9
:1056400002B010BD01238DF80730E36C1BB1216D52
:105650009847002809DB9DF8073053B1084B094AE9
:1056600006490220FEF7A0F9E4E700238DF8073091
:10567000F1E7054BF3E700BF00630200E8620200B8
:10568000B4620200C4620200BC62020070B586B05F
:1056900005460C4601238DF81730436981690DF1E9
:1056A000170098476268531E216802919B0201937C
:1056B0000092A368104A11490220FEF775F96B6C3D
:1056C00061688B4202DBE06806B070BD013904F10D
:1056D0001006A36832468902A86C03F05FF963687C
:1056E0006B64A2683146288FFEF7A0F828876B6BA1
:1056F000A26813446B63E6E718630200E8620200E5
:1057000070B50546B8B10E46144603F037F90346A6
:105710000C4A0D490220FEF747F9284603F033F9F9
:105720000A484FF0FF3343648564002242630387D5
:10573000C664046570BD064A0349FEF735F928467C
:10574000F8E700BF6C630200E8620200F80C00207A
:1057500054630200002300E001338B4204D2C25C98
:10576000FF2AF9D0012070470020704703780A2BE8
:105770000CD001238B4206D2C25C0A2A01D001332D
:10578000F8E7581C00E0002010B170470020704777
:10579000084670470020704710B50A4B00249C60F3
:1057A0005C609C811C754FF0FF321A61064B1C70C7
:1057B000064B1C6020222146054808F01FF82046B1
:1057C00010BD00BF680D002050250020742500206A
:1057D0005425002030B58FB00546322301AA124966
:1057E00009681248006803F0EFF8322101A8FFF7BA
:1057F000B1FFA8B1322101A8FFF7B8FF04460A4A59
:1058000013680344136032220021284607F0F6FF94
:10581000224601A9284609F0FBFB20460FB030BD07
:105820004FF0FF34F9E700BF782500204C25002019
:1058300070B59CB000260FA8FFF7CCFF05460028E6
:1058400071D00136841E42490FAB181908F082F856
:1058500040B16C1E04F170036B4413F8343C0A2B06
:1058600000D02C4602AAA1B20FA8FEF76BF881B2B5
:1058700002A8FEF72BF878B10279042ADBD801A13F
:1058800051F822F00B59010021590100D7580100AD
:1058900037580100A95801002E4A2F490220FEF76F
:1058A00083F84FF0FF3050E082681178527842EA76
:1058B00001228178C37843EA01232849496819B94C
:1058C00003EB0243254A53603346254A224902200E
:1058D000FEF76AF8AFE782681178527842EA01224F
:1058E0008178C37843EA01231C49496819B903EB5D
:1058F00002111A48416003EB021300933346194A20
:1059000015490220FEF750F895E7144A1269002A5B
:1059100091DA8278C37803EB0223104A136102E024
:10592000114808F0B3F90D4A002414755368116941
:105930000B4453604FF6FF7191810C4A06490220D7
:10594000FEF732F80A4B1C6020461CB070BD00BF49
:1059500068670200A0630200C0630200680D0020B7
:10596000CC630200F063020020640200386402008D
:10597000782500200B4669B109889A7801808270E9
:105980005A6842609A6882609A8982811B7D037599
:10599000002070474FF0FF307047FFFF08B5064BFF
:1059A0001B781BB10549FFF7E5FF08BD044808F067
:1059B000AFF84FF0FF30F8E750250020680D0020C9
:1059C000506402002DE9F041ADF58E6D0746D0F828
:1059D00004804D4B1E68D6B132464C4902A809F0EE
:1059E00017FB494B00221A6011E00DF58162A1B24C
:1059F0000DF23C40FDF7A6FF81B20DF58160FDF789
:105A000065FF0446F8B103791BB3012B2AD0B6F524
:105A1000806F2DD20DF23C40FFF7DCFE054638B317
:105A2000841E3B490DF23C43181907F093FF0028F0
:105A3000DBD06C1E04F58E636B4413F8343C0A2BE8
:105A4000D3D02C46D1E7334808F020F94FF0FF308F
:105A50003FE04278816802AB981909F0D9FA63787F
:105A60001E44D4E72C4808F011F92C4B01221A707F
:105A7000B6F5806F31D8314602A8FDF7BDFE054668
:105A8000274C324602A9A089FDF7D0FEA081A36869
:105A90003344A36062680095334602EB8822414696
:105AA000384600F076F8324602A9384600F07FF812
:105AB0007B681C4A1C490220FDF776FF174B1B78B8
:105AC00013B1114B1B68A3B10021384600F08EF8CA
:105AD00001200DF58E6DBDE8F081A6F580620A4BC0
