:020000021000EC
:10000000F8B70020B52F0100412D0100B12F0100EC
:10001000B12F0100B12F0100B12F0100B12F01005C
:10002000000000000000000000000000B12F0100EF
:10003000B12F010000000000B12F0100B12F01001D
:100040000D160100351501009D160100D1160100A5
:100050000D160100351501009D160100D116010095
:100060000D160100351501009D160100D116010085
:10007000C5290100652A01003D2B0100652A010008
:100080003D2B0100C5190100C11A010079250100AD
:100090001D2501007D0F0100DD0F0100551001003D
:1000A000B5100100C52001000000000000000000A4
:1000B0000000000000000000000000000000000040
:1000C0000000000000000000000000000000000030
:1000D0000000000000000000000000000000000020
:1000E0000000000000000000000000000000000010
:1000F0000000000000000000000000000000000000
:1001000000000000000000000000000000000000EF
:1001100000000000000000000000000000000000DF
:1001200000000000000000000000000000000000CF
:1001300000000000000000000000000000000000BF
:1001400000000000000000000000000000000000AF
:10015000000000000000000000000000000000009F
:10016000000000000000000000000000000000008F
:10017000000000000000000000000000000000007F
:10018000000000000000000000000000000000006F
:10019000000000000000000000000000000000005F
:1001A000000000000000000000000000000000004F
:1001B000000000000000000000000000000000003F
:1001C0000348044B834202D0034B03B118477047E6
:1001D000381E0020381E002000000000064B074992
:1001E000C91A891048BF0131491003D0044B0BB123
:1001F00001481847704700BF381E0020381E0020F5
:100200000000000010B5064C237843B9FFF7D8FF73
:10021000044B13B10448AFF300800123237010BDD9
:10022000A01E002000000000F8CB020008B5054B1E
:100230001BB105490548AFF30080BDE80840FFF752
:10024000CDBF00BF00000000A41E0020F8CB0200BC
:1002500038B5022005F053FB2F4B0121186005F043
:1002600055FB4FF4867005F04AFB2C4C01212060B1
:1002700005F04CFB0121206805F066FB4FF482700D
:1002800005F03DFB264C0121206005F03FFB0120DD
:1002900005F035FB234D0121286005F037FB0121D6
:1002A000286805F051FB01224FF4E13108231E4874
:1002B00005F0BFFB1D4B186005F0FDFB01224FF45C
:1002C000E13108231A4805F0B4FB1A4B186005F019
:1002D000F2FB1949194805F089FA194B186005F025
:1002E000C6FA0021206805F02FFB164805F03EFBFA
:1002F000154B186005F042FB0021144805F0EEFA9A
:10030000134B00211860134805F06EFB124B186068
:10031000BDE8384005F07FBBF81E0020F41E002029
:10032000F01E0020EC1E002074560200E41E002087
:1003300034560200E01E002020A10700B45602003F
:10034000E81E002054570200DC1E0020F856020070
:10035000D81E002090570200D41E00200379022BE3
:1003600002D0042B05D07047044B017A186805F0C1
:10037000C9BB024B017A186805F0ACBBE41E002033
:100380000379042B08D0802B0BD0022B0CD1074B08
:10039000017A186805F0B6BB044B017A186805F0BD
:1003A00099BB0122024B1A70704700BFE01E00206B
:1003B000D01E002010B482880346B2F5806F10D1A1
:1003C000094C41692246006A42F8041B596A9B7E27
:1003D00003C2A381054B214618685DF8044B05F064
:1003E00055BA5DF8044B7047BC1E0020E81E002083
:1003F000014B186805F017BBD41E00207047FFFFA3
:10040000024B0179186805F06FBA00BFD81E0020B2
:100410000378032B06D8DFE803F0080A0602054B31
:1004200001221A707047044BFAE7044BF8E7044BBB
:10043000F6E700BFCF1E0020CE1E0020CD1E0020FC
:10044000CC1E002070B51049064608F017F9054685
:10045000C0B930460DF08EFC0C4B044618600C4BB6
:100460000246314618460DF00FFC0A22094B0A4E8F
:1004700002550146621C1868357005F0F8FA3378A9
:1004800003B9FEE770BD00BFB83E0200FC1E0020AD
:10049000001F0020E01E0020D01E002008B5FFF73E
:1004A000D7FE0321024802F0B7FF00F0FFF9FEE794
:1004B00045040100022803D10249034801F06CBC45
:1004C000704700BFF8570200C82000207047FFFFA8
:1004D00010B5044CD4E90023501C43F10001C4E9D9
:1004E000000110BDC02000200220024A024902F093
:1004F0009BBF00BFBE3E0200D53E02000346024A3B
:100500000320024902F090BFDA3E0200D53E02000D
:10051000009A0346CDE900120020024A024902F087
:1005200083BF00BFF43E0200D53E020008B5054A75
:1005300003460549022002F077FF044A136801339D
:10054000136008BD2A3F0200D53E0200182000209B
:100550001C4C08B502201C4A1C4902F065FF2369A7
:1005600002201B4A194902F05FFF23680220194A42
:10057000164902F059FF63680220174A134902F036
:1005800053FFA3680220154A104902F04DFF4FF0B7
:100590005A33134822460021E3600068142307F011
:1005A000C7F84FF47A7005F089F9BFF34F8F0D4902
:1005B0000D4BCA6802F4E0621343CB60BFF34F8F68
:1005C00000BFFDE700200020443F0200D53E0200AE
:1005D000693F0200803F0200903F0200A03F0200FE
:1005E0001420002000ED00E00400FA0537B50546B0
:1005F000CDE900131446034613490220134A02F0C2
:1006000013FF284612490BF0E1FF30B91CB9114A1B
:1006100013680133136003B030BD28460E490BF058
:10062000D5FF30B9002CF6D10A4A53680133536024
:10063000F1E7284609490BF0C9FF044301BF054A09
:10064000936801339360E6E7D53E0200B03F0200B5
:10065000E83F020000200020EB3F0200EF3F0200D5
:10066000014BD3E900017047C02000201FB5224C88
:10067000206830B9214A224904B0BDE8104002F098
:10068000D3BE02461F4903F03CFA1F4A13690133E7
:10069000136100221D4B11461B6802931C4B1B88E3
:1006A00001931C4B1B68009320681B4B03F032FA2C
:1006B0001A4B01221B6800210293194B1B680193FE
:1006C000184B1B6800932068134B03F023FA164B5A
:1006D00002221B6800210293144B1B680193144BE8
:1006E0001B6800932068134B03F014FA206804B0D1
:1006F000BDE8104003F058BAA8200020F33F0200E4
:10070000D53E02009804002000200020CC040020E8
:10071000D0040020D404002012400200C0040020B5
:10072000C4040020C8040020BC040020B40400203D
:10073000B804002018400200002330B5934201D1D4
:10074000012030BDC55CCC5CA54201D10133F5E789
:100750000020F6E770B50646A2B00220464A474997
:1007600002F062FE03230220454A4449009602F04B
:100770005BFE02207368434A404902F055FE0220A6
:10078000B368414A3D4902F04FFE0220B3893F4A17
:100790003A4902F049FE3E4C022033693D4A37494E
:1007A00002F042FE02AD0220337D3B4A334902F0A3
:1007B0003BFE0FCC0FC50FCC0FC50FCC0FC594E877
:1007C0000F0085E80F0002230293B3683049C3F39A
:1007D00007228DF80C308DF80D20C3F30742C3F3C8
:1007E00007638DF80F3073688DF80E20C3F307226E
:1007F0008DF810308DF81120C3F30742C3F307635F
:100800008DF81330B3898DF812208DF8183001223D
:10081000C3F3072321488DF8193001F035FE054652
:1008200040B100201E4A154902F0FEFD4FF0FF3096
:1008300022B070BD4023164A184802A901F0ECFD11
:1008400018B12846174A0D49EEE7114E12AD0FCEEA
:100850000FC50FCE0FC50FCE0FC594E80F0085E86A
:100860000F00402202A912A8FFF766FF10B90E4A36
:100870000249D9E70120DBE71F400200D53E020014
:1008800044400200554002006640020073400200EE
:10089000C00400087E40020096400200B021002003
:1008A000A3400200C4400200E54002002DE9F047E9
:1008B0005E4B86B0186800225D4905F0A8F85D4AD5
:1008C00002205D4902F0B0FD5C495D4801F01EFD6B
:1008D000012202215B4801F01FFE5B4B5B481A6856
:1008E0005B4B5C4E196806F013F8584806F080FE22
:1008F00006F084FE306006F087FE4FF4BC224FF411
:10090000E221306806F0FCFE4FF416324FF48031DD
:100910008146306806F0F4FE4FF480524FF4A02177
:100920008046306806F0ECFE04464B4B14221860FB
:10093000002101A80BF09EFD14230021204601AAEE
:1009400006F007FF049BB3F15A3F05D1434D01ACBC
:100950000FCC0FC523682B60414FDFF844A1414DF8
:100960003A68DAF80010284606F022FB284606F01E
:1009700091FF044602F064FF3B4A106040B93B4AD5
:100980002D4902F051FD4FF47A7004F097FFE7E72C
:10099000306838B9364A284902F046FD012006B0D1
:1009A000BDE8F0870022334B114610461B6807F064
:1009B000C9F8314E0246306008B9304AEBE70021F1
:1009C000082006F09DFC2E4F386008B92D4AE2E75A
:1009D00003F046FD2C4B0146186008B92B4ADAE7B4
:1009E0004A46204603F038F8294D286008B9294ABC
:1009F000D1E7294C41460023284A03F079F8D4E98D
:100A00000089FFF733FE306807F0DCF8D4E90023F3
:100A1000A2EB0802002A05DD0121386806F016FD68
:100A2000D4E90089286803F0E5F8ECE7D41E00203B
:100A3000D104010007410200D53E020040570200E8
:100A4000B021002034570200F41E00201C2000209A
:100A5000DC1E0020B42000201420002000200020F4
:100A6000E41E00204C200020B02000202041020085
:100A70003F410200E81E0020BC2000205D41020032
:100A8000B82000207F410200AC2000209C410200E1
:100A9000A8200020BE410200C02000205507010010
:100AA000F81E002008B5FFF7F9FC002008BDEFF3A1
:100AB0000380103840B27047C0E90A32416200201A
:100AC00070477FB5836A05460E4601ACA3B193E833
:100AD000070084E807006A68184612781E711A60D9
:100AE000EA6A9A606A6A9047AB6A1BB194E80700A9
:100AF00083E8070004B070BD2346ECE7002310B57F
:100B00000360436804465B691BB19A681868126AFF
:100B1000904763681B691BB19A681868126A90470E
:100B2000636893F90200002801DB02F06BF9636847
:100B300093F90100002801DB02F064F9636893F97E
:100B4000030002F05FF9636893F9040002F05AF9B8
:100B50000020A268137823F040031370A368DA78AA
:100B6000D87010BD2DE9F74F0B78DFF81C820F69A4
:100B70001B0204460D469844002F40F0CC806B6960
:100B8000002B40F0DE806560AB696362EB69E36275
:100B90000023A3622B7803F5800303F58D531B021A
:100BA000A3606F7A697BB7FA87F3EA7A090341EAAF
:100BB0004201AA7A5B0911432A6A4FEAC30C92F8F0
:100BC00000E04CF0B0061801BEF1000F40F0D280FA
:100BD0002D780DB941EAC31153785D0126EAC31699
:100BE00045EA43053543D37896789E40009621F038
:100BF000700611791B0119B102290CBF3021202187
:100C000092F805C0BCF1000F06D0BCF1010F14BF73
:100C100040F0010040F0030092F808C092F806A0EE
:100C20000CF0030C43EA8C033343002F40F0A58003
:100C300092F809E092F80AC0D67A43F46043EFF3E1
:100C4000108B4FF0010888F31088DFF84091D9F835
:100C50000470019767683F78C7F1130708FA07F82F
:100C6000019F27EA0807C9F80470D9F804708BF3CC
:100C70001088A768EDB297F803804FF0000887F856
:100C80000380A768C9B23D70A5689DF800705FFA3F
:100C90008EFE6F70A5685FFA8CFCA970A168D2798E
:100CA000F6B28A72A268C0B282F80CE0A2689BB267
:100CB00082F80DC0A2689673A268D073A2681382EE
:100CC0001022A36883F820A0A36883F8212063681A
:100CD00093F90200404503DB2246997902F0A2F81D
:100CE000636893F90100002803DB2246597902F07A
:100CF00099F863682246197A93F9040002F092F891
:100D000063682246D97993F9030002F057F81D4B26
:100D10000026236011E04FF000627B681B681A60B8
:100D20007B681B68C3F80880BB68D7E900011B68B3
:100D30009847064600283FF422AF304603B0BDE88E
:100D4000F08F4FF400215A68126811605A681268D7
:100D5000C2F804809A68D3E90001126890470646F9
:100D600000283FF410AF002FE7D0BB6838681B6A3B
:100D70009847E2E74CF0B1062EE70026B446B646A7
:100D80005DE700BF4950535204A0114000400840A5
:100D9000F8B50E4681681D460978044611F04001F9
:100DA0009DF8183040F0C780C0E90511C0E9036222
:100DB000C56180F8203040684769B7B9626894F827
:100DC00020301169002953D1A06894F82010C37A0B
:100DD000028A0F29DBB292B200F29680072994BFF3
:100DE00043F0400323F0600395E0A5610F2B4069B9
:100DF00034D9436802201B68D97860F30511D97093
:100E0000022063685B695B681B68997860F3830103
:100E100099706368A9B25B695B681B68D981636874
:100E20005B695B681B689A606AB963685B695B6849
:100E30001B68997862F38301997063683F4A5B6924
:100E40005B681B689A6063685B69D3E90112186884
:100E50005268096890470028B0D0F8BD072B88BFBA
:100E6000012140680068C37861F30513C370C7E7C8
:100E700065610F2B12693AD9022153681B68DA7831
:100E800061F30512DA7002216368ADB21B695B6819
:100E90001B68DA7861F38302DA7063681B695B6848
:100EA0001B68DD8163681B695B681B685E606EB9E7
:100EB00063681B695B681B68DA7866F38302DA7023
:100EC00063681F4A1B695B681B685A60A2681378D5
:100ED00023F02003137063681B69D3E901121868BB
:100EE00052680968904700283FF46EAFB5E7072BBA
:100EF00088BF012152681268D37894BF23F0300371
:100F000061F30513D370BEE7013123F04003890874
:100F100043F020030539DBB2C37222F47062A0688B
:100F200042EA01239BB20382A2680020137843F0B7
:100F30006003137091E708208FE700BF482200206C
:100F40004422002007B5009313460A460021FFF70C
:100F50001FFF03B05DF804FB07B5009313460022A2
:100F6000FFF716FF03B05DF804FB10B49DF80440D2
:100F700001945DF8044BFFF70BBFFFFF10B5FFF7BF
:100F800096FD044601F0FAFE134B53F82420D2E9F3
:100F900006318B4206D1BDE81040536893F9030037
:100FA00001F01ABF1169906831B94168D169013304
:100FB00099429361EFD010BD92F820400F2C03D9D5
:100FC000406841F82300F1E7072C95BF007980883D
:100FD000C85421F81300E9E74C22002010B5FFF7B0
:100FE00066FD044601F0CAFE194B53F824406368BD
:100FF0001A6A5AB15278012A08D1E2696169013A44
:101000008A420ED193F9030001F0F2FE6369E269AE
:10101000934205D0D4E902125AB94A6001336361A0
:1010200010BD1A69002AF1D093F9030001F0D4FE33
:10103000ECE794F820000F2802D952F82320ECE7BF
:10104000072895BFD25C32F813200A718A80E5E741
:101050004C22002038B5FFF72AFD054601F08EFE30
:10106000134B53F82540A368DB789B0703D56368CF
:101070005B7A012B1BD1284601F0C4FE636893F90B
:101080000200002801DB01F0BDFEA268137823F006
:1010900040031370636893F90200002801DB01F03C
:1010A000A7FE2046BDE838400121FFF70ABD38BD44
:1010B0004C22002070B5FFF7FAFC1A4B054653F896
:1010C0002040636893F90200002801DB01F09AFEDA
:1010D000A268137823F040031370636893F9020049
:1010E000002801DB01F084FE0021A268D378D170D2
:1010F0001A07DEB203D505212046FFF7E2FCF3070D
:1011000003D504212046FFF7DCFC06F01406142E5C
:1011100003D108212046FFF7D4FC2846BDE87040E3
:1011200001F02CBE4C220020EFF30380103840B2B7
:101130007047C0E905120020704710B5046AA37813
:1011400003F07B03A3700378E3B9837803F0030310
:10115000D21A0B44C0E90332026A937843F0800349
:101160009370037863B98378026A03F00303022B58
:1011700009BF0B880B7843F47E43D38118BFD3702B
:10118000002010BD0B46E5E7C0E90A3241620020AD
:1011900070474FF0FF330020C1E900337047826988
:1011A000034600200A6098617047F0B5846A85B0F4
:1011B00006468C4617466D46B4B194E80F0085E8A4
:1011C0000F00F36920461B78C4F808C0236027711C
:1011D000F36AE360736A9847B46A1CB195E80F003C
:1011E00084E80F0005B0F0BD2C46EAE738B50025CD
:1011F0000446036A45609D70C36993F9050001F0D8
:1012000001FEE36993F90B0001F0FCFDE36993F93A
:10121000070001F0F7FDE36993F9090001F0F2FD21
:10122000EFF31081012383F31088E369064A1C78E9
:101230004FF000435068E34003435360536881F329
:101240001088284638BD00BF0040084070B51446DD
:101250000D460646104601F0D5FD204601F08EFDF4
:10126000324629462046BDE8704001F0A7BDFFFF89
:1012700001222DE9F0410B7804469A4012F0060F46
:101280000D4605D0CA6952681278110700F1F68040
:10129000002640F219274FF0010803F5800303F5FB
:1012A0008C531B02267023622B78E56127FA03F327
:1012B00003F001031B0123706B6920466362AB6975
:1012C000C4E90A63A37868F30103A3706B78B3429F
:1012D00014BF42460222A37862F30103A37095F97A
:1012E0000B20A97AFFF7B2FF204695F9052029794E
:1012F000FFF7ACFF204695F90720A979FFF7A6FF75
:10130000204695F90920297AFFF7A0FFEFF3108016
:1013100088F310884FF00041594B95F800C05A6887
:1013200021FA0CF122EA01025A605B6880F310880E
:10133000236A9E70236A1E71236A5E72236A9E72FC
:10134000236ADE72236A5E832B78DF40FB0742BF8D
:101350004022236ADA740622236A1A772278AAB115
:10136000E369013ADB69216A1B7A13401B0212030D
:1013700092B203F47063134343F0010243F0070396
:101380008B82216A8B8A9BB29A42FBD1EB78AA7836
:10139000DB0043EA02136A78032A54D1F22243F0B5
:1013A0004003216ADBB20B70236AD2B29A71EA69F8
:1013B0000020137B216A082B0EBF0A235B0003F079
:1013C00002034B7353789178DB01490101F020014E
:1013D000DBB20B43216A0872117802390129216AB4
:1013E00036D8FF2048701278022A08BF43F0100355
:1013F000226ADBB2D3710026C4E90366C4E905663C
:10140000E369EF6993F905003D7801F0F1FCE369C8
:1014100005F0030593F90B0001F0EAFCE36945F0E0
:10142000700593F9070001F0E3FCE36993F9090003
:1014300001F0DEFC3046236A9D707B892381114BCD
:101440006360BDE8F081002A0CBFE222F222A8E727
:10145000DBB2CB715268236A917859705078197851
:1014600060F301011970D1789974D979127801F07B
:10147000A30102F05C020A43DA71BCE70320E0E753
:1014800000400840554943530346880719D5186A58
:10149000827802F07B0282701A7842B1186A828ADE
:1014A00042F004028282186A828A5207FCD4002029
:1014B0001861CA0711D500229A611A781AB900205A
:1014C00070470620F5E7196A8A8A42F002028A828A
:1014D0001A6A938A9B07FCD4F1E7704770B5C2691A
:1014E000034610780122824012F0060F02D00A78DB
:1014F00012071DD4186A827802F07B0502F00B02F5
:1015000082700020D8601A6A8C7854704E781478F3
:1015100066F301041470CC789474D479097804F0DB
:10152000A30401F05C012143D1711B6A9D7070BD61
:101530000320FCE738B5FFF7F7FD044601F01EFC79
:10154000304B53F82400C3691B6913BB0269036A5B
:1015500062B90021026A937803F07F0343F0040329
:101560009370436AC160002B46D138BD0278002ACF
:101570002BD0DB8A244CC3F304230278016A9A42FD
:1015800001D902694AB90B7903F07D0343F00203E4
:101590000B710369002BE8D1DBE78278C56802F0A4
:1015A0000302022A09BF2A882A78224392B20CBF7A
:1015B000CA81CA738278016902F00302891A016143
:1015C000C16801331144C160D7E78278C16802F075
:1015D0000302022A09BF0A880A7842F47E42DA81AD
:1015E00018BFDA708378026903F00303D21A02612C
:1015F000C2681A44C260CCE78022BDE83840FFF7D9
:10160000D4BD00BF4C22002000FEFFFF13B5FFF742
:101610008BFD044601F0B2FB1F4B53F824402278A7
:10162000236ACAB1DA8AD20611D0198AC1F3080135
:10163000A3690191C3B9636A1BB104222046FFF775
:10164000B4FD237833B1236ADB8ADB06E7D1BE22FF
:10165000236A1A7102B010BDA27802F00302022AB6
:10166000E3D05979C9B2E3E7A27801A902F00302F5
:1016700060690CF009FBA3786269A16903F00303B8
:101680001A44C91A6261A1610029DAD1636A002B88
:10169000D7D00122D2E700BF4C22002010B5FFF7BF
:1016A00043FD0A4B044653F82000026A937803F086
:1016B0007B039370436A1BB102220021FFF775FD83
:1016C0002046BDE8104001F059BB00BF4C2200206D
:1016D00038B5FFF729FD144B044653F82000027873
:1016E000036A22B9827802F00302022A19D1198A08
:1016F000C1F308011D7905F03802ED0604D51D7F00
:10170000ED0758BF42F040021D7905F0C7051D7175
:10171000436A0BB1FFF749FD2046BDE8384001F0B0
:101720002DBB5979C9B2E5E74C220020EFF30380C5
:10173000103840B270474160027200207047C0E923
:101740000E32416300207047C368034A00209A1A92
:10175000534253410B7070474332495330B50346EF
:1017600002690020F02190701A6990701A69D17294
:1017700093F82A2083F8300083F82C20DA69186265
:1017800083F82E005A62D860EFF31081012282F3B1
:1017900010881B68054A1D784FF000435468EB40E1
:1017A00023435360536881F3108830BD00400840E4
:1017B0000023C26980F82F3080F8313080F8333050
:1017C00080F82C304362026290F82D3090F82A2085
:1017D00080F82B2013B1012380F83130B422036943
:1017E0009A7090F83020036912B95122DA7270476A
:1017F000002280F8302090F82A20012A0CBF90F8AF
:10180000282090F82920DA7090F82B30013B80F8DE
:101810002B3090F82C30013380F82C30704708B50D
:10182000C0E90612027A80F82E30012A08D100237E
:1018300080F82930436880F82A205B0080F828303F
:10184000002180F82D10FFF7B3FF084608BDFFFF09
:10185000F8B500260B78016003F5800303F58C537F
:101860001B0203618B68044643600B7B0D460372C9
:10187000CB6943630B6A8663C363EFF31080012374
:1018800083F310880F784FF00041284BF9405A68D5
:1018900022EA01025A605B6880F31088F022236814
:1018A000596A23699E702369DA728B78226903F082
:1018B00003031370FA2223699A7123694A785A70D4
:1018C0000B7822699B0043F02003DBB2D3712369BC
:1018D0004A791A722369CA789A740B792269DB00F3
:1018E00043F00103DBB25372232223699A72236906
:1018F00022465E73697B95F90F0001F093FA95F922
:1019000010002246697B01F08DFA094BC4E9066696
:10191000C4E9086684F82D60E36084F82E6084F8DA
:101920002F6084F830603046F8BD00BF00400840AA
:101930004332495308B5C0E90612027A80F82E30C6
:10194000012A0AD1002380F82930436880F82A2030
:101950005B0043F0010380F82830012380F82D302C
:10196000FFF726FF002008BD034602690020F02192
:1019700090701A69D17293F82A2083F8300083F8A6
:101980002C20DA69186283F82E005A62704737B546
:10199000836B04460A466D468BB193E8030085E8E5
:1019A0000300E16B1A7119601846626B9047A36BD4
:1019B0001BB195E8030083E8030003B030BD2B465C
:1019C000EFE7FFFF10B5FFF7B1FE01F0D7F9FFF722
:1019D000ADFE3A4B53F820301A69117BC1F3000079
:1019E000C9074FD493F82C1093F82A408C4215D095
:1019F00093F82D0020B1022902D15223D3720CE0BA
:101A000093F82810D17093F82B20013A83F82B20FB
:101A100093F82C20013283F82C2010BD196A41B3B1
:101A200093F82D404CB95A6A98690139805C0132AB
:101A300019625A621B69D870EFE793F831406CB1B4
:101A4000012983F8310004D120211A699172FF2005
:101A5000F0E790721A6A012AF9D1F5E7507999698D
:101A60005A6A88541A6A013A1A625A6A01325A62E8
:101A7000F0E793F82E1081B15221D172012283F840
:101A80003020CAE793F82D1011B193F8311031B11D
:101A900000211962012183F82F105423AEE75079F9
:101AA00099695A6A88541A6A93F82E10013A1A6290
:101AB0005A6A01325A621A69DDE700BF4C220020DF
:101AC00010B5FFF733FE2D4B53F820000269D37A8F
:101AD00023F00803D37290F82F2002F0FF0332B1F5
:101AE000F02201210369DA72FFF751FF1BE090F841
:101AF0002A1090F82C20914229D0D2B901290CBF8C
:101B000090F8283090F8293000210269D1720269DA
:101B1000D37090F82B30013B80F82B3090F82C30AC
:101B2000013380F82C30FFF701FEBDE8104001F0D2
:101B300025B990F82D1001F0FF0431B1022AE3D14C
:101B400090F8293043F00103DEE72346DCE7026A20
:101B5000002AE8D190F82D1090F83040C1F103012F
:101B60000369C9B20CB1DA72BEE7F022DA72026917
:101B7000937803F0CF039370B6E700BF4C220020A8
:101B800003460020186070470B0A1B0153FA81F1CD
:101B9000034B002053F82130C3F340031370704708
:101BA00000080840090A490101F1804101F50021BE
:101BB0004B68002013807047090A490123EA02009C
:101BC00001F180411A4042EA004201F50021002063
:101BD0008A6070470120CBB2984010B580B262B9DC
:101BE000044610460B0A5B0103F1804340EA0440BF
:101BF00003F500239860002010BD0024F2E710B523
:101C0000090A490101F1804101F500210C6802EA4D
:101C10000300204362EA030202400A60002010BD74
:101C2000090A490101F1804101F500214B680020BA
:101C3000C3F30F43138070470B0A5B0103F180432A
:101C400003F5002358680123C9B28B4099B203EA17
:101C50001043591A4B424B41002013707047090A38
:101C6000490123EA020001F180411A4042EA0042A0
:101C700001F500210020CA60704710B501240B0A4D
:101C80005B0103F1804303F50023C9B28C40D9689E
:101C9000012A4FEA04400DBF8143A1430143214380
:101CA000D960002010BDFFFF030A11F4803F30B55A
:101CB000094AC0B24FEA03130AD01C1852F8245044
:101CC00025F4803542F8245021F4803542F8245020
:101CD000034442F8231030BD000808402DE9F84FB6
:101CE000074600264FF0010B1E4C3B88B34201D83B
:101CF000BDE8F88F4FF00008DFF86CA04FEAC60986
:101D00007B683AF8022B03EB09018988914218D1CC
:101D100053F809300BFA08F503F0B853B3F1807F9C
:101D2000EDB294F8BB3413D12B420AD1012001F05B
:101D3000F9F894F8BB342B43012084F8BB3401F04C
:101D4000C5F808F10108B8F1030FD9D10136CCE785
:101D50002B42F6D0012001F0E5F894F8BB3423EAD9
:101D60000503E9E700E00140F059020038B50546F7
:101D70000024FFF7B3FF2A88A3B29A4200D838BDE7
:101D80006B68A2B203EBC20053F832108088FFF7F1
:101D90008BFF0134EFE7FFFF08B5034B03600846F4
:101DA000FFF7E4FF002008BD54524F5008B5084625
:101DB000FFF7DCFF002008BD012330B50C461546B7
:101DC00087B0ADF80C3003A801ABADF80810019254
:101DD0000493FFF783FF20462946FFF765FF0020A5
:101DE00007B030BDD0E9023200209A607047D0E9D8
:101DF000023200205A607047D0E902320020DA60D7
:101E0000704730B543688568DB6999685A6841F066
:101E10000044D9686C61846841F00041A161816827
:101E200042F000420A6182681969516282685B6906
:101E30000020936230BD8368013999668368DA6A4D
:101E4000D2075CBF5966D0E902324FF0000058BF9C
:101E5000DA6070470620704783681232013903EB5D
:101E600082030020596070478368DB6AC3F3000374
:101E70000B71836800209B6C0B607047C0E90632D1
:101E80004161002070474FF000438268136182680F
:101E9000536182689361002382685362826893620F
:101EA000704708B5FFF7EFFF002008BDF0B5836964
:101EB00085B005460F46164601AC93B193E807007E
:101EC00084E807001F719E60EA6918461A606A6913
:101ED0009047AB691BB194E8070083E8070005B0A1
:101EE000F0BD2346EEE7002801DB00F09BBF704702
:101EF0000122F8B50B7C0D4602FA03F313F00F0F25
:101F0000C3600CBF1346002341600374097C494B36
:101F100004460B441B0283606B694361AB69C36178
:101F200000238361EE69EFF3108782F310884FF08E
:101F30000040414A95F810C0116920FA0CF021EADE
:101F400000011161126987F310884FF42541A268DE
:101F500020461160A268D362A268D363A26893642A
:101F60002A782B7A032A4FEAC353A26808BF43F4A6
:101F700080336968D362FFF786FFA368B2690139CD
:101F8000DA61A368F2691A62A3689966A368596660
:101F90006368B26BDB6993F83010C80741BF996A78
:101FA000A06801F1FF31C16493F83010890741BF87
:101FB000DB6AA16803F1FF330B650023A1688B6323
:101FC000A168C1F88830B36B3BB996F8213096F818
:101FD00020105B0743EA41331A4396F83030002B58
:101FE00014BF4FF4A0014FF4AA01A3681964A368B9
:101FF0005A630322A3681A630122A3681A63D4E90F
:102000000232DA60697C224695F91200FFF76BFF15
:10201000224696F8221096F92400FFF764FF96F9FD
:102020002500224696F82310FFF75DFF034B0020A2
:102030002360F8BD9016400000400840545047000F
:1020400010B5041E05DB00F0DDFE0022014B43F855
:10205000242010BD4C22002038B543680446DD69B9
:1020600093F91200FFF7ECFF95F92400FFF7E8FF62
:1020700095F92500FFF7E4FFD4E902320020206043
:102080009A60A368586338BD10B583685B6E0133EE
:102090008B608368D86A094BC0F3C3501A6A084B37
:1020A000C2F302641B6802F00702A340D340C3409E
:1020B0004B60012300200B7010BD00BF00E0014009
:1020C000981E002038B5EFF30385103D6DB2284609
:1020D00000F054FE0E4B53F8254063681B78012B2B
:1020E0000CD1D4E902329A600023A2682846936496
:1020F000A268D364A268136500F04EFE636933B131
:1021000000222046BDE838401146FFF7CFBE38BD5B
:102110004C220020054B0020B3F8843003F08103EB
:10212000003B18BF01230B70704700BF00E07F40E9
:102130000620704706207047062070470B46064A67
:1021400092E80300054A83E8030092E8030008339D
:1021500083E8030000207047B45A02009C5A020032
:10216000C0E90F3281630020704737B5C36B044666
:102170000A466D468BB193E8030085E803001A70A8
:10218000226C18465A60A26B9047E36B1BB195E82E
:10219000030083E8030003B030BD2B46EFE7FFFFE9
:1021A00070B5002643680660044693F91100B042FA
:1021B00001DB00F027FE064D2E76636893F91300CD
:1021C000002801DB00F01EFE0020287570BD00BF56
:1021D00000E07F404FF4964313B5019343680446F3
:1021E0001A7842B193F9110000F002FE636893F986
:1021F000130000F0FDFD4AF680230A4AA2F884305D
:10220000B2F884309BB2802B02D1002002B010BD06
:10221000019B1BB1019B013B0193F1E74FF4FA7065
:10222000F4E700BF00E07F4006207047014601232D
:10223000002030B52C4D81F8340085F816342B4B36
:102240002C6A1B68C4F3026203FA02F2C4F302743C
:10225000E2402C6AC4F30264A340E340244CA2424F
:102260003ED9244C02F5742202F23F22B2FBF4F272
:1022700003F5742303F23F23B3FBF4F302F5F052AA
:102280001D4C92B2A4F8E42043F6B85406225C43F5
:10229000B4FBF2F48C6040F6D8645C43B4FBF2F417
:1022A000CC605C00B4FBF2F40C6154245C43B4FBDE
:1022B000F2F44C61114C5C43B4FBF2F48C6144F2D7
:1022C00050645C43B4FBF2F44C620D4C5C43B4FBD1
:1022D000F2F40C620B4C6343B3FBF2F3CB6130BD01
:1022E0004FF4FB70FBE700BF00E00140981E0020A8
:1022F000FF083D0040420F0000E07F4038AF04007F
:1023000080DE0F00A0F70300FFF790BF70B54160BB
:102310000B7804460D46114EE3B14B6802468363C9
:10232000CB6803640023C36301233376097C95F9EA
:10233000110000F077FD982333752246A97C95F9AA
:10234000130000F06FFD2046FFF770FF08B9044B43
:10235000236070BD33763375F5E700BF00E07F4042
:102360004E45504F11F098BDB1F1006F2DE9F0418D
:1023700007460D4614461E4610D2002087F834004A
:102380001870844202D10020BDE8F0812B5CFF2B45
:1023900002D001233370F6E70130F2E7FFF71AFFAE
:1023A0000028F1D17122DFF86C80631E2B4488F87D
:1023B000D000C8F83050C8F83430154B1A70D0220D
:1023C0001A707B681B7823B1032387F8343002230B
:1023D000E0E7A2087C6902FB0444D8F880301904C5
:1023E00011D54FF4FC72002111F05EFD98F8D43045
:1023F00004465A1E53425341337011F045FD002CE0
:1024000018BF2046C0E70CB1013CE6E71420E8E71E
:1024100000007E4000E07F405B0870B5036300234E
:10242000B2F1006F0446C0E90A1280F8343003D2DA
:10243000BDE8704011F02CBDFFF7CCFE0346F8B9A3
:1024400062681278F2B10122064684F834203246DE
:102450000421204611F02CFD6268034612787AB9F7
:1024600018224FF4805111F01FFD236B05460BB16C
:102470000028ECD011F008FD002D14BF2B460346B8
:10248000184670BDE668E2E70023B1F1006F70B551
:10249000044680F834300AD2BDE87040B1F5803F80
:1024A00034BF6FF30C016FF30E0111F0F9BC21F092
:1024B0003F0181620263FFF78DFE064630BB636811
:1024C0001B780BB3022384F834300122114BA3F89C
:1024D000E02032464021204611F0D2FC62680346DB
:1024E00012787AB919224FF4005111F0DDFC236BF8
:1024F00005460BB10028ECD011F0C6FC002D14BF2E
:102500002B460346184670BD666ADEE74FF4FA7341
:10251000F8E700BF00E07F4011F0AEBC70B5EFF30C
:1025200003841349134B0A7C103C64B2100753F820
:102530002460D1F88010D3B214D41A0614D4DB0668
:1025400014D511F4405F14BF07250625304611F05D
:10255000A3FC204600F012FC29463046BDE870403E
:10256000FFF703BE0425F1E70525EFE70725EDE7B3
:1025700000E07F404C22002038B5EFF303801B4B76
:10258000103840B253F8204000F0F8FB94F8345073
:10259000012D0CD1236BE3B100220421204611F060
:1025A00087FC08B32046BDE8384011F075BC022D09
:1025B00008D1256B6DB12046BDE83840002240218E
:1025C00011F05EBC0A4B93F8D430012B14BF0225E6
:1025D000032511F059FC002384F8343029462046A5
:1025E000BDE83840FFF7C1BD38BD00BF4C22002018
:1025F00000E07F40EFF30380103840B270470620C0
:10260000704742680020B2F842389BB20B6092F8E3
:102610004E384B7392F84F380B7392F8503803F0E2
:102620007F030B6183F07F0382F850387047C0E965
:102630000832C16100207047F0B5D0F820C00746CD
:102640000C468BB0BCF1000F13D06E4665460FCD23
:102650000FC60FCD0FC695E8030086E803000FCC28
:1026600066460FC60FCC0FC694E80300644685E8A3
:1026700003002046FB6998473C6A44B16D460FCD84
:102680000FC40FCD0FC495E8030084E803000BB01E
:10269000F0BDFFFF70B5002504460368856093F91F
:1026A000150000F0AFFB236893F9160000F0AAFBB9
:1026B000236893F9170000F0A5FB636883F84C5872
:1026C000C3F82C54EFF31080012383F310882168A2
:1026D000064A09685668C1F102018B4033435360D2
:1026E000536880F31088284670BD00BF0040084042
:1026F000002808DB01224309034900F01F00824043
:10270000403341F82320704700E100E0B0F8403842
:1027100023F48063A0F84038B0F8403861F309230F
:10272000A0F840380902B0F8423803F4E0638B4265
:10273000F9D1704770B5437B044693420D46466815
:1027400008D002213046FFF7E1FF022386F858281F
:1027500062732373237BAB4210D0052D60680ED1CA
:102760000221FFF7D3FFB6F8403843F48063A6F8A0
:102770004038B6F842385B05FBD5257370BD294655
:10278000FFF7C4FFF9E708B5FFF7D4FF002008BD45
:1027900010B5146818B1022812D113794BB900236F
:1027A000084800EA84405279034343EA82730B608D
:1027B00010BD581E43424341DB0724F06040F2E75E
:1027C0000023FAE70000FC1F2DE9F8430C68D1F85C
:1027D000108004F58024A834240305460E46446086
:1027E000EFF3108C012181F310885D4A336857683C
:1027F000C3F1020301FA03F327EA030353605368AA
:102800008CF3108800270660B3683A46C361F3680A
:102810000762436298F8003004F500790376FFF709
:1028200089FF98F8143098F80C10DB0043EA410354
:1028300043F4E073A4F8403870684368591E836815
:10284000013B1B0243EA0173C1680068013943EA96
:102850000133297E01380B43424901EA00410B4311
:1028600028460221C4F84438FFF764FF80234FF460
:1028700000723946484684F8503809F0FBFDD8F814
:10288000082002EBC7029379002B4FD1D8F8101023
:10289000B94206D998F80C0009EB0711FFF778FF49
:1028A0004023E2190137202F82F82038E7D1002396
:1028B0006FF060471A464FF00F0CDFF8B0E0D8F821
:1028C0001010B3EB910F33D3D243C4F82824002265
:1028D00028461146FFF72EFFB4F8403843F0200396
:1028E000A4F84038B4F84038C3F340179B06F9D435
:1028F0002A46317D96F9150000F094FA2A46317D7A
:1029000096F9160000F08EFA96F917002A46317DE6
:1029100000F088FA3E2384F84C384FF0FF33C4F8B7
:102920002C34114B3846AB60BDE8F8830023B8E780
:10293000D8F80410980051F82310B9420DD298F835
:102940000C90B9F1000F01D10EEA814103F58079B5
:1029500044F829100CFA00F10A430133AFE700BF35
:10296000004008400000FF034E4143520000FC1F9E
:10297000F8B5456814466E1896F82038DB091DD165
:10298000036820311B690F01187B05EB0111FFF76C
:10299000FFFEA2798B88053762F303038B80A3794E
:1029A0003D440C34013B04D28023002086F82038BB
:1029B000F8BD14F8012B05F8012FF3E74EF663205C
:1029C000F6E7FFFF30B58BB0FFF714FE00F0D6F945
:1029D000FFF710FE224B282253F8205000216846B2
:1029E00009F048FD00206C6894F84D2884F84D08E3
:1029F000D2B2ADF80420B4F84218C1F30013C906EE
:102A000016D5022342F02002ADF8042094F8532892
:102A100084F8533894F85238D2B203F01F0384F884
:102A20005328E11891F8202860F3820281F82028C9
:102A30002A6869461268284600926A6ACDE903321C
:102A4000FFF7FAFDB4F84238DB0607D52B681A69A0
:102A5000127D1AB193F91500FFF74AFE0BB030BD95
:102A60004C220020F0B58BB0FFF7C4FD00F086F9D2
:102A7000FFF7C0FD304B054653F820004FF480634C
:102A80000022ADF80430446894F8533884F8532891
:102A900094F85228DBB284F8533802F01F024368DE
:102AA00002F120073E019959C1F3807C8DF819C0CD
:102AB00053F806C006683669367B46EADC7606F0CF
:102AC00001068DF818605EBBC1F38A4103EB07175E
:102AD0000591B988002601F00F01082928BF0821B7
:102AE0000DF11F078DF81A1003EB021C8E421AD34A
:102AF0004421134483F820180023039207930368AA
:102B000069461B680093436A0493FFF795FDB4F888
:102B10004238DB0702D52846FFF7EAFD0BB0F0BDCF
:102B200021F06041D2E70CEB060E9EF806E201367A
:102B300007F801EFDAE700BF4C22002030B58BB078
:102B4000FFF758FD00F01AF9FFF754FD0022184B6B
:102B5000ADF8042053F8205001236C68284694F8FF
:102B6000531884F8533894F85238C9B203F01F034D
:102B700084F853180393E1184FF4006381F8202878
:102B8000ADF8043081F820282B6869461B68009353
:102B90006B6A0493FFF750FDB4F842389B0704D5E5
:102BA0002B6893F91700FFF7A3FD0BB030BD00BFF2
:102BB0004C220020064B93F826101A6A054BC2F3EC
:102BC000026253F82130D340034A1360704700BFBC
:102BD00000E00140381E0020981E00204AF20352F7
:102BE0002D4B10B5A3F8FE230122A3F50053A3F843
:102BF0000421B3F8040180B20028FAD10124DFF8DF
:102C0000B4C0264AA3F80041254BDFF8ACE0C3E985
:102C100000C24FF40042C3E90220224A1861C3E90E
:102C200005E2FFF7C7FF1C4B83F8804483F83600AA
:102C300093F83C20D107FBD50022174883F83220B7
:102C400090F83C301A07FBD542F211734FF49852BA
:102C5000A0F84830002380F84A30028580F82A30F6
:102C600090F83C309B06FBD501220F4B83F81C21CA
:102C70000E4B0362052380F82630FFF79BFFF122FD
:102C80000B4B1A7300221A72F0221A734FF4254369
:102C9000A0F8FE3310BD00BF00E0014000127A0032
:102CA000381E00200068890900C00140211303215B
:102CB000002000400024F400000E270710B5002477
:102CC000064B012083F8284000F02CF9044B01202A
:102CD00083F8BB44BDE8104000F0F8B8003008406D
:102CE00000E00140704700BEFEE7A0F101000028AF
:102CF000FBD1704710B4104B104A1B684843B2FB1D
:102D0000F3F24FF47A73A0FB03143CB9B1FBF2F376
:102D1000980868B15DF8044BFFF7E7BF9200B0FB7D
:102D2000F2F0A0FB0303002BF3D04FF0FF30F1E7EC
:102D30005DF8044B704700BF981E002000CA9A3B04
:102D400070B500250B4B0C4EB3F82021B3F8404171
:102D5000A4B2144024FA05F3DB0704D556F8253055
:102D60000BB1E8B2984701350E2DF3D1014BA3F812
:102D7000304170BD00600040541E0020054BC03043
:102D800053F8202022F4803243F8202053F82030DA
:102D9000704700BF0060004008B50146FFF7EEFF36
:102DA000BFF35F8F01224B0901F01F018A400249E6
:102DB000603341F8232008BD00E100E0090100F183
:102DC000604303F56143C9B283F80013014B43F834
:102DD000202070474C22002001234109034A00F0C3
:102DE0001F00834042F82130704700BF00E100E03F
:102DF00010B50446FFF7D0FF2046BDE81040FFF7AE
:102E0000EBBFFFFF01220649430900F01F0082408B
:102E1000203341F82320BFF34F8FBFF36F8F7047EC
:102E200000E100E008B5FFF7C9FFBDE80840FFF783
:102E3000DFBFFFFF7FB5032000F074F86FF0FF02E3
:102E40001E4B1F4C9A644FF0FF332546CDE90133EA
:102E500003930126002335F8022B6AB104A95A090D
:102E600001EB820252F80C1C03F01F0006FA00F07E
:102E700021EA000142F80C1C0133602BEBD10199CF
:102E8000104B0E4A03201167C3F880120299516754
:102E9000C3F8841203999167C3F8881200F016F8FA
:102EA0000023094934F8022B1AB103F1C00041F89C
:102EB00020200133602BF5D104B070BD00800040AC
:102EC000D458020000E100E00060004010B5EFF3CC
:102ED0001081012383F310880F4A32F810309BB21F
:102EE0002BB132F81030013B9BB222F8103032F88F
:102EF00010309BB263B9094A094CB2F8FE3334F87A
:102F000010009BB243F4254323EA0003A2F8FE33EA
:102F100081F3108810BD00BF901E002000E001402A
:102F2000F85A020030B5EFF31084012383F31088C0
:102F30000D4A32F810309BB263B90C490C4DB1F810
:102F4000FE3335F810509BB22B4343F425439BB21C
:102F5000A1F8FE3332F8103001339BB222F8103062
:102F600084F3108830BD00BF901E002000E00140B7
:102F7000F85A020008B50B4A0346116809B90A4914
:102F8000116010680333094923F0030303448B42A3
:102F900006D905F045FC0C2303604FF0FF3008BD57
:102FA0001360FCE7CC230020F8470020F8870020BE
:102FB00000BE704708B500F003F8FDF773FDFEE7AB
:102FC0004FF4700270B50024324B334DC3F88820A3
:102FD0009D60324B21461C60314B40221C803148A1
:102FE0005C809C80DC8009F045FA2F4B2F4A2046FC
:102FF0001A60FDF75FFAFFF7F1FD0120FDF75AFABD
:103000002B68A3F5405383F30A882948294A2146AF
:10301000121A09F02FFA2848284A2949121A0AF0E8
:1030200033FE284E284DAD1BAD10AC422DDB0025E4
:10303000FFF7C0FDFFF742FE4023244C0320E5705C
:10304000E370FFF76FFF4FF6FF7303202382638265
:10305000A382E38223836383A383E383FFF736FFA3
:103060000320FFF75FFF1A4B03205D609D60DD606A
:103070001D61FFF72BFF0220FDF71CFAFFF7DAFEB8
:103080002846BDE87040FFF72DBE56F8043B984730
:103090000134CAE700ED00E0000001008C1E0020B2
:1030A000901E0020541E0020981E002000127A005E
:1030B000A01E0020F847002000000020381E00203D
:1030C00028CC02002C1E0020341E0020000D0840D9
:1030D00000000E4070B50D461646044650B91C203F
:1030E00008F02CFE044628B92F210D4B0D4A0E483E
:1030F000FFF7F9FD4FF0FF33681C0025314665618D
:10310000C4E90106E360236109F07EFC25762060B6
:1031100020B90648BDE8704009F0F4BB70BD00BF9F
:1031200068430200005B0200774302009C430200F8
:1031300070B501250576C66843682E44B6FBF3F2E8
:1031400003FB126603690446B3420ED02368C068CD
:10315000A26802FB00300AF097FDE660636928462A
:103160002B4463610023237670BD00202076FBE7AB
:10317000FFF7DEBF38B5044601252576E2682369EE
:1031800008469A4215D02368A268216902FB0131E2
:103190000AF07AFD236962682B44B3FBF2F102FB6B
:1031A0001133236163692846013B63610023237661
:1031B00038BD00202076FBE770B5054610200E468E
:1031C00008F0BCFD044628B90A4809F0DDFA0024DD
:1031D000204670BDC0E9016506FB05F008F0AEFDB4
:1031E000206020B9204608F0B1FD0348EDE7002338
:1031F000E360EDE7AD430200C943020010B50446A9
:1032000070B1D0E9022393420AD2D0E9000202FB56
:1032100003000AF039FD0020E3680133E36010BDCC
:103220004FF0FF30FBE708B1C06870474FF0FF3048
:10323000704730B1D0E90203834234BF002001203F
:1032400070470120704740B1C3688B4204D9D0E970
:10325000000303FB010070470020704738B50446A7
:103260000846B4B1A9B1D4E90051E368A84203F11A
:10327000FF3303FB01520CD390420AD802D1002045
:10328000E36038BD121A014409F074F8E368013BA9
:10329000F5E74FF0FF30F4E730B540B1094B01449A
:1032A0001D6803464FF6FF708B4284B200D130BDDB
:1032B00013F8012B82EA102235F8120080EA04206C
:1032C00080B2F1E7C005002010B5084B0A441C6825
:1032D000914200D110BD11F8013B83EA102334F86C
:1032E0001330000280B25840F2E700BFC005002052
:1032F0000022FF2370B5A0F15701A0F130040D4D5D
:10330000C9B2E4B215F8016B864202D1092A08D885
:103310002346013292B2162AF4D1FF2B18BF184669
:1033200070BDA2F10A03052B96BFA0F137030B462F
:10333000DBB2EEE7C4070020002310B50139C0F16D
:1033400001042218914202DC5842C0B210BD10F8AC
:10335000012F1344DBB2F4E770B502783A2A24D186
:1033600005460024134B1A7042785A7082789A707E
:10337000C278DA7015F8042F1A710F4A9A605A78D9
:10338000A6B2B2420BD8024454791C73FFF7D4FFA3
:1033900084420CD0094809F0B5FA002070BD15F838
:1033A000016F9A6816550134E9E70548F3E70148CB
:1033B000F4E700BFF0230020D0230020E343020005
:1033C000F24302002DE9F84F4FF0000B06460F467E
:1033D00090465C46BC421FFA8BF902D34846BDE8D2
:1033E000F88F16F804A05046FFF782FF8245054685
:1033F00004F1010308D1013CA4B2023408F80950D9
:10340000A4B20BF1010BE5E7F05CFFF771FF40EAB6
:103410000515EDB2F1E7FFFF024B5860197000206F
:10342000704700BFDC0700200CB4F0B50446ADF5D2
:10343000805D85B01F4F03AD0E4641F202020021B0
:10344000284609F017F83B78A3422BD30DF581539A
:103450000C33CDE90163184B4FF4805153F82430FD
:10346000164A0093164B284653F824300AF000FD04
:103470000DF5815208320446029B1268C0F5805156
:10348000281808F023FC04AB0444B4F5805FD4BFD3
:103490001B1903F58053002203F8042C7B680BB141
:1034A000284698470DF5805D05B0BDE8F04002B0B4
:1034B000704700BFDC070020105B020005440200DB
:1034C000245B020010B5044640B1406808B108F022
:1034D0003DFC2046BDE8104008F038BC10BD08B5E2
:1034E000D0E9010208F0EEFEB0FA80F0400908BD14
:1034F0002DE9F047044690460F4611B30C2008F022
:103500001DFCD4F808A0104B08EB0A09036005461F
:10351000C0F8089009F1010008F010FC0646616847
:10352000524668600AF0B0FB4246394606EB0A0094
:103530000AF0AAFB0023204606F80930FFF7C2FF75
:103540002C462046BDE8F087385B020038B50546BA
:103550000C4649B108460AF00DFC214602462846B1
:10356000BDE83840FFF7C4BF38BD10B5044628B1E8
:10357000406808F0EBFB0023C4E9013310BD08B537
:1035800003468B4208460DD073B151B19A688968E1
:103590008A4209D14168586808F094FEB0FA80F078
:1035A000400908BD0120FCE70020FAE7F8B50E4607
:1035B000044690B10C2008F0C1FB094B054603609E
:1035C000701C08F0BBFB21463246C5E901060746E0
:1035D0000AF05AFB00232C46BB552046F8BD00BF1D
:1035E000385B020010B504460AF0C4FB01462046D1
:1035F000BDE81040FFF7DABF70B10023C0E9013326
:10360000C0E9033380F81E34A0F81C34C0F8143429
:10361000C0F81834184670474FF0FF30704730B18B
:1036200029B1C0F82C14C0F83024002070474FF0A6
:10363000FF30704700280CBF4FF0FF30012070476B
:1036400020B119B14160806804F08EB94FF0FF30AD
:103650007047FFFF37B50446002859D019B14160C3
:10366000806804F081F9D4F81834D4F81424013BAC
:103670009A42A06837DB012384F81E3404F060F915
:10368000D4F814142269A2EB81228902A06804F004
:1036900063F9D4E9011023461F4A04F067F90028B2
:1036A000D4F814342ADA00201C4A1D49FFF7BCFE66
:1036B000D4F82C5455B1D4F830346FF00202009392
:1036C00094F81E14174BD4F81404A84794F8200457
:1036D0000130C0B2022884F820044FF0FF3098BFB8
:1036E000002003B030BD94F81E34002BC6D104F086
:1036F00027F94FF48062D4F81414C6E7581CD4F8A4
:103700001834C4F814049842ACBF02200120E8E742
:103710004FF0FF30E5E700BF2937010046440200C3
:10372000624402007244020073B50E4615461C4600
:103730000BB1002A14DA0020204A2149FFF774FE59
:10374000D4F82C5455B14FF0FF32D4F830340093F4
:103750001C4B94F81E14D4F81404A84702B070BD92
:10376000D3F81414E06813468902324603F0E0FFF0
:10377000002811DA0020D4F81434134A1049FFF756
:1037800053FED4F82C54002DE8D0D4F830346FF028
:10379000010200930D4BDCE72A463146B4F81C04C5
:1037A000FFF792FDD4F82C54A4F81C04002DD5D0BA
:1037B000D4F8303400220093054BCAE7804402005D
:1037C00062440200B4440200C1440200E944020021
:1037D000504B020070B50E461546044648B341B33F
:1037E000154A02201549FFF71FFE2B46002DB8BFD2
:1037F00005F2FF33C5F309029B1202B10133C4E99C
:103800000365C4F81834002544F6206384F81E5478
:10381000C4F82434A4F81C54C4F8145484F8205474
:10382000FCF71EFFC4F82804304603F078FF284652
:1038300070BD4FF0FF30FBE7FF440200624402001E
:1038400010B5044628B9074A0749FFF7EDFD2046A1
:1038500010BD0022054B1C46C3E9032298605A6044
:10386000F5E700BF1245020062440200E4070020B1
:1038700003289ABF024B53F820000248704700BF4C
:10388000505B020044450200024630B500F12403BB
:1038900000F17404184623B11D788D4201D153679D
:1038A00030BD1433A342F5D10020F9E72DE9F743E9
:1038B0000A9C05460F46164698463CB92046144ACF
:1038C000144903B0BDE8F043FFF7AEBD124A134BF5
:1038D0001049002E08BF1346114A009303460220E8
:1038E000FFF7A2FDA36F7BB1D3F80890B9F1000FE9
:1038F0000AD0636F3A461878FFF7BAFFE36F29469C
:10390000CDE900833346C84703B0BDE8F08300BF6C
:103910005345020073450200504B020094410200DF
:103920007D45020010B5044628B9BDE81040094A9B
:103930000949FFF779BD436F084A1878FFF798FFE8
:10394000054903460220FFF76FFD072384F8203066
:1039500010BD00BF534502007345020094450200AC
:1039600073B50D4614463AB92046304A304902B084
:10397000BDE87040FFF758BD936F0BB1DB681BB912
:1039800001202C4A2A49F2E799B902202A4A2849FB
:10399000FFF74AFD626FA36F1078DE68FFF768FFDC
:1039A000E36F516800932A46244B4968B04702B040
:1039B00070BDCB1C13D10220214A1D49FFF734FDF5
:1039C000626FA36F1078DD68FFF752FF51686FF0E8
:1039D0000502E36F00931B4B4968A847E7E70235F0
:1039E00011D10220184A1249FFF71EFD626FA36F22
:1039F0001078DD68FFF73CFFE36F516800936FF0CC
:103A00000702124BE8E70220114A0949FFF70CFDB3
:103A1000626FA36F1078DD68FFF72AFFE36F5168CC
:103A200000936FF008020B4BD6E700BF534502002E
:103A300073450200AD450200D0450200E745020093
:103A4000F745020027460200464602007046020083
:103A50008D460200B24602002DE9F0410D461746A0
:103A600008B101B13AB900201B4A1C49FFF7DCFC40
:103A70000020BDE8F0811A4CC4E90001FFF7E0FE28
:103A8000064610B9174A1549F0E7036822469B68B5
:103A900015499847C4E901562846002513492E4682
:103AA0008C60A84600F029FD27610427A06AC4E9BC
:103AB0000B6684F8247008B1FFF704FD606BC4F84E
:103AC000288008B1FFF7FEFC0135042D666304F180
:103AD0001404EBD10248CCE7D34602007345020040
:103AE0000024002004470200AD380100300C002003
:103AF00020B1C0E90512C361002070474FF0FF30CC
:103B0000704720B119B1C0E91E12002070474FF074
:103B1000FF307047F8B5044650B1012903D800EBD7
:103B20008106B16839B900201C4A1D49FFF77CFCA9
:103B30004FF0FF30F8BD0146503091F824509542C7
:103B400024D014318142F8D10021142704F124003B
:103B500007FB01F510F805C0BCF1040F12D1254494
:103B600085F82420069A1846EA62079A2A63FFF726
:103B700039FDA8620898FFF735FD6863B368002037
:103B8000E360D7E701310429E2D1D1E713460120F0
:103B9000044A0349FFF748FCCAE700BF4547020053
:103BA000734502005F47020010B5044610B94FF09C
:103BB000FF3010BD0021FFF767FE20B101236067D1
:103BC00084F8203007E001212046FFF75DFE20B198
:103BD000606784F820100020EBE702212046FFF701
:103BE00053FE0028EAD103212046FFF74DFE0028AE
:103BF000E4D1DCE773B50446002800F0D58090F8E6
:103C00002030013B072B44D8DFE813F008004600C2
:103C10004F0056007D00A600AA00BA00FFF7C4FFBF
:103C200000280EDA0020624A6249FFF7FDFBA36F0D
:103C30001BB19B690BB1E06F9847002384F82030DB
:103C400027E0A36F43B15D6835B1636F197808460B
:103C5000FFF70EFEE26FA847636F83B1E06858B1CB
:103C60000268216915689A68A847636FE0681A6955
:103C700003685168DB689847022384F82030636F3B
:103C80004D4A1878FFF7F4FD4A4903460220FFF732
:103C9000CBFB002002B070BDC068002103681B6927
:103CA00098470228F5D10323C8E70220434A414937
:103CB000FFF7BAFB0423C1E7C068626F036891890C
:103CC0005B699847002817DA00203D4A3949FFF719
:103CD000ABFBA36F83B11D6975B1626F1078FFF7FD
:103CE000C7FDE36F516800936FF00302354B4968DD
:103CF000A847082384F820300220334A2D49FFF7D3
:103D000093FB05239AE7436F1B78032B1DD8DFE84D
:103D100003F002080D160169406800F049FC062313
:103D20008CE70169406800F01CFCF8E7C369009368
:103D30000169D0E90523406800F061FCEFE700224B
:103D40004068114600F0E0FBE9E702201F4A1949EC
:103D5000FFF76AFB082371E7406800F0C3FB98E7B0
:103D6000082380F82030836F002B92D05A69002AF4
:103D70008FD0436F1878FFF77BFDE16F904788E79E
:103D800004230026456F6868C5E902662B7008B1F8
:103D9000FFF798FB28696E6008B1FFF793FB0023DB
:103DA0002B616367012349E74FF0FF3072E700BFE3
:103DB000A647020073450200C0470200E647020022
:103DC000244802004E4802006A4802008948020066
:103DD0002DE9F341456804460E46002D3AD083682C
:103DE0005B686BB12B7802201E4A00930B461E497C
:103DF000FFF71AFBA36828785F68DA68F1B2B84762
:103E0000294600252068FFF729FA20686560FFF73A
:103E10000AFA10BBA3689B68E3B10220134A124957
:103E2000FFF702FBA368D3E9022002B0BDE8F0412E
:103E3000104729462068FFF706FA07620646FCF796
:103E40000FFC0135706286F828802068FFF7EBF9D7
:103E5000A842EEDC02B0BDE8F0814AF6C877A84679
:103E6000F3E700BF9F480200CF480200E14802008C
:103E700037B50B4605461446BAB158B90C4902206D
:103E80000C4AFFF7D1FA2946204603B0BDE830407E
:103E9000FFF79EBF536806491B78074A0090002031
:103EA000FFF7C2FA6FF00301EEE703B030BD00BFC9
:103EB000CF4802001149020030490200F8B54468B9
:103EC000064623780220234A2349FFF7ADFA237AD6
:103ED000022B0AD1206901F01DF9637A0746012BF4
:103EE0000FD0022B15D01D4A00E01D4A1A490020B0
:103EF000FFF79AFA6FF004013046BDE8F840FFF78B
:103F000067BF00F02BFE054600B147B94FF0FF3107
:103F1000F2E76069D4E9061200F00CFFF3E703460C
:103F20003A462178706901F073F900280BDA0D4ADE
:103F300009490020FFF778FA2B6828465B68984704
:103F40007B689847E2E7022384F82830FCF788FB77
:103F50006062F8BD6B490200CF480200A44902002C
:103F600088490200C149020070B50546182007F0D3
:103F7000E5FE0446064690B12C214020FFF71CF9CF
:103F8000206060B1002321460648A560636001F00F
:103F90002BF9606120B9044A0449FFF745FA00266D
:103FA000304670BD713E0100D8490200CF48020082
:103FB00084B070B58CB011AC064684E80E0030B900
:103FC0004FF0FF300CB0BDE8704004B070470023E4
:103FD00001ADCDE909330B930FCC0FC594E80F0069
:103FE00085E80F003068FFF724F904460028E7D180
:103FF0004AF6C8738DF82C000993FCF731FB01A930
:104000000A903068FFF7FAF80028D9DB02209DF803
:104010004430034A0349FFF707FA2046D2E700BFBE
:10402000F3490200CF4802002DE9F041044640B1B7
:104030000068FFF7F8F8002805DC6568002D40F0FF
:104040009480BDE8F0816668002EF6D12068FFF705
:10405000EAF8B042F1DD31462068FFF7F4F890F855
:1040600028700546002F2BD1FCF7FAFA6B6AC01AAC
:104070002B6A984224DB2B78514A38465149FFF786
:10408000D3F9A26853681BB1FE21D26828789847FB
:1040900029462068FFF7E2F8A3689B68002BD0D080
:1040A0002068FFF7C0F80028CBD10220464A4549D6
:1040B000FFF7BAF9A368BDE8F041D3E90220104741
:1040C0006B682878D3E90221904700284BD06560BF
:1040D0002B7802203D4A3B49FFF7A6F96568002D81
:1040E000AFD02B783A4A02203649FFF79DF96A682B
:1040F00013683BB9022385F828302046BDE8F0411B
:10410000FFF7DCBE42F21071D26828789847002889
:1041100012DA00202B782F4A2A49FFF785F9A36885
:1041200000211E68DA682878B0472046BDE8F041D3
:104130006FF00201FFF74CBE6B685B684BB902235E
:1041400085F82830A36801211E68DA682878B0470E
:10415000D3E742F210732B62FCF782FA0123686204
:1041600085F828306DE7013670E795F82860012E54
:104170001BD1FCF775FA6B6AC01A2B6A9842287833
:1041800005DBA36800211D68DA68A847CDE76B68E6
:104190005A68D968904740B1A368287831461F68AB
:1041A000DA68B8472046FFF789FE95F82830022BD9
:1041B0007FF447AF6069BDE8F04101F0CDB800BFC2
:1041C000274A0200CF480200E1480200554A020097
:1041D000804A0200984A020091F838007047012096
:1041E0007047FFFF13B51C46CDE90012074B084A84
:1041F0000849022818BF13460220074AFFF714F99E
:10420000012384F8383002B010BD00BFB34A020069
:10421000AC4A0200E94A0200BB4A020013B51C4640
:10422000CDE90012074B084A0849022818BF134677
:104230000220074AFFF7F8F8012384F8383002B06B
:1042400010BD00BFB34A0200AC4A0200E94A0200B6
:10425000FA4A020008B5044A034604490220FFF75F
:10426000E3F8012008BD00BF224B0200E94A02002A
:1042700008B5044A034604490220FFF7D5F8012097
:1042800008BD00BF394B0200E94A020010B50446E0
:10429000064A02200649FFF7C7F8636B2BB15A683C
:1042A0001AB1BDE810409868104710BD584B020085
:1042B000E94A020007B50346064A0748002918BF25
:1042C0000246022000920549054AFFF7ADF803B007
:1042D0005DF804FBAC4A0200504B0200E94A0200C0
:1042E000764B02004FF408532DE9F043164D4FF082
:1042F00001092B600023154EDFF870803370144ADB
:10430000144B154F87B0022918BF1346044688F88E
:1043100000100220114A1249C7F80090FFF784F8F4
:10432000104B114803934FF47A73CDE90193049431
:10433000CDF800803B6832782968006803F065F8A2
:1043400007B0BDE8F08300BF842400208124002052
:10435000914B02008A4B020088240020994B0200F6
:10436000E94A0200E5410100982400208024002051
:1043700073B51646104A0D1E104B08BF134604466F
:1043800000930F4A03460F490220FFF74DF8022C15
:1043900003D100213046FFF7A5FF736B4BB11E68B8
:1043A0003EB19A6829462046334602B0BDE87040C7
:1043B000184702B070BD00BF504B0200AC4A02006B
:1043C000AF4B0200E94A020030B50023044682F8F0
:1043D0003830631E104687B0072B2FD8DFE803F074
:1043E0002A1F2E2E04040425234642F2010107242D
:1043F0000125144A1360144A1160144A1470144AB7
:10440000157004901348009203904FF47A70CDE930
:10441000015011482246006802F0F7FF02E0022135
:10442000FFF760FF012007B030BD082342F601010D
:104430000024DDE701234FF40C51D9E74FF0FF30A2
:10444000F1E700BF94240020902400208D24002058
:104450008C2400201D420100982400200120704778
:1044600038B5054628B9124A1249FEF7DDFF28463D
:1044700038BD114C114B2462E361114B246363611D
:10448000104B2546A361104BE362104B6362104B47
:10449000A362104B6360104BA360104BC4E903345C
:1044A0000F4B1860201DFFF75FFD2060DFE700BFA6
:1044B000D14B0200E94A02009C240020DF410100A8
:1044C000C9430100D94101005D440100554201008A
:1044D00071420100B5420100714301008D420100AB
:1044E0009824002008B528B1006818B1FFF79CFD9A
:1044F000002008BD4FF0FF30FBE710B14163002002
:1045000070474FF0FF3070472DE9F0410D4690465F
:1045100004468EB010B3076807B302291ED806AE52
:10452000202200211434304607F0A4FF07944FF4F2
:1045300081736C4605358DF81850CDF8288009AD8B
:10454000ADF820300FCD0FC42B683846236096E8B5
:104550000E00FFF72DFD0EB0BDE8F0814FF0FF30EB
:10456000F9E7F0B50D4604468FB0F0B10768E7B142
:1045700006AE20220021304607F07CFF01231434D0
:104580008DF8183007944FF481736C460A9509AD85
:10459000ADF820300FCD0FC42B683846236096E865
:1045A0000E00FFF705FD0FB0F0BD4FF0FF30FAE74A
:1045B000F0B50D4604468FB0F0B10768E7B106AE1E
:1045C00020220021304607F055FF022314348DF8D5
:1045D000183007944FF481736C460A9509ADADF815
:1045E00020300FCD0FC42B683846236096E80E00AC
:1045F000FFF7DEFC0FB0F0BD4FF0FF30FAE72DE91A
:10460000F043894617461D4604468FB020B3D0F8C4
:104610000080B8F1000F1FD006AE102200213046F6
:1046200007F028FF082324348DF81830079440F24F
:1046300002236C46CDE90A970C9509ADADF8203000
:104640000FCD0FC4169B4046236096E80E00FFF77F
:10465000AFFC0FB0BDE8F0834FF0FF30F9E700206A
:1046600070474FF0FF320346C26300205A60C3E92F
:104670000C0083F83800704730B12AB100EBC1005C
:10468000C0E90223002070474FF0FF307047FFFF62
:1046900008B5044B03201B78034A0449FEF7C4FE07
:1046A000032008BDD8240020134C02003D4C02001A
:1046B0007FB51C46ABB30026032883F849601DD1A3
:1046C0000B46009230461B4A1B49FEF7ADFEE36BDA
:1046D000B34226DB94F838308DF80F60032B08D1F5
:1046E000D4E906310DF10F0098474FF0FF33E36333
:1046F00017E0022BF9D1D4E90431F3E7022810D1F5
:1047000093F83830012B0ED0E36B0133E363E36B96
:10471000022B06DD01238DF80F3094F83830022B80
:10472000E9D004B070BD4FF47A732364FBF798FFAF
:104730006064ECE7544C02008A4C020008B540B1BA
:104740004368002B08DB8B4206D01946074808F067
:104750001BF84FF0FF3008BD0123416080F838306E
:10476000034808F011F80020F5E700BF924C020062
:10477000D54C020013B50446B0B14368002B13DBDF
:1047800001638B890A4801938B6800938B784A7880
:10479000097807F0F9FF022384F838304FF0FF332F
:1047A0000020E36302B010BD4FF0FF30FAE700BF16
:1047B000034D020037B51B4D1B4903201B4AFEF772
:1047C00033FE29781A4C022917D194F83830032B7C
:1047D00013D1E36B012B0DDD164807F0D5FF012344
:1047E0000DF107008DF80730D4E9063198474FF0F6
:1047F000FF33E363032003B030BD94F83830012B5E
:10480000F8D18DF807300DF10700D4E9023198474F
:104810002B780320084A0449FEF706FE002384F89B
:104820003830E7E7D92400203D4C0200364D020025
:104830003C0C0020574D02006E4D02002DE9F04364
:104840000C4687B040B34568002D25DB032380F874
:1048500038304FF0FF334163C3630846D1E9008924
:104860008E68B1F8107400F0B0FC0D4B0D4A0E4983
:10487000002818BF1A46B4F810340220CDE90423EA
:10488000CDE902892B46CDE90067084AFEF7CCFD49
:10489000002007B0BDE8F0834FF0FF30F9E700BF1C
:1048A000AE440200AC4402003D4C0200874D0200C1
:1048B00070B5044686B0002800F03A8190F8383090
:1048C000032B00F23181DFE803F029022CACFBF767
:1048D000C7FE636CC01A236C98421FDB964E30688B
:1048E00002F08CFDA8B994F8493093B9934B012597
:1048F00003935023CDE9015304F14803049400933A
:10490000072242F201016368306802F07EFD84F8FC
:10491000495050232364FBF7A3FE6064002006B0D7
:1049200070BDC36B002B30D1834D286802F066FD4B
:10493000F8B9E36BEBB994F84930002BEED17F4B1B
:104940004FF47A7103930423CDE901310494236B6E
:10495000012208330093636842F20101286802F0E3
:1049600054FD0123764A84F8493003207549FEF747
:104970005BFDE36B002BD1DA6F4B186802F03EFD54
:104980000028CBD10023E363C8E7012B21D16A4E75
:10499000306802F033FD0028EBD1E56B012DE8D142
:1049A00094F84930002BB9D1644B022203934FF4A1
:1049B0007A73CDE901230494236B42F201010C3395
:1049C00000936368306802F020FD5F4A84F8495024
:1049D000CBE7022BCDD1584E306802F00FFD0028F6
:1049E000C7D1E36B022BC4D194F8493003F0FF0226
:1049F000002B93D1514B032503934FF47A73CDE9E8
:104A000001530494236B42F2010100936368306800
:104A100002F0FBFC012328464C4A4A4984F84930FD
:104A2000A5E7C36B4BBB444D286802F0E7FC0028A8
:104A30009FD1E36B002B9CD194F84930002B7FF47D
:104A40006DAF3E4B4FF47A7203930423CDE90132EC
:104A50000494636B03220093636842F201012868A7
:104A600002F0D3FC012384F84930636B384A1B6899
:104A700003203449FEF7D8FC7BE7012B27D12E4ECB
:104A8000306802F0BBFC00287FF473AFE56B012DAA
:104A90007FF46FAF94F84930002B7FF43FAF274A83
:104AA000636B039241F2883204940292DA68103305
:104AB000019200930422636842F20101306802F01F
:104AC000A4FC636B84F84950DB68224AD0E7022BD0
:104AD0007FF44FAF184D286802F090FC00287FF457
:104AE00048AFE36B022B7FF444AF94F84920002ACF
:104AF0007FF414AF114A0494039241F28832CDE955
:104B00000132636B052203F582630093636842F20E
:104B10000101286802F079FC012384F84930636BB5
:104B20000D4AB3F81034A3E7002380F83830F5E6D7
:104B30004FF0FF30F3E600BF98240020B14601009B
:104B4000E94D02003D4C0200F74D0200044E020008
:104B5000154E02002D4E0200444E020038B50022D0
:104B600042F201051E4B19680C88944202DC0023B6
:104B70005B68FFDE486800EBC20330F83200A842F1
:104B800001D00132F1E75968164A174C0A67596893
:104B9000896F0A605A681549926F51605968144AC2
:104BA0000A665968896E0A605B68124A9B6E032127
:104BB0005A60114B186802F0A0FB00234FF0FF323F
:104BC000C4E90C3384F8383084F849305023E26368
:104BD00062602364FBF744FD6064204638BD00BF7B
:104BE0006C150020D82400203C0C002091460100C8
:104BF000D9240020B54701009824002000207047E8
:104C000003464FF0FF3200201A87C3E91120C3E9A1
:104C10001300586370472AB100EBC100C0E90123BB
:104C2000002070474FF0FF307047012307B58DF823
:104C30000730D0E901310DF107009847002003B09B
:104C40005DF804FB37B5044600258A89238F0846A2
:104C50009A428DF8075023D18A68636B9A421FD11C
:104C600001238DF80730E36C6BB9104B0220104A1A
:104C70001049FEF7D9FBD4E903310DF1070098473D
:104C8000002003B030BD216D9847002803DA8DF86D
:104C90000750094BEAE79DF80730002BF9D0E4E70D
:104CA0000020064A0349FEF7BFFBE4E75F4E02001F
:104CB000674E02008B4E0200584E0200A04E0200CA
:104CC000012370B50C46054686B08DF81730D0E943
:104CD00005310DF117009847D4E900320293531EB5
:104CE0009B02CDE900231149A3680220104AFEF778
:104CF0009BFB61686B6C8B4214DA04F1100601397E
:104D00003246A3688902A86C02F012FD636831463E
:104D10006B64A268288FFEF7D7FA28876B6BA268AE
:104D200013446B63E06806B070BD00BF8B4E020099
:104D3000B74E020070B50E461546044628B90E4A15
:104D40000E49FEF771FB204670BD02F0E5FC0C4AEF
:104D500003460A490220FEF767FB204602F0DFFC0B
:104D60004FF0FF320021074BC3E91124C3E913655B
:104D70001C4659631A87E6E7F04E02008B4E02008C
:104D8000054F0200880C00200020704710B54FF03E
:104D9000FF320024084B2146C3E901449C811C7565
:104DA0001A61064B20221C70054B06481C6007F058
:104DB00061FB204610BD00BFF80C0020E02400205D
:104DC00004250020E124002070B50546194E1A483C
:104DD0008EB03223316801AA006802F0BAFC01AA41
:104DE0001146002311F8010BFF2809D10133322BA2
:104DF000F8D14FF0FF3420460EB070BD00240BE018
:104E00009DF804300A2BF9D0012412F8013F013437
:104E10000A2B01D0322CF8D13368322223440021EE
:104E20002846336007F026FB2246284601A908F0F1
:104E30002BFFE0E708250020DC240020F0B500244B
:104E4000414D9DB002A8FFF7BFFF0746002863D081
:104E5000861E02AB29469819013407F0B7FB40B112
:104E600007F16F036B4413F8683C7E1E0A2B18BFD2
:104E70003E46B1B20FAA02A8FEF7A4FA81B20FA86B
:104E8000FEF76AFA40B90220304A3149FEF7CCFAFF
:104E90004FF0FF301DB0F0BD0379042BD2D801A232
:104EA00052F823F0094F01003F4F0100DF4E01008F
:104EB000454E0100B94E010026494B6843B983684D
:104EC0001A88438852BA5BBA9BB203EB02434B6029
:104ED00023460220204A1E49FEF7A6FAB2E783685D
:104EE0001A88438852BA5BBA92B29BB203EB0213A0
:104EF000184A516801B95360009302202346174AAB
:104F00001349FEF791FA9DE7124A1369002B99DACB
:104F100043885BBA9BB213610E4A0024536811693F
:104F200002200B444FF6FF715360918114750849BC
:104F30000B4AFEF779FA0B4B20461C60AAE70A4899
:104F400007F0E0FCE8E700BFFA550200364F020028
:104F5000554F0200F80C0020614F0200834F020001
:104F6000C74F020008250020B04F02002DE9F04F86
:104F70004E4F05463C68D0F80490ADF2744D34B104
:104F800022464B491CA808F07FFE00233B60DFF857
:104F900040A1B4F5806F3CD20DF108084046FFF700
:104FA00013FF8346002838D121461CA8FEF774F968
:104FB000404E804622461CA9B089FEF785F9B368A9
:104FC00072682344B081B3604946234602EB8922CC
:104FD0002846CDF8008000F0CCF822461CA92846CF
:104FE00000F0D5F86B680220334A3449FEF71CFA0A
:104FF000334B1B78002B53D03B68002B50D1012141
:10500000284600F0DAF821462E4807F0BDFB0120C3
:1050100021E03CD14FF48064C6E7861E514608EB80
:10502000060007F0D3FA30B10BF1FF3618F806305E
:105030000A2B18BF5E46B1B20FAA4046FEF7C2F96E
:1050400081B20FA8FEF788F9064640B91E4807F05E
:1050500059FC4FF0FF300DF2744DBDE8F08F90F821
:1050600004B0BBF1000F08D11CAB4278816818195D
:1050700008F00AFE73781C448BE7BBF1010F8DD159
:10508000124807F03FFC0E4B83F800B08CE7A4F504
:1050900080620DF58E6106483A6008F0F5FDB9E7CB
:1050A0000021284600F089F8B1E700BF0425002060
:1050B000E1240020F80C0020FD4F0200554F0200B3
:1050C000E02400201C500200DF4F0200B04F02001D
:1050D000FA55020008B50C4B1B782BB90B4807F0AA
:1050E00053FB4FF0FF3008BD094B9A781988827046
:1050F00001805A6842609A6882609A8982811B7D29
:1051000003750020EFE700BFE024002059500200A3
:10511000F80C002068B1074B4FF0FF3118600023F6
:10512000054A0648C2E90133938113751161044AA7
:1051300013607047DC240020F80C0020DC0C0020F9
:105140000825002010B540F2144006F0F7FD044693
:1051500020B140F21442002107F08CF9204610BD26
:1051600008B518B106F0F2FD002008BD4FF0FF3081
:10517000FBE710B94FF0FF30704783600023C0E9B0
:105180000021BDF80020C360A0F81024704770B55E
:1051900080B10023934209DAC468651CC560CE5C07
:1051A000044426748468A54202DDD21A104670BDFC
:1051B0000133EFE74FF0FF32F8E718B180F812142F
:1051C000002070474FF0FF30704710B548B1B0F87D
:1051D0001044C1681030FEF75FF8231A5842584156
:1051E00010BD4FF0FF30FBE770B5064634200D468A
:1051F00006F0A4FD044640B128220021043007F047
:1052000039F90023C4E90B652360204670BDFFFF18
:105210002DE9F84F0F4615461E46044600283ED09D
:10522000002A3CD0002B3AD08046814600F1280B62
:1052300059F804AFBAF1000F0CD0504600F0E1F974
:10524000B84207D132462946504600F0E0F9002026
:10525000BDE8F88FD945EBD129462346324638467A
:1052600000F04AF90546D0B1002358F8042F92B94E
:1052700004EB830303210B4A5D6028462B4600F0B4
:10528000D0F92B4604212846074A00F0CAF92368C2
:1052900001332360DBE701330A2BE6D1D7E74FF078
:1052A000FF30D5E727530100ED5201002DE9F04111
:1052B0000E460446B8B10746002557F8048F40460D
:1052C00000F09FF9B0420BD1404600F07BF900207E
:1052D00004EB850568602368013B2360BDE8F0812D
:1052E00001350A2DE9D14FF0FF30F7E770B50846D8
:1052F0000D4600F083F9044690B1C66A3EB12846D7
:1053000000F07FF9226B01464FF0FF30B04728468E
:1053100000F077F901462046FFF7C8FF002070BD76
:105320004FF0FF30FBE770B508460D4600F066F918
:10533000044640B1C66A36B1284600F062F9226BD5
:1053400001460020B047284600F05BF901462046A0
:10535000FFF7ACFF002070BD38B5044660B10368AC
:1053600053B100F1280554F8040F08B100F066F9B4
:10537000AC42F8D1002038BD4FF0FF30FBE7FFFF13
:1053800008B529B9064807F0FFF94FF0FF3008BD0E
:105390000523044881F82C3007F0B4FA0020F6E722
:1053A00085500200AC50020008B529B9064807F044
:1053B000EBF94FF0FF3008BD0423044881F82C308E
:1053C00007F0A0FA0020F6E785500200D250020054
:1053D00038B50C46057829B90A4807F0D5F94FF0D9
:1053E000FF3038BD09683DB10423074884F82C30EC
:1053F00007F0CAF90020F4E7044807F0C5F9A565ED
:10540000F8E700BF85500200FA5002001D5102006B
:1054100010B50C4629B90D4807F0B6F94FF0FF302A
:1054200010BD03780BB90020FAE7002381F8603043
:10543000032381F82C3042F210738B65FBF710F9CF
:105440002168E065024807F09FF9ECE7855002000B
:105450004051020010B50446FBF702F96368C31A15
:1054600020689842D4BF0020C01A10BD10B50C4669
:10547000007829B91B4807F087F94FF0FF3010BDBD
:105480000B6848B3C9681A464968174807F07CF9A1
:1054900063685B6913B1E26850689847E2685368D3
:1054A00001335360E36893F812346BB121680F48FD
:1054B00007F06AF9022384F82C300023A3652374D3
:1054C00084F860300020DAE784F86030FBF7C8F831
:1054D000E06500232374F5E7054A0649FDF7A4FFBC
:1054E000F7E700BF8550020066510200A05102009C
:1054F000CD5102008A4C02002DE9F041061E0F46F4
:105500001546984603DA00242046BDE8F0810029BC
:10551000F9D0002AF7D0682006F010FC04460028D5
:10552000F1D0FFF70FFE18B9204606F00FFCEAE7AE
:1055300026600026E06084F82C60A665FBF790F8F2
:10554000C4E901753B6884F860602674E065C4F8BE
:10555000648098472B6828461B6898472B6831461B
:105560009F6828462346114AB8472B6801219E6848
:10557000284623460E4AB0472B6802219E682846DB
:1055800023460C4AB0472B6803219E6828462346D1
:10559000094AB0472B6803219E6828462346074ADC
:1055A000B047074807F0AEF9AEE700BF115401005D
:1055B000D15301006D540100A95301008153010032
:1055C000F951020010B50446A8B143681BB15B68ED
:1055D000984700236360A06820B103685B68984720
:1055E0000023A360E06808B1FFF7BAFD204606F08B
:1055F000ADFB002010BD4FF0FF30FBE700B1406E67
:10560000704708B1006870474FF0FF30704728B10D
:1056100021B11AB1C0E90112002070474FF0FF30EC
:10562000704740B13AB1042905D800EBC100C0E988
:105630000C23002070474FF0FF30704730B5044610
:1056400087B0002800F0928043689B6903B19847B7
:10565000A06803689B6903B1984794F82C30052B28
:1056600000F29280DFE803F003092762ABB2012366
:1056700084F82C30002007B030BD04F15800FFF74B
:10568000E9FE0028F6D194F86030A068013384F870
:10569000603003682168DB68984794F86030042B19
:1056A00084BF052384F82C3041F66413A365FAF710
:1056B000D7FFE065DEE704F15800FFF7CBFE0546B3
:1056C0000028D7D141F28833A365FAF7C9FF94F8CF
:1056D0006030E0650133DBB2042B84F8603007D919
:1056E00028463B4A3B49FDF79FFE052384F82C30B2
:1056F000636868469B6898470028BBDB9DF80230CA
:10570000BDF8002004F11401A2828B70019BA068F7
:10571000A361029BE361BDF80C3023849DF8143033
:1057200084F8283003681B699847A3E7237C002B83
:1057300036D194F86050E5B10123237444F6206318
:10574000A365FAF78DFFE065234807F0DBF894F8CE
:105750006030A068013384F860300368E1685B69F9
:105760009847002815DA1D4807F00EF84FF0FF3073
:1057700081E76368E0681B699847002806DA184AE1
:1057800000201449FDF750FE052371E73FF472AF86
:10579000D2E794F86030042B7FF66CAF114AEFE744
:1057A00004F15800FFF756FE00287FF463AF0E4A5D
:1057B0000849FDF739FE052384F82C3077E7A36C00
:1057C000002B3FF457AF21460020ADE7236DF7E7EC
:1057D000095202008A4C02001E5202006652020068
:1057E0003E52020091520200A6520200084B0822CB
:1057F000C3E9000118460021013AC3E90211C3E9D7
:10580000041103F11003F7D180F888200048704795
:105810000C25002010B550B190F88830072B9FBFA1
:1058200000EB03140133C4E9021280F8883010BD84
:1058300010B5034686B0B8B100240A6848680192E2
:105840008A8989688DF80A2004AA03C21B68ADF80A
:1058500008402146186801AAFDF78AF8001B18BF06
:105860000120404206B010BD4FF0FF30FAE708B506
:1058700048B10368D3E90001FCF7A6FF003818BF60
:105880000120404208BD4FF0FF30FBE7F8B50F465E
:10589000044680B10546002694F88830B34201DC06
:1058A0000020F8BDAB681BB139462046EA6898472E
:1058B00001361035F0E74FF0FF30F2E738B5044617
:1058C000FAF7CEFE251841EBE474FAF7C9FEA842B8
:1058D000A141FADB38BD0121FDF70CBA014B18607C
:1058E000184670479825002010B528B144681CB1AF
:1058F0008268A047002010BD4FF0FF30FBE710B5D5
:105900000446062006F01AFA048010BD70B50C4655
:10591000054610B94FF0FF3070BD0A4BD3E9006166
:105920003046FCF739FA0028F4D1221E18BF0122B4
:10593000304629889200FCF73FFA003818BF012052
:105940004042E9E7285602000A4608B548B1064B2E
:1059500001881868FCF73EF9003818BF0120404262
:1059600008BD4FF0FF30FBE72856020010B1024B94
:1059700018601846704700BFA425002020B10368B6
:10598000D3E90001FBF7EEB8704708B548B10068ED
:1059900007230068FBF7D6FA003818BF0120404201
:1059A00008BD4FF0FF30FBE708B548B1006807239A
:1059B0000068FBF7D1FA003818BF0120404208BD4B
:1059C0004FF0FF30FBE713B558B10724006800948F
:1059D0000068FBF7CAFA003818BF0120404202B045
:1059E00010BD4FF0FF30FAE770B50E46044660B1C7
:1059F000102006F0A3F900230546C0E900468360A5
:105A0000D4E90001FCF774FA2C46204670BD08B1B9
:105A1000C0E90212704718B103681868FCF7E7B9CB
:105A20004FF0FF30704718B182680AB1C168104763
:105A300070472DE9F041884616461F46054698B145
:105A4000382006F07BF90446C0E900584772067218
:105A500001224FF400610C30FDF73CFB002325468A
:105A6000C4E90C33C4E90A332846BDE8F08108B51F
:105A700040B103681868FBF760FB003818BF0120CD
:105A8000404208BD4FF0FF30FBE7F8B50F46164621
:105A900070B1002400F10C05B44201D12046F8BDDC
:105AA00028463919FDF766FB0028F7D00134F3E7E3
:105AB0004FF0FF34F2E708B548B10368D3E90001BD
:105AC000FBF7D6FB003818BF0120404208BD4FF05D
:105AD000FF30FBE770B50E46044610B94FF0FF30BB
